:100000000C946E010C94D61C0C94AB1C0C94801CAC
:100010000C94551C0C942A1C0C94FF1B0C94D41BA0
:100020000C94A91B0C9498010C9498010C949801C1
:100030000C94341E0C9498010C9498010C94980123
:100040000C945F1B0C9498010C94291B0C94FF1AC0
:100050000C9498010C9498010C9498010C949801BC
:100060000C9498010C9498010C9498010C949801AC
:100070000C9498010C94251E0C9498010C949801F2
:100080000C9498010C94011D0C9498013E030000FF
:100090000000000B0D0000000000000101C0800006
:1000A000000000000000000000060000000000004A
:1000B0000000000000000000000000000000000040
:1000C000000000000000FF1F000000000000000012
:1000D0000000000000000000000000000000000020
:1000E0000000000000000000000000000000000010
:1000F000000000000000000000000000010080007F
:1001000002008000030080000400800005008000E1
:1001100006008000070080000800800009008000C1
:100120000A00FF000B00FF000C00FF000D00FF00A5
:100130000E00FF000F00FF001000FF001100FF0085
:100140001200FF001300FF001400FF001500FF0065
:100150001600FF001700FF001800FF0000008000DD
:10016000000080000000800000008000000080008F
:100170001980FF001981FF00FF000000FF00000050
:10018000FF000000FF000000FF000000FF00000073
:10019000FF000000FF000000FF0000000000000062
:1001A000000000000000000000000000000000004F
:1001B00000000000000000000000003A003700349A
:1001C00000310022006100640000003B003800356F
:1001D0000032002300620065007000740078007C2B
:1001E000008000840088008C009000940098009C9F
:1001F00000A000A400A800AC00B000B400B800BC8F
:1002000000C000C400C800CC00D000D400D800DC7E
:1002100000E000E400E800EC00F000F400F800FC6E
:10022000000001040108010C010000390036003310
:1002300000300021002000630005050505050505C7
:100240000502020202020202020707040404040477
:100250000404040707030303030303030307010163
:100260000101010101010606060606060606010255
:10027000040810204080010204081020408008106B
:10028000010204081020408001020102040810202D
:10029000408004804020100804020101020408107C
:1002A0002040800000000A0B0C000000000000014C
:1002B000040506000000000000000000000000002F
:1002C000000000000000000000000000000000002E
:1002D00000000000000000009D1F802911241FBEA7
:1002E000CFEFD0E1DEBFCDBF11E0A0E0B1E0E8EAA2
:1002F000F6E500E00BBF02C007900D92A238B107EF
:10030000D9F728E0A2E8B1E001C01D92AE32B207F1
:10031000E1F711E0CDE6D1E004C02197FE010E9493
:10032000D529CC36D107C9F70E946E220C94472BF1
:100330000C94000020917407309175072115310548
:1003400049F090E0880F991F820F931FFC01808174
:100350009181089590E080E008952091A30281E0CA
:10036000213208F044C080917F028111FCCF80913E
:10037000A20292E090937F0291E090937E029FEF21
:1003800090937D0210927C0220937B02A2E8B2E05F
:10039000EBE5F2E090E0291331C010925A029091FF
:1003A0005A02880F892B80935A028091590281301A
:1003B00049F51092590280915A02809373008091FE
:1003C000740083FDF8CF85EC8093740080917F02E8
:1003D0008230E1F380917D028F3FB1F080917D0208
:1003E0008032A1F080917D02803391F084E0109200
:1003F00081021092A3021092800208953D913193E0
:100400009F5FC9CF85EEE0CF80E0F1CF82E0EFCFF4
:1004100083E0EDCF089581E0809351020895FC01BF
:10042000538D448D252F30E0842F90E0821B930B59
:10043000541710F0CF96089501970895FC01918DFF
:10044000828D981761F0A28DAE0FBF2FB11D5D9602
:100450008C91928D9F5F9F73928F90E008958FEFA4
:100460009FEF0895FC01918D828D981731F0828D58
:10047000E80FF11D858D90E008958FEF9FEF0895AF
:10048000FC01918D228D892F90E0805C9F4F821B13
:1004900091098F7399270895FC01A48DA80FB92F96
:1004A000B11DA35ABF4F2C91848D90E001968F739C
:1004B0009927848FA689B7892C93A089B1898C91BB
:1004C00080648C93938D848D981306C00288F38981
:1004D000E02D80818F7D80830895EF92FF920F93AE
:1004E0001F93CF93DF93EC0181E0888F9B8D8C8DE0
:1004F000981316C0E889F989808185FF11C0EE89BB
:10050000FF896083E889F98980818064808381E044
:1005100090E0DF91CF911F910F91FF90EF900895A0
:10052000F62E0B8D10E00F5F1F4F0F731127E02E7B
:100530008C8D8E110CC00FB607FCFACFE889F989B3
:10054000808185FFF5CFCE010E944C02F1CFEB8D6B
:10055000EC0FFD2FF11DE35AFF4FF0820B8FEA895C
:10056000FB8980818062D2CFCF93DF93EC01888DAD
:100570008823B9F0AA89BB89E889F9898C9185FD1E
:1005800003C0808186FD0DC00FB607FCF7CF8C91AC
:1005900085FFF2CF808185FFEDCFCE010E944C0216
:1005A000E9CFDF91CF91089585ED92E00E9440025E
:1005B00021E0892B09F420E0822F089580E090E06B
:1005C000892B29F00E94D40281110E94000080E052
:1005D00090E0892B49F080E090E0892B29F00E947F
:1005E000000081110C94000008950895E0910C0220
:1005F000F0910D02309729F0109281021092A3021F
:1006000009940895CF93DF93AC01E0910E02F0912D
:100610000F023097F1F090910B0280910A02981727
:10062000C0F090E0292F30E02617370754F4D901A5
:10063000AC57BE4F240F351FE90128812C939F5FD3
:10064000F1CF10920B0260930A02CB01DF91CF91A0
:100650000994DF91CF910895DC011296ED91FC9100
:10066000139711969C911197808161110EC09095FE
:10067000982390831496ED91FC9115979081119693
:100680008C918095892380830895623061F49095E0
:10069000982390831496ED91FC9115978081119683
:1006A0009C91892BF0CF982B90830895AF92BF92A5
:1006B000CF92DF92EF92FF920F931F93CF93DF932E
:1006C0006C017B018B01040F151FEB015E01AE185D
:1006D000BF08C017D10759F06991D601ED91FC917F
:1006E0000190F081E02DC6010995892B79F7C501AC
:1006F000DF91CF911F910F91FF90EF90DF90CF90FE
:10070000BF90AF90089581508C3088F5E82FF0E0CD
:10071000E457FC4F0C94D529B403B403B7039803F2
:100720009C039F03A203B703B703A603AC03B00364
:100730008FB58F778FBD08958FB58F7DFBCF8FB528
:10074000877FF8CF85B58F7D85BD089580918B001B
:100750008F7780938B00089580918B008F7DF9CFE8
:1007600080918B00877FF5CF83B78F7D83BF0895FE
:100770001F93CF93DF93282F30E0F901ED55FD4F04
:100780008491F901E259FD4FD491F901E75CFD4FE5
:10079000C491CC23A9F0162F81110E948303EC2F62
:1007A000F0E0EE0FFF1FE753FE4FA591B4918FB716
:1007B000F894EC91111108C0D095DE23DC938FBF23
:1007C000DF91CF911F910895DE2BF8CFCF93DF9368
:1007D00090E0FC01E259FD4F2491875C9D4FFC01A4
:1007E00084918823D1F090E0880F991FFC01E75491
:1007F000FE4FA591B491FC01E753FE4FC591D491F2
:1008000061110EC09FB7F8948C91E22FE0958E2372
:100810008C932881E223E8839FBFDF91CF910895D5
:100820008FB7F894EC91E22BEC938FBFF6CF3FB7E4
:10083000F8948091000290910102A0910202B0917F
:10084000030222B706B600FE05C02F3F19F001963D
:10085000A11DB11D3FBFBA2FA92F982F8827BC011A
:10086000CD01620F711D811D911D42E0660F771F42
:10087000881F991F4A95D1F708958F929F92AF9242
:10088000BF92CF92DF92EF92FF924B015C010E94E8
:1008900017046B017C010E9417046C197D098E09F5
:1008A0009F09683E734081059105A8F321E0821AF3
:1008B0009108A108B10888EEC80E83E0D81EE11C9B
:1008C000F11C81149104A104B10429F7FF90EF9069
:1008D000DF90CF90BF90AF909F908F90089561E090
:1008E0008BE00E94B80364E070E080E090E00E943A
:1008F0003D0460E08BE00C94B8030C946F042FB7B8
:10090000F8946091FC017091FD018091FE0190913D
:10091000FF012FBF0895E82FF0E0DF01AA0FBB1FF2
:10092000A050BF4F11967C936E938830A8F4E55683
:10093000FB4F0C94D529A304AD04BA04C804D60413
:10094000DD04E804F40480916A008C7F482B409316
:100950006A0089B7816089BF089580916A00837FAA
:10096000440F551F440F551F482B40936A0089B709
:100970008260F1CF80916A008F7C74E0440F551F34
:100980007A95E1F7482B40936A0089B78460E3CFFA
:1009900080916A008F7366E0440F551F6A95E1F7F6
:1009A000482B40936A0089B78860D5CF8AB78C7F7F
:1009B000482B4ABF89B78061CECF8AB7837F440F67
:1009C000551F440F551F482B4ABF89B78062C3CFBC
:1009D0008AB78F7C24E0440F551F2A95E1F7482BF6
:1009E0004ABF89B78064B7CF8AB78F7396E0440F48
:1009F000551F9A95E1F7482B4ABF89B78068ABCF5E
:100A0000883010F40C948B0408950E9417042091F0
:100A1000F9013091FA01FB01E21BF30B2091BC02BA
:100A20003091BD02E217F30708F438C12091BE02ED
:100A30003091BF027093FA016093F9014091C002B6
:100A40005091C1024130510599F148F042305105B1
:100A500009F4B9C04330510509F4EFC00895E21715
:100A6000F30708F0D4C08091C3028F5F8093C30264
:100A70008B3008F413C181E090E09093C102809321
:100A8000C00241E050E065E075E08091B6020E944E
:100A900000051092F80182E590E09093BF028093E8
:100AA000BE0283E290E09093BD028093BC02089561
:100AB0004091F8014130A9F038F0433009F449C0C1
:100AC000443009F47CC00895E217F30730F491E054
:100AD0009093F801E093F701089584E08093F80182
:100AE0000895E217F30798F51092F8019091C30268
:100AF0009F5F9093C3028E2FEE0F990B2091F70109
:100B0000821B910927FD939597FF03C091958195CD
:100B1000910949970CF4C2C01092C1021092C00210
:100B200082E990E09093BF028093BE0282E590E05C
:100B30009093BD028093BC021092C3024091A40224
:100B400050E065E075E08091B6020C94000583E00A
:100B5000C5CFE217F30700F38091A402833061F55B
:100B600082E08093A40282E090E09093C10280939F
:100B7000C00282E990E09093BF028093BE0282E5BA
:100B800090E09093BD028093BC021092C502109237
:100B9000C7021092C8021092C9021092CA021092A3
:100BA000CB021092CC028091C3028093C6021092B5
:100BB000C3021092C402C2CF4093A402D4CFE21762
:100BC000F30788F6A9CF5091C3025F5F5093C30229
:100BD0004091C402440FE217F307E0F04093C402CF
:100BE000583009F05BC0E091C502E630A9F41092DC
:100BF000C1021092C00282E990E09093BF028093FC
:100C0000BE0282E590E09093BD028093BC021092F8
:100C1000C30208954160E2CF83E090E09093C10267
:100C20008093C00281E08E0F8093C502F0E0E05413
:100C3000FD4F8091C40287830895E217F307F8F40B
:100C40001092C1021092C0021092C30282E990E099
:100C50009093BF028093BE0282E590E09093BD0224
:100C60008093BC0288E0E5ECF2E0ADECB2E00190EC
:100C70000D928A95E1F781E08093C20208958091F8
:100C8000C502863009F4B3CF82E090E09093C102B0
:100C90008093C0021092C3021092C402089580E0B3
:100CA00090E0892B29F08091BB0283FD0C94000019
:100CB0000895E82FF0E0EE5EFD4F608308950F93F6
:100CC0001F93CF93DF93FC018281813089F040F044
:100CD000823009F47AC0DF91CF911F910F9108956E
:100CE00061E08081DF91CF911F910F910C94B80347
:100CF0000181C02FD0E0108161E0812F0E94E603C6
:100D0000209719F460E0812FEDCFCF3FD10511F48A
:100D100061E0F9CFE12FF0E0ED55FD4FE491E150B6
:100D2000EC3008F04DC0F0E0E856F94F0C94D529AE
:100D3000A406A406E006A906AF06B506BD06E006B1
:100D4000E006C206CC06D60683B7806283BF01BF29
:100D5000C2CF8FB580688FBDDBBDCABDBCCF8FB59C
:100D600080628FBDD9BDC8BDB6CF8FB588608FBD3D
:100D7000D0937900C0937800AECF85B5806285BDF1
:100D800003BDA9CF80918B00806880938B00D093A6
:100D90008700C09386009FCF80918B0080628093F4
:100DA0008B00D0938500C093840095CF80918B00F9
:100DB000886080938B00D0938300C09382008BCF98
:100DC000C038D1050CF0A4CF9DCF8181E381F0E044
:100DD000EE5EFD4F80837FCF0F931F93CF93DF9302
:100DE000D62F8C01C0E0CD1741F0F801819191918F
:100DF0008F010E945F06CF5FF6CFDF91CF911F91E9
:100E00000F910895CF93DF93DC01EC91F0E0EE0FAA
:100E1000FF1FE75DFD4FC591D491988111968C918C
:100E2000982381E009F480E0DF91CF910895DC01FF
:100E300070E0FB01E259FD4FE4911196EC9311979C
:100E4000675C7D4FFB0124912C9330E0220F331F10
:100E5000F901E754FE4F8591949113969C938E93DC
:100E60001297F901E753FE4F8591949115969C9343
:100E70008E9314970895FC018081813089F4CB0111
:100E8000845893408897C0F06138F3E07F07A1F061
:100E90006C5F734081E06530710578F080E0089503
:100EA000823021F4CB018C5A9340ECCF833061F730
:100EB000CB01845D9340E6CF81E00895CF93DF932B
:100EC000FC0121812F3FF9F0EC0161E0858D968DC9
:100ED0000E942C03AD8DBE8D1496ED91FC9115975B
:100EE000908111968C9180958923808361E070E0D8
:100EF00080E090E00E943D0460E08D8D9E8DDF914A
:100F0000CF910C942C0380E090E0892B21F0DF91AD
:100F1000CF910C940000DF91CF91089585ED8093DF
:100F200074008091740084FDFCCF10927F020895BC
:100F30002091C401260F3327331F21323105ECF4F1
:100F400020917F02FC0190E080E0243069F082E093
:100F50000895A091C4012191AC014C555E4FA40F9E
:100F6000B52FB11D2C930196861798F38091C4017B
:100F7000680F6093C40180E0089581E008950895AA
:100F8000E0910B0280910A02E81730F4F0E0EC5790
:100F9000FE4F808190E008958FEF9FEF089590912C
:100FA0000B0280910A022FEF3FEF981748F4E92FC8
:100FB000F0E0EC57FE4F208130E09F5F90930B02F2
:100FC000C901089580910A0290910B02891B990B27
:100FD0000895CF92DF92EF92FF920F931F93CF93DA
:100FE000DF937C01CB018A0120918002222389F0CA
:100FF000EB016B01C40ED51ECC15DD0569F06991BE
:10100000D701ED91FC910190F081E02DC701099588
:10101000F3CF642F0E949807C801DF91CF911F91F1
:101020000F91FF90EF90DF90CF900895CF93DF93D3
:101030001F92CDB7DEB76983209180022223F9F099
:101040002091A302203258F021E030E0FC013383EC
:10105000228390E080E00F90DF91CF9108958091FE
:101060008102E82FF0E0EE57FD4F998190838F5F6A
:10107000809381028093A30281E090E0ECCF61E055
:10108000CE0101960E949807F7CF90E080E0089586
:101090000F931F93CF93DF9300D000D01F92CDB753
:1010A000DEB790914702992329F189836A834B83A4
:1010B00010E001E0809147021817E0F4E09132025D
:1010C000F0913302E10FF11D808100938002809343
:1010D000A202109281021092A30245E050E0BE01EC
:1010E0006F5F7F4F82E793E00E94E9070E94AD01A6
:1010F0001F5FE0CF0F900F900F900F900F90DF9138
:10110000CF911F910F9108959091470291110C94E6
:10111000480808958F929F92AF92BF92CF92DF922C
:10112000EF92FF920F931F93CF930E941704AB018E
:10113000BC018091800390918103A0918203B091C2
:1011400083038A019B01081B190B2A0B3B0B80911F
:101150008803882309F47FC080918A0390918903D2
:10116000E92FEE0FFF0BA82F082E000CBB0BC3E6D8
:101170008C02E00DF11D1124E258FC4F178B068BF9
:10118000053F11402105310508F054C09F5F909341
:101190008903909189039332C9F593E69A9F900150
:1011A0009B9F300D112422583C4FF901E45AFF4F08
:1011B000C0908403D0908503E0908603F09087036D
:1011C0004A015B018C189D08AE08BF0875016401D7
:1011D000C082D182E282F38229593F4FE1E0F0E000
:1011E000D901ED93FC938F5F8A3094F580938A0345
:1011F000E0918A03B3E6EB02F0011124EB51FC4FBE
:101200001182108210928803109289034093800308
:10121000509381036093820370938303CF911F9156
:101220000F91FF90EF90DF90CF90BF90AF909F9085
:101230008F9008951092890391E0909388034093D2
:101240008403509385036093860370938703A1CF33
:1012500010928A03CDCF053F114021053105B0F230
:1012600081E08093880340938403509385036093C7
:10127000860370938703CACFE82FF0E0EE5EFD4F40
:1012800060830895CF93FC018281813051F020F07A
:10129000823079F0CF91089560E08081CF910C94F5
:1012A000B803C08161E08C2F0E94E60360E08C2FC0
:1012B000F5CFE381F0E0EE5EFD4F1082EBCF80933F
:1012C0005202882361F00FB6F894A89581B5886121
:1012D00081BD11BC0FBE85E298E00C945F0685E2EB
:1012E00098E00E94420988E19BE00FB6F894A89527
:1012F00081BD0FBE91BD0895CF93C82F8091A702E5
:101300008C1731F081E0C11101C080E00E945F09BB
:10131000C093A70260E070E0CB01C1110E947F047E
:101320006093A8027093A9028093AA029093AB02E3
:101330008091A7028C1739F081E0C11101C080E0D3
:10134000CF910C945F09CF910895EF92FF920F9384
:101350001F93CF93DF938C01FC01C581D681209729
:1013600051F0E480F12CEF1431F0899199910E94B1
:101370004209F394F8CFF801C085D185209751F048
:10138000078110E0011731F0899199910E9442097B
:101390001F5FF8CFDF91CF911F910F91FF90EF90DA
:1013A000089520917407309175072115310551F08A
:1013B00090E0880F991F820F931FFC01808191811B
:1013C0000C94A5090895CF9380917607882369F13D
:1013D0008091770790917807892B29F1C0E080915F
:1013E0007307C81700F58C2F86958695869590E033
:1013F000E0917707F0917807E80FF91F208130E03E
:1014000043E0880F991F4A95E1F74C2F481B02C013
:10141000359527954A95E2F720FF03C08C2F0E944F
:10142000D109CF5FDCCF10927607CF9108950F934B
:101430001F93CF93DF932091740730917507211587
:10144000310571F190E0880F991F820F931FFC0105
:10145000C081D1818B81882391F000916E0710911A
:101460006F0789819A810817190729F0CE010E9418
:10147000A5091A83098389819A81019731F48D81A5
:101480009E81009769F06C8105C0888599850097D9
:1014900039F06F81DF91CF911F910F910C94EC0681
:1014A000DF91CF911F910F910895CF93809176078F
:1014B000811138C0C0E080917307C81728F48C2FC1
:1014C0000E94D109CF5FF7CF80917707909178077D
:1014D000892B29F1C0E080917307C81700F58C2F84
:1014E00086958695869590E0E0917707F09178074C
:1014F000E80FF91F208130E043E0880F991F4A95DB
:10150000E1F74C2F481B02C0359527954A95E2F725
:1015100020FF03C08C2F0E94170ACF5FDCCF81E031
:1015200080937607CF91089520916E0730916F07D1
:101530002817390761F090936F0780936E078091A9
:101540007607882321F00E94E3090C94550A089538
:101550000F931F93CF93DF9350914602511106C012
:101560006115710541F061307105D9F0DF91CF91BE
:101570001F910F910895509169075817190629F086
:1015800050916C075817190689F70D31110579F13B
:10159000642F0F371105B9F00F30110551F06FE7C7
:1015A00012C060916A0770916B078617970769F3FD
:1015B000DDCF4E30E0F450E8459FC00111246EE0CD
:1015C00070E00E949F292223D9F06068132FD22F48
:1015D000C42F40E085E20E944808C09372078D2F17
:1015E000912FDF91CF911F910F910C94940A4C3160
:1015F000B0F650E8459FC00111246CE170E0E1CFE6
:101600006F77E4CFCF93C62F8230910509F456C08F
:1016100020F4019769F1CF9108958330910509F481
:101620008BC00497C1F785E160FFC0C00E94170A14
:1016300086E1C1FFBEC00E94170A87E1C2FFBCC09D
:101640000E94170A88E1C3FFBAC00E94170A89E105
:10165000C4FFB8C00E94170A8AE1C5FFB6C00E9445
:10166000170A8BE1C6FFB4C00E94170A8CE14AC07A
:1016700080E064FF17C00E94170A81E0C0FF15C018
:101680000E94170A82E0C1FF13C00E94170A83E07C
:10169000C2FF11C00E94170A84E0C3FF35C0CF917A
:1016A0000C94170A0E94D109E8CF0E94D109EACF11
:1016B0000E94D109ECCF0E94D109EECF85E060FFF6
:1016C00026C00E94170A86E0C1FF24C00E94170AA4
:1016D00087E0C2FF22C00E94170A88E0C3FF20C033
:1016E0000E94170A89E0C4FF1EC00E94170A8AE000
:1016F000C5FF1CC00E94170A8BE0C6FF1AC00E94DB
:10170000170A8CE0C7FDCBCFCF910C94D1090E9472
:10171000D109D9CF0E94D109DBCF0E94D109DDCFF9
:101720000E94D109DFCF0E94D109E1CF0E94D109E7
:10173000E3CF0E94D109E5CF8DE060FF22C00E9477
:10174000170A8EE0C1FF20C00E94170A8FE0C2FF77
:101750001EC00E94170A80E1C3FF1CC00E94170A26
:1017600081E1C4FF1AC00E94170A82E1C5FF18C0B8
:101770000E94170A83E1C6FF16C00E94170A84E17F
:10178000C1CF0E94D109DDCF0E94D109DFCF0E94D5
:10179000D109E1CF0E94D109E3CF0E94D109E5CF61
:1017A0000E94D109E7CF0E94D109E9CF0E94D10957
:1017B0003FCF0E94D10941CF0E94D10943CF0E945F
:1017C000D10945CF0E94D10947CF0E94D10949CF05
:1017D0000E94D1094BCF0E947C09E5EAF2E081E04A
:1017E00087831086EEEAF2E088E0DF011D928A9599
:1017F000E9F708950C948A29DF92EF92FF920F93F4
:101800001F93CF93DF93D82E7B0181E090E00E945D
:10181000FA0B90E00091690710E0C0916C07D0E0EE
:101820008017910721F08C179D0709F050C0D092C6
:101830007207EA94EF2809F04DC08DE190E00E9414
:10184000FA0BF82E81E090E00E94FA0B90E0081766
:10185000190721F08C179D0799F4CE018C179D076D
:10186000B9F48091700790917107019749F08091C8
:101870006D07882309F44AC010927107109270070F
:10188000DF91CF911F910F91FF90EF90DF9008951E
:1018900080916E0790916F07019791F3F0FE10C051
:1018A00010926F0710926E07EBCF0C171D0711F106
:1018B00080916E0790916F07892B11F3F0FEF0CFA6
:1018C00081E090E090936F0780936E07D9CFEA9400
:1018D000EF28B1F28DE190E00E94FA0BF82E81E042
:1018E00090E00E94FA0B90E080179107F1F28C17BC
:1018F0009D0731F68091700790917107892B09F44B
:10190000BFCF80916D07882309F4B6CF81E090E0C6
:101910009093710780937007B3CFCF93863823E0FD
:10192000920719F130F481389340D1F08FEFCF91C5
:101930000895873823E09207D9F088389340B1F7AB
:1019400086E893E00E94FA0BC82F87E893E00E9494
:10195000FA0B90E02FEFC29F800D911D112402C061
:1019600081E893E0CF910C94FA0B86E893E0FACFEC
:1019700087E893E0F7CFCF93C82F8FE290E00E94E3
:10198000FA0B811109C085E190E0CC2311F086E1CA
:1019900090E0CF910C94FA0B80E0CF910895CF9313
:1019A000C82F8FE290E00E94FA0B811106C08C2FA5
:1019B00090E0CA96CF910C94FA0B80E0CF910895F5
:1019C0001F93CF93DF93EC0180915202882359F04B
:1019D0008FE090E00E94FA0B182F80E190E00E94C7
:1019E000FA0B181306C0CE01DF91CF911F910C9412
:1019F000FA0B85E298E00E944209FFCF0C94E00CBC
:101A0000CF93DF932091B8023091B9022F3F320774
:101A100021F0C901DF91CF9108958091BB0287FF2A
:101A20002BC086FF0FC089E090E00E94FE0CC82FFB
:101A300081E090E00E94FE0C9C2F9093B90280936D
:101A4000B80215C089E090E00E94FE0CC82F81E02A
:101A500090E00E94FE0C90E4C99F90011124207C2C
:101A600031708F73282B3093B9022093B802809184
:101A7000B8029091B902CECF85FF0CC081E190E011
:101A80000E94FE0CC82F82E190E00E94FE0CC05C18
:101A9000DD0BD2CF81E090E00E94FE0C90E0CDCF34
:101AA000EF92FF920F931F93CF93DF9330914602F3
:101AB000311107C06115710559F06130710509F4E4
:101AC00061C0DF91CF911F910F91FF90EF9008952A
:101AD000309169073817190629F030916C073817CB
:101AE000190679F7C22F4330510509F409C108F0EE
:101AF00052C04130510509F472C04230510509F716
:101B0000822F8170F82E85E020FFE6C00E94170A20
:101B10000C2F027086E0C1FFE2C00E94170A1C2F42
:101B2000147087E0C2FFDEC00E94170ADC2FD87055
:101B300088E0C3FFDAC00E94170A80918201FF206B
:101B400009F4D6C0816080938201809182010023D4
:101B500009F4D0C0826080938201809182011123B8
:101B600009F4CAC084608093820180918201DD23E0
:101B700009F4C4C088608093820140E060918201D2
:101B800081E621C060916A0770916B0786179707FD
:101B900009F4A8CF96CF4530510509F441C108F4A6
:101BA000FBC04630510509F08CCFD091830180E015
:101BB00024FF11C00E94170AD061D093830140E036
:101BC0006091830180E6DF91CF911F910F91FF908B
:101BD000EF900C9448080E94D109DF7EEECF122FBF
:101BE0001071D091830180914302811155C011235E
:101BF00009F44DC00E94170AD061D093830140E0E0
:101C00006091830180E60E9448088C2F8170E82E45
:101C100081E0C0FF4BC00E94170A8C2F8270F82E03
:101C200082E0C1FF46C00E94170A0C2F047083E0B7
:101C3000C2FF42C00E94170ADC2FD87084E0C3FFA5
:101C40003EC00E94170A809183011123D9F180615F
:101C50008093830180918301EE20B1F181608093B4
:101C6000830180918301FF2089F182608093830149
:101C700080918301002361F18460809383018091CE
:101C80008301DD2339F188608093830198CF80E060
:101C90000E94D109DF7EB1CF8DE190E00E94FE0C61
:101CA00081FFB3CF80E0112399F3A4CF0E94D10923
:101CB000B4CF0E94D109B9CF0E94D109BDCF0E94F3
:101CC000D109C1CF8F7EC4CF8E7FC9CF8D7FCECFBC
:101CD0008B7FD3CF877FD8CF0E94D10919CF0E94A5
:101CE000D1091DCF0E94D10921CF0E94D10925CF52
:101CF0008E7F29CF8D7F2FCF8B7F35CF877F3BCFB7
:101D0000822F8170F82E89E020FF32C00E94170ACE
:101D10000C2F02708AE0C1FF2EC00E94170A1C2FF0
:101D200014708BE0C2FF2AC00E94170ADC2FD87003
:101D30008CE0C3FF26C00E94170A80918201FF2019
:101D400019F1806180938201809182010023F1F07A
:101D5000806280938201809182011123C9F08064A6
:101D60008093820180918201DD23A1F0806803CFFE
:101D70000E94D109CDCF0E94D109D1CF0E94D109B3
:101D8000D5CF0E94D109D9CF8F7EDCCF8F7DE1CF17
:101D90008F7BE6CF8F77EFCE8DE020FF29C00E94AA
:101DA000170A8EE0C1FF27C00E94170A8FE0C2FF0A
:101DB00025C00E94170A80E1C3FF23C00E94170AB2
:101DC00081E1C4FF21C00E94170A82E1C5FF1FC044
:101DD0000E94170A83E1C6FF1DC00E94170A84E112
:101DE000C7FF1BC00E94170A40E06C2F82E6EBCEB3
:101DF0000E94D109D6CF0E94D109D8CF0E94D10923
:101E0000DACF0E94D109DCCF0E94D109DECF0E9437
:101E1000D109E0CF0E94D109E2CF0E94D109E4CFDD
:101E200085E120FF29C00E94170A86E1C1FF27C073
:101E30000E94170A87E1C2FF25C00E94170A88E1A5
:101E4000C3FF23C00E94170A89E1C4FF21C00E947A
:101E5000170A8AE1C5FF1FC00E94170A8BE1C6FF5F
:101E60001DC00E94170A8CE1C7FF1BC00E94170A01
:101E700040E06C2F83E6A7CE0E94D109D6CF0E9406
:101E8000D109D8CF0E94D109DACF0E94D109DCCF85
:101E90000E94D109DECF0E94D109E0CF0E94D10972
:101EA000E2CF0E94D109E4CF1F93CF93DF93EC01DF
:101EB000162F0E948A29181721F0612FCE010E9447
:101EC0009229CE01DF91CF911F910C94FA0BCF9301
:101ED000DF93863823E0920739F138F48138934054
:101EE000E9F08FEFDF91CF910895873823E09207D3
:101EF000F1F088389340A9F7C62F86E893E00E9456
:101F0000FA0BD82F87E893E00E94FA0B90E06C2F31
:101F10002FEFD29F800D911D112402C081E893E024
:101F2000DF91CF910C94540F86E893E0F9CF87E8C6
:101F300093E0F6CF0F931F93CF93DF930FB7F894EF
:101F4000D0E0C0E0FE01E457FF4F1491CE010E94A3
:101F50008A29181721F0612FCE010E94922921961B
:101F6000CD3281E0D80771F781E893E00E948A2999
:101F7000813029F061E081E893E00E949229CCE170
:101F8000D1E01FEF89919991FC0111830E945F06B6
:101F9000F1E0CA35DF07B1F70FBFDF91CF911F9195
:101FA0000F9108951F93CF93DF93EC01162F08979D
:101FB00079F4662319F10E949A0F80E090E0892B52
:101FC000B9F0612FCE01DF91CF911F910C940000E9
:101FD00080E090E0892BA9F781E0C11590E1D90755
:101FE00008F080E0111105C0DF91CF911F91089595
:101FF00081E027972297C0F780E0F6CF80E090E05D
:10200000892BF9F681E0F0CF2F923F924F925F92A9
:102010006F927F928F929F92AF92BF92CF92DF92F8
:10202000EF92FF920F931F93CF93DF9300D000D0D6
:1020300000D0CDB7DEB78C01E0E0AE2EE0E0BE2EE2
:10204000F0E02F2EF0E03F2E412C512C3201439432
:10205000B0E08B2EB0E09B2E80E0C82E80E0D82E22
:10206000D8015B96ED91FC91309709F45BC24281F7
:10207000618180810E948408F801038CF48DE02D39
:10208000FD83EC838081803409F45BC108F04BC090
:10209000893209F4C4C108F5843209F4A7C198F45F
:1020A000813209F46FC1833209F478C1811113C000
:1020B000E0E0F0E0EF2B79F0AC81BD8111968C91DE
:1020C0000E94000008C0863209F47CC108F44DC0AB
:1020D000883209F498C180E015C28D3209F4BFC17D
:1020E00070F48B3209F4B0C108F4A4C1C114D10456
:1020F00091F3EC81FD81618185E090E08DC18F32AB
:1021000009F4C2C108F4B6C1803309F4C8C18133EF
:1021100011F7E0E0F0E0EF2BF1F2AC81BD81119618
:102120006C9182E0C6C1813609F4BCC080F580356F
:1021300009F45CC188F4823409F41AC108F40DC1B1
:10214000833449F6A114B10431F2AC81BD811196FA
:102150006C9184E090E0FEC08E3509F4ADC180360C
:1021600009F497C0813509F0B6CF8114910409F4C0
:10217000B2CFAC81BD8111968C9170E060E087FF99
:1021800003C061E070E080580E940000A4CF8D364B
:1021900009F49BC0A0F4833609F491C008F488C008
:1021A0008C3609F098CF80E090E0892B09F493CF2A
:1021B000AC81BD8111968C910E9400008CCF873735
:1021C00009F491C108F58E3609F085CFAC81BD8147
:1021D0001396ED91FC911497309709F4A3C1808177
:1021E0008F3609F078CF2114310409F474CF119699
:1021F0002C91622F661F6627661F8181B0E88B9F36
:10220000C0011124822B9AC08B3709F4DBC18F37B0
:1022100009F061CFAC81BD811196EC90F12CBFEF3C
:10222000EB1ABCEFFB0AB701C8010E943B078823E9
:1022300009F467C1E5E8EE16E3E0FE0609F461C1C2
:10224000FDEAEF16F3E0FF0609F482C225EDE2167F
:1022500023E0F20609F47CC234E8E31633E0F30627
:1022600059F04CEAE41643E0F40631F084EDE81648
:1022700083E0F80609F05EC2AC81BD8112968C91B4
:10228000883009F057C20E949A0FC8010E945E0769
:102290005FC2AC81BD8111966C9181E090E00E949B
:1022A000020B19CFEC81FD81618182E090E0F7CFD4
:1022B000AC81BD8111966C9183E090E0F0CFEC8110
:1022C000FD81618184E090E0EACFAC81BD8111960F
:1022D0006C911197862F8F7711968C93211431046E
:1022E00009F4F9CE661F6627661FD8015B96ED914B
:1022F000FC918181811121C081E08093F6016111FF
:102300000EC08091F60187FDE6CE60E090E00E946D
:1023100000008091F6018F5F8093F601F2CF8091EB
:10232000F60187FDD8CE61E090E00E940000809128
:10233000F6018F5F8093F601F2CF90E00E940000DB
:10234000CACEA114B10409F4C6CEEC81FD8161812D
:1023500081E090E00E940000BECEA114B10409F417
:10236000BACEAC81BD8111966C9182E090E0F2CF43
:10237000A114B10409F4AFCEEC81FD81618183E049
:1023800090E0E8CFE0E0F0E0EF2B09F4A4CEAC81E0
:10239000BD8111968C910E9400009DCEE0E0F0E09E
:1023A000EF2B09F498CEAC81BD8111968C9190E011
:1023B00087FF05C0819590E09195819591090E94D4
:1023C000000089CEE0E0F0E0EF2B09F484CEAC8190
:1023D000BD8111968C9190E087FF05C0819590E0BA
:1023E0009195819591090E94000075CEEC81FD8147
:1023F000818170E060E087FF03C061E070E0805899
:102400000E94FC0B68CEC114D10409F464CEEC81A7
:10241000FD81618181E090E00E9400005CCEC114EA
:10242000D10409F458CEAC81BD8111966C9182E043
:1024300090E0F2CFC114D10409F44DCEEC81FD81BE
:10244000618183E090E0E8CFC114D10409F443CE68
:10245000AC81BD8111966C9184E090E0DDCFC11418
:10246000D10409F438CEAC81BD8111966C9186E01F
:1024700090E0D2CFC114D10409F42DCEEC81FD81BE
:10248000618187E090E0C8CFC114D10409F423CE64
:10249000AC81BD8111966C9188E090E0BDCFE0E009
:1024A000F0E0EF2B09F417CEAC81BD8111966C9151
:1024B00081E00E9400000FCEAC81BD811396ED91AA
:1024C000FC911497309771F180818F3509F003CE1C
:1024D00020E030E0232B09F4FECD918111968C9100
:1024E0000E940000F8CDEC81FD81E180F12CFFEF2E
:1024F000EF1AFCEFFF0AB701C8010E943B078111E8
:102500002AC081E0D8015B96ED91FC915C97238114
:102510003481148213825C963C932E935B978130B6
:1025200009F49ECD26960FB6F894DEBF0FBECDBF40
:10253000DF91CF911F910F91FF90EF90DF90CF909F
:10254000BF90AF909F908F907F906F905F904F90D3
:102550003F902F90089521E8E21623E0F20601F162
:1025600034E8E31633E0F30659F145E8E41643E0B6
:10257000F406A1F08CEAE81683E0F80609F19DEA7A
:10258000E91693E0F90651F0A4EDEA16A3E0FA0685
:10259000B9F0B5EDEB16B3E0FB0671F48AE002C0CA
:1025A000F8018081AC81BD8112969C919813A9CFCE
:1025B000C8010E945E07A5CFC7010E948D0CF2CF13
:1025C0008DE0F0CFEC81FD81F181F983EF2EF12CCC
:1025D0002FEFE21A2CEFF20AB701C8010E943B0765
:1025E000882309F48ECFAC81BD811296BC91BA8349
:1025F0008B2F90E09C0144E0359527954A95E1F7B3
:10260000E22FE170EE83E093F5019C0153E03595F4
:1026100027955A95E1F7F22FF170FB83F093F401BF
:102620009C0135952795422F4170440F95958795CC
:10263000959587958170880F880F840FB170B80FBA
:10264000BC83B093F30181E8E81683E0F806B9F49F
:10265000D8018C918093F201E130B1F18091F201C7
:1026600090E00C8002C0959587950A94E2F78170FE
:102670009927BB81B817190609F043CF99CFE4E831
:10268000EE16E3E0FE0651F0FCEAEF16F3E0FF067B
:1026900029F024EDE21623E0F20691F58DE0809317
:1026A000F2019E819130D1F6C70184589340029780
:1026B00008F427CF89818B5A823008F422CF898190
:1026C000835D823008F41DCFD301C2010C8004C0A9
:1026D000880F991FAA1FBB1F0A94D2F72091F201FD
:1026E000EA81E3FF22C0822B8093F2016091F20124
:1026F000C7010E94670F9091F201891302CF58CF52
:1027000035E8E31633E0F30651F04DEAE41643E012
:10271000F40629F085EDE81683E0F80611F48AE066
:10272000BECFC7010E948D0CBACF482F4095822F93
:102730008423DACFEC81FD816281C7010E94670F9B
:10274000D8015B96ED91FC919281891709F49DCD9A
:10275000B1E8EB16B3E0FB0609F0D3CE81E893E0D5
:102760000E94FA0BF8018083CCCEAF92BF92CF9239
:10277000DF92EF92FF920F931F93CF93DF93C0915D
:102780000402D09105021091F10111111AC0FE014D
:1027900090E080E025813681232B09F05AC025E0A6
:1027A000289FF001299FF00D11243296EC0FFD1F98
:1027B000F093F001E093EF01309709F43FC01482E9
:1027C0001382A090EF01B090F001A114B104B1F117
:1027D0000E947F04C090EB01D090EC01E090ED01ED
:1027E000F090EE016C197D098E099F096A30710520
:1027F00081059105C8F11092F1010E947F04609358
:10280000EB017093EC018093ED019093EE018D8DBF
:102810009E8D0E940207F5019081882319F1916035
:10282000908381E08093F1010E9417046093E70197
:102830007093E8018093E9019093EA01DF91CF91D1
:102840001F910F91FF90EF90DF90CF90BF90AF90CE
:102850000895019635968530910509F09BCFF0E0FB
:10286000E0E0A6CF9E7FDCCF0E941704C090E70176
:10287000D090E801E090E901F090EA016C197D093F
:102880008E099F096531710581059105B8F20E9495
:1028900017046C197D098E099F09643F71408105F9
:1028A000910560F68D8D9E8D212F2770C12CD12C26
:1028B0007601C39404C0CC0CDD1CEE1CFF1C2A95D1
:1028C000D2F7103108F049C00E940207E12FE695C7
:1028D000E695E695EA0DFB2DF11D8823D1F1808167
:1028E000C82AC08201E0010F0093F1010E94170481
:1028F0006093E7017093E8018093E9019093EA0106
:10290000177F173019F0083109F098CF0E947F0423
:102910006093EB017093EC018093ED019093EE01D5
:10292000003141F1083109F089CF0B8D1C8D809168
:10293000EF019091F0019C8F8B8FCE010E940410CB
:10294000E091EF01F091F001148213821C8F0B8F44
:102950002CC0C0948081C822C4CF0E940207F50118
:102960009281882319F0C92AC282BCCFC0949C21CD
:102970009283B8CFA091EF01B091F0018C91982F84
:10298000977F973709F45ACF8B3709F457CFEB8DE0
:10299000FC8D309721F4BC8FAB8F07C0FC01838185
:1029A00094810097D9F7B483A3831092F10146CFA5
:1029B0000F931F93CF93DF9320915202222329F08C
:1029C0008F30910541F48FE090E0DF91CF911F911E
:1029D0000F910C94540F162FEC018FE090E00E94A1
:1029E000FA0B082F80E190E00E94FA0B08130DC04B
:1029F000C730D10531F0C830D10521F4183031F09D
:102A0000FFCFFFCF612FCE01E0CFFFCF0E949A0F03
:102A100088E0DF91CF911F910F9108958331910547
:102A200088F48131910530F48130910519F08930B5
:102A3000910531F42FEF3FEF3093B9022093B802A4
:102A40000C94D8148D319105D9F7677F6093BB0240
:102A50002091A5022F73362F307C232B2093A502C3
:102A6000E9CF1F93CF93DF93182FE0ECF2E085E1DD
:102A7000DF011D928A95E9F782E990E09093BF0209
:102A80008093BE0282E590E09093BD028093BC02E9
:102A9000C5EAD2E0688319828FEF9FEF9C8B8B8B06
:102AA0001D8A83E08093A40243E050E065E075E076
:102AB00089890E9400058DE190E00E94FE0C682F3C
:102AC0006F738DE190E00E940E158E8B612F87E071
:102AD00090E00E940E156DE088E090E00E940E15D7
:102AE00080E0DF91CF911F910C94EB0B89B78F772A
:102AF00089BF8AE092E090930F0180930E0161E01C
:102B00008AE00E94311510925802109257020895DF
:102B10000F931F930E9417040091530210915402C7
:102B20002091550230915602601B710B820B930B62
:102B3000613F79448240910508F456C08091520269
:102B400081110BC0809157029091580281309105FC
:102B5000B1F188F0029709F444C00E941704609311
:102B6000530270935402809355029093560281E071
:102B70001F910F91089580E390E00E94E00C80FF88
:102B80000EC041E050E06AE878E087E00E948B04E4
:102B900081E090E09093580280935702DECF8DE160
:102BA00090E00E94E00C82FFD8CF41E050E06BE063
:102BB00072E087E00E948B0482E090E0EBCF89B75F
:102BC0008F7789BF8AE092E090930F0180930E0186
:102BD0008DE190E00E94E00C82FDE7CF0E94761527
:102BE000BCCF10925102FACF80E0C2CFBF92CF92F9
:102BF000DF92EF92FF920F931F93CF93DF938B019E
:102C0000B42E690182FF23C083FF17C061E0C801B1
:102C10000E94D20F8823D9F16B2DC8010E940E1596
:102C20008B1135C0F601DF91CF911F910F91FF906D
:102C3000EF90DF90CF90BF90099460E0C8010E94B0
:102C4000D20F882321F1C8010E94FE0CE9CF842F06
:102C50008770C1E0D0E07E0101C0EE0C8A95EAF7F2
:102C6000D42FD870CB010E94FE0CC82FB4FE1CC01C
:102C700061E0C8010E94D20F882349F0DD2389F06A
:102C8000CE296C2FC8010E940E158C1759F2DF91C6
:102C9000CF911F910F91FF90EF90DF90CF90BF9059
:102CA0000895E094CE21EDCF60E0C8010E94D20FDC
:102CB000882369F3CE21DD2319F0C111B3CFE7CF0B
:102CC000CC2309F4AFCFE3CFCF92DF92EF92FF9204
:102CD0000F931F93CF93DF937C016B01C42F122FAF
:102CE000D42FD07E8091A50287FF2CC0D03EC1F5A5
:102CF0008091A6028823A1F190E00E94FE0CD82FBB
:102D00008091A60290E001960E94FE0C982F8D2FD4
:102D1000E816F90629F56C2F70E0762F66276627EE
:102D20007370612B6F5F7F4F2FE436E0402F8C2F45
:102D3000DF91CF911F910F91FF90EF90DF90CF9097
:102D40000C94F61580FD32C0D03609F464C088F4C6
:102D5000D03209F447C0D03409F45DC0DD2379F1E5
:102D6000DF91CF911F910F91FF90EF90DF90CF9067
:102D70000895D03A09F483C090F42C2F2F7141E0CC
:102D800050E0D03869F7B601C701DF91CF911F91AC
:102D90000F91FF90EF90DF90CF900C94500DD03CAE
:102DA00009F476C0D03E09F4B6CFDACF0E94000D08
:102DB0008E159F0549F2E114F10431F2D1CF8C2F29
:102DC0008E7071F680E090E0892B51F28C2F81702B
:102DD000DF91CF911F910F91FF90EF90DF90CF90F7
:102DE0000C940000CF71CF3109F0BACF412F4F774B
:102DF00071F0413071F0111F1127111F212F30E0A8
:102E00000FE710E0B601C7010E94A80AA9CF41E070
:102E1000F2CF40E0F0CF2C2F30E08C2F8F7181303B
:102E200029F030F0803121F08131F9F440E001C027
:102E300041E025FB222720F90DE110E030E0B6014A
:102E4000C7010E94A80A80E090E0892B09F488CF8E
:102E50004C2FB601C701DF91CF911F910F91FF90C9
:102E6000EF90DF90CF900C940000C901880F991F5C
:102E70008E71C4FB442740F9482B4250DACF2C2FE7
:102E80002F7043E050E0C4FF7ECF42E050E07BCFA4
:102E9000CF71CE3139F0CF3109F062CF212F45E02B
:102EA00050E071CF212F44E050E06DCFDF92EF92E0
:102EB000FF920F931F93CF93DF938091A7028823F4
:102EC000B1F00E947F040091A8021091A902209104
:102ED000AA023091AB02601B710B820B930B653120
:102EE00071058105910518F080E00E94EB0B80913F
:102EF000C202811109C080E0DF91CF911F910F9133
:102F0000FF90EF90DF900895F89488E0EDECF2E008
:102F1000ABE7B7E001900D928A95E1F71092C202FB
:102F200078943091CD02EFECF2E090E080E0391738
:102F300021F0219182279F5FFACF8111DCCF80E0C1
:102F400090E0892B21F08BE797E00E9400008091B0
:102F50007D07811118C090917E07911114C080E007
:102F600090E0892B19F080E00E9400008091A70278
:102F7000882329F081E00E947C0981E0BDCF81E0B7
:102F80000E94EB0BFACF9091A702992309F482C01B
:102F90008057803108F07BC081E00E947C09C0919D
:102FA0007B078091AE02C8130AC04C2F50E060EB43
:102FB00072E08DE797E00E94332B892B61F010922D
:102FC000AD0288E0EBE7F7E0AEEAB2E001900D92E7
:102FD0008A95E1F7D2CF8091AD028F5F8093AD02E9
:102FE000C330E9F520917D07822F877010917E070D
:102FF000853029F41093AC020E946F04BECFCDE15E
:10300000D0E0843089F0C82FD0E0843060F4809123
:10301000AC02882341F08150990B880F991F880FCB
:10302000991FC80FD91F219623FF0EC061E0CE0162
:103030000E94D20F882309F4A0CF612FCE010E94F5
:103040000E1518139ACFD8CF60E0CE010E94D20F90
:10305000882309F492CFCE010E94FE0CF2CFC43037
:1030600009F08BCF80917D07682F70E0762F66275F
:103070006627737090917E07692B6F5F7F4F2DE7F6
:1030800034E040917F078C700E94F61576CF80E087
:103090000E94EB0BE0917D07EF3F61F480917E078A
:1030A00081116BCF80E090E0892B09F466CF0E94FC
:1030B000000063CFE7FD0DC00091800720917F07DE
:1030C00040917E0770E060E08E2F90E00E946416D1
:1030D00054CFE03C08F054C19091A50297FF4DCF2A
:1030E00080917E07682F70E0EB01C095D095CC0FE2
:1030F000DD1FCC0FDD1FC07CD170EF73CE2B75951B
:103100006795262F2370D22E20917B07253039F525
:103110008C788C3021F50E94000D8C179D0721F0D2
:10312000CF3FD14009F029CF80917E0790E0982FC2
:10313000882788279370C0917F07C80FD92FD11D8A
:1031400021961091800761E0CE010E94D20F612F7D
:10315000882309F412CFCE010E940E150ECF8E01E6
:1031600001501109000F111F000F111F0D297801C7
:103170002FEFE21AF20A8091BA028823F9F096FF43
:1031800041C0C70160E071E00E949F29682F81E083
:1031900090E00E940E15C701F7FE02C081509F4FBC
:1031A000692F89E090E00E940E1580E090E0892B65
:1031B00019F0C7010E9400001092BA028091A50286
:1031C00080FD39C080917B07843009F04FC0809129
:1031D0007E078978813009F0D0CE80E090E0892B9D
:1031E00029F060917F07C7010E94000080E090E015
:1031F000892B09F4C2CE40917F076D2DC7010E9433
:103200000000BBCEBE016F73772781E090E00E9483
:103210000E15BE0146E0759567954A95E1F789E080
:1032200090E00E940E1580E090E0892B29F2CE01FB
:103230000E940000C1CF86FF0DC00E94000D8E15B8
:103240009F0509F4BFCF8DEFE81687E0F8060CF074
:10325000B9CF93CE0E94000D8C179D0709F4B2CF11
:10326000CF3F21E0D20709F4ADCF87CE833061F59F
:1032700040917E07042F017043FB112710F980E075
:1032800090E0892B31F04770212FBE01C7010E94C9
:1032900000008091A50286FF0BC080E090E0892BA2
:1032A00009F46BCE412F602FC7010E94000065CE4C
:1032B00080E090E0892B09F460CE212F402F6D2D06
:1032C000CE010E94000059CE863009F056CE809182
:1032D0007E07982F9978913021F08F78803809F007
:1032E0004CCE8091A50286FF27C00E94000D8E154E
:1032F0009F05E1F480917F0790E0382F2227222755
:103300003370C0918007C20FD32FD11D2196109129
:103310008107959587959595879583709927823034
:10332000910599F0039709F40ECF27CE8DEFE8169B
:1033300087E0F806FCF621CE0E94000D8C179D0751
:10334000C9F2CF3FD140B1F218CE14FF16CE61E0E2
:10335000CE010E94D20F882309F40FCECE010E9425
:10336000FE0C912F977061E070E001C0660F9A9596
:10337000EAF713FF02C0682BEECE60956823EBCE10
:10338000E83E08F0FACDE05CFF0B80917E070091EB
:1033900081072091800740917F0761E070E09E2FB8
:1033A00095CECF92DF92EF92FF920F931F93CF9320
:1033B000DF93EC017B0141305105F9F4CD80DE80D3
:1033C0002496C114D104E9F462E070E081E090E059
:1033D0000E94F2298C01009731F0FC01F182E08219
:1033E00088818F5F8883C801DF91CF911F910F91F2
:1033F000FF90EF90DF90CF900895C884D9842796EE
:10340000E0CF88818F5F8883C82FD0E062E070E0D2
:10341000CE010E94F2298C0120E0BE0161507109A9
:10342000822F90E08617970774F4880F991FF60192
:10343000E80FF91F40815181800F911FFC015183DA
:1034400040832F5FEDCFC150D048CC0FDD1FC00FA0
:10345000D11FF982E882C6010E94AA2AC4CF4F92E6
:103460005F926F927F92AF92BF92CF92DF92EF9274
:10347000FF920F931F93CF93DF93CDB7DEB7C15465
:10348000D1090FB6F894DEBF0FBECDBF5C01F82E98
:103490006E0182E2C80ED11C8601802F8C198F1517
:1034A00040F482E793E00E94CF07F80181938F01F7
:1034B000F4CFF12C8AE0482E512C612C712CF5E0D0
:1034C000AF16B10409F064C000911002109111020E
:1034D00001151105A9F13CA14BA12AA1F80190E029
:1034E00080E065817681672B31F555E0589F70014A
:1034F000599FF00C1124C7010296800F911FE00E16
:10350000F11EF70116821582228343833483F8016A
:10351000C38CD48C322F377F373741F5F801948F25
:10352000838FC8010E940410F70116821582F801EA
:10353000D48EC38E05C0019635968530910589F6E7
:10354000CF5BDF4F0FB6F894DEBF0FBECDBFDF916C
:10355000CF911F910F91FF90EF90DF90CF90BF9090
:10356000AF907F906F905F904F9008952B37B1F29E
:10357000C114D10421F4948F838FE2CF6901F60145
:103580002381348121153105C9F794838383D8CFF2
:103590008F2D90E08A159B059CF68C0D9D1DFC01DE
:1035A000208130E050E040E019A28E010F5D1F4FF6
:1035B000CA01B901A30192010E94B329605DF8011B
:1035C00062938F01211531054105510589F7309727
:1035D00061F001900020E9F73197AF01401B510BDA
:1035E000B80185ED92E00E94560342E050E06EE79C
:1035F00071E085ED92E00E945603F394C9CF1F92CB
:103600000F920FB60F9211240BB60F922F933F9388
:103610004F935F936F937F938F939F93AF93BF93DA
:10362000EF93FF9385ED92E00E944C02FF91EF91A2
:10363000BF91AF919F918F917F916F915F914F91CA
:103640003F912F910F900BBE0F900FBE0F901F90C8
:1036500018951F920F920FB60F9211240BB60F926E
:103660002F938F939F93EF93FF93E091E502F09157
:10367000E6028081E091EB02F091EC0282FD1DC038
:1036800090818091EE028F5F8F732091EF028217FD
:1036900041F0E091EE02F0E0EB52FD4F958F809308
:1036A000EE02FF91EF919F918F912F910F900BBEA2
:1036B0000F900FBE0F901F9018958081F2CF1F9230
:1036C0000F920FB60F9211242F933F938F939F93D6
:1036D000AF93BF938091FC019091FD01A091FE01F9
:1036E000B091FF013091FB0123E0230F2D3768F1EA
:1036F00026E8230F0296A11DB11D2093FB018093A4
:10370000FC019093FD01A093FE01B093FF01809115
:10371000000290910102A0910202B0910302019671
:10372000A11DB11D8093000290930102A09302029B
:10373000B0930302BF91AF919F918F913F912F91D1
:103740000F900FBE0F901F9018950196A11DB11DEF
:10375000D4CF1F920F920FB60F9211240BB60F9277
:103760002F933F934F935F936F937F938F939F9389
:10377000AF93BF93EF93FF93E0910E01F0910F0190
:103780000995FF91EF91BF91AF919F918F917F919B
:103790006F915F914F913F912F910F900BBE0F90C2
:1037A0000FBE0F901F9018951F920F920FB60F9299
:1037B00011240BB60F922F933F934F935F936F9308
:1037C0007F938F939F93AF93BF93EF93FF93E0917A
:1037D0000C01F0910D010995FF91EF91BF91AF910F
:1037E0009F918F917F916F915F914F913F912F9119
:1037F0000F900BBE0F900FBE0F901F9018951F9249
:103800000F920FB60F9211240BB60F922F933F9386
:103810004F935F936F937F938F939F93AF93BF93D8
:10382000EF93FF93E0910A01F0910B010995FF914D
:10383000EF91BF91AF919F918F917F916F915F9128
:103840004F913F912F910F900BBE0F900FBE0F9095
:103850001F9018951F920F920FB60F9211240BB65E
:103860000F922F933F934F935F936F937F938F9319
:103870009F93AF93BF93EF93FF93E0910801F09173
:1038800009010995FF91EF91BF91AF919F918F91A0
:103890007F916F915F914F913F912F910F900BBE50
:1038A0000F900FBE0F901F9018951F920F920FB69A
:1038B0000F9211240BB60F922F933F934F935F9368
:1038C0006F937F938F939F93AF93BF93EF93FF93E8
:1038D000E0910601F09107010995FF91EF91BF91E9
:1038E000AF919F918F917F916F915F914F913F9198
:1038F0002F910F900BBE0F900FBE0F901F90189539
:103900001F920F920FB60F9211240BB60F922F93A6
:103910003F934F935F936F937F938F939F93AF9357
:10392000BF93EF93FF93E0910401F0910501099596
:10393000FF91EF91BF91AF919F918F917F916F9187
:103940005F914F913F912F910F900BBE0F900FBE43
:103950000F901F9018951F920F920FB60F9211247F
:103960000BB60F922F933F934F935F936F937F9379
:103970008F939F93AF93BF93EF93FF93E0910201D7
:10398000F09103010995FF91EF91BF91AF919F9144
:103990008F917F916F915F914F913F912F910F90F8
:1039A0000BBE0F900FBE0F901F9018951F920F9295
:1039B0000FB60F9211240BB60F922F933F934F9394
:1039C0005F936F937F938F939F93AF93BF93EF9387
:1039D000FF93E0910001F09101010995FF91EF91B2
:1039E000BF91AF919F918F917F916F915F914F9117
:1039F0003F912F910F900BBE0F900FBE0F901F9015
:103A000018951F920F920FB60F9211240BB60F92BA
:103A10002F933F934F935F936F937F938F939F93D6
:103A2000AF93BF93EF93FF9380917100887F8036AF
:103A300009F44DC008F040C0883209F4A9C028F547
:103A4000803109F49DC0C8F4882309F4FBC0883094
:103A500009F496C0FF91EF91BF91AF919F918F9123
:103A60007F916F915F914F913F912F910F900BBE7E
:103A70000F900FBE0F901F901895883109F488C0E1
:103A8000803241F780937D0214C0803409F49DC0D8
:103A900040F48033B9F38833E9F680937D0285ECF6
:103AA000B0C0803509F485C0883509F496C08834E3
:103AB00089F60E948E07CECF883909F48CC038F57C
:103AC000883729F050F4883611F0803719F683E0F2
:103AD00080937F021092E60157C0883809F47BC0BA
:103AE000803919F0803809F0B5CF8091E601803235
:103AF00008F071C0E091E60181E08E0F8093E6014D
:103B000080917300F0E0EA53FE4F80833DC0803B1C
:103B100039F0E0F4803A09F479C0883A09F09ACF94
:103B200084E080937F021092C5011092C401E0915D
:103B30000802F091090209958091C40181110FC01A
:103B400081E08093C4011092A40109C0803C09F473
:103B5000A6CF883C09F4A3CF883B09F07BCFE09146
:103B6000C50181E08E0F8093C501F0E0EC55FE4F5A
:103B70008081809373009091C5018091C40129C018
:103B800080915A028093730085EC8093740062CF19
:103B900090917C0280917B02981758F5E0917C020D
:103BA00081E08E0F80937C02F0E0E55AFD4F80812A
:103BB000E9CFE0917C0281E08E0F80937C028091BE
:103BC0007300F0E0E55AFD4F808390917C02809174
:103BD0007B029817C8F285E8D8CFE0917C0281E09B
:103BE0008E0F80937C0280917300F0E0E55AFD4FC8
:103BF000808380917E0281115CCF81E080935902A5
:103C000084EA8093740010927F0224CF85EC809325
:103C1000740010927F028091E601803230F4E091CE
:103C2000E601F0E0EA53FE4F10826091E60170E099
:103C3000E0910602F091070286EC91E0099510925E
:103C4000E60108CF10927D0234CF1F920F920FB67B
:103C50000F9211248F9381E0809348028F910F90EF
:103C60000FBE0F901F9018951F920F920FB60F92D4
:103C700011248F939F937894809131029091300218
:103C8000891708F0F5C090916200916090936200EE
:103C900090912F02891708F0EFC0AD9A90912E02F3
:103CA000891708F0EBC0969A90912D02891708F0B9
:103CB000E7C0979A90912C02891708F0E3C0909181
:103CC000650091609093650090912B02891708F030
:103CD000DDC09091650092609093650090912A02FA
:103CE000891708F0D7C0A89A90912902891708F07F
:103CF000D3C09091650090619093650090912802E7
:103D0000891708F0CDC09091650098609093650088
:103D100090912702891708F0C7C0C79A9091260290
:103D2000891708F0C3C0C59A90912502891708F039
:103D3000BFC0C49A90912402891708F0BBC0C69AEC
:103D400090912302891708F0B7C0DB9A9091220264
:103D5000891708F0B3C0DC9A90912102891708F006
:103D6000AFC0DD9A90912002891708F0ABC0DE9AAF
:103D700090911F02891708F0A7C0DF9A90911E0248
:103D8000891708F0A3C09091650094609093650036
:103D900090911D02891708F09DC01A9A90911C02FB
:103DA000891708F099C01B9A90911B02891708F097
:103DB00095C01C9A90911A02891708F091C01D9A1B
:103DC00090911902891708F08DC09091620092605D
:103DD0009093620090911802891708F087C0C09AEA
:103DE00090911702891708F083C090916200906843
:103DF0009093620090911602891708F07DC090910F
:103E0000620090649093620090911502891708F007
:103E100077C090916200906290936200909114023A
:103E2000891708F071C090916200906190936200D0
:103E300090911302891708F06BC09091620098600E
:103E40009093620090911202891708F065C08091EA
:103E50006200846080936200809131028F5F809362
:103E600031029F918F910F900FBE0F901F90189568
:103E7000909162009E7F0ACFAD9810CF969814CF94
:103E8000979818CF909165009E7F1CCF9091650008
:103E90009D7F22CFA89828CF909165009F7E2CCF40
:103EA00090916500977F32CFC79838CFC5983CCFA7
:103EB000C49840CFC69844CFDB9848CFDC984CCF0D
:103EC000DD9850CFDE9854CFDF9858CF90916500A1
:103ED0009B7F5CCF1A9862CF1B9866CF1C986ACFE5
:103EE0001D986ECF909162009D7F72CFC09878CF61
:103EF000909162009F777CCF909162009F7B82CFF0
:103F0000909162009F7D88CF909162009F7E8ECFBE
:103F100090916200977F94CF809162008B7F9ACFBF
:103F2000CF93DF93EC0161E088810E94E60360E0BB
:103F30008881DF91CF910C94B803CF92DF92EF92FA
:103F4000FF920F931F93CF93DF931092D80210929A
:103F5000D70288EE93E0A0E0B0E08093D90290937E
:103F6000DA02A093DB02B093DC022EE531E030935D
:103F7000D6022093D50220E930E03093E20220936C
:103F8000E10229E230E03093E4022093E3022BE2E5
:103F900030E03093E6022093E5022AE230E03093ED
:103FA000E8022093E70225E930E03093EA0220930B
:103FB000E9022CE230E03093EC022093EB02109205
:103FC000EE021092EF021092F0021092F1021092A3
:103FD0007503109274038093760390937703A093F4
:103FE0007803B093790380E791E090937303809313
:103FF0007203109280031092810310928203109238
:10400000830310928403109285031092860310920A
:104010008703109288031092890310928A0387E025
:1040200090E090937F0380937E0383E190E00E9471
:10403000FA0BC82F82E190E00E94FA0BD82F81E1A1
:1040400090E00E94FA0B182F81E090E00E94FA0B9A
:1040500021E030E030936F0720936E0730937107B3
:1040600020937007109272071092760710927807CB
:104070001092770780936907212F205C330BC901C9
:104080002D2F382FC90190936B0780936A07CF7744
:10409000C0936C0710926D078DE18093730762E007
:1040A00070E08DE190E00E94F22990937507809373
:1040B00074070097C9F0EC0110E0EE24E394F12CB2
:1040C0008AE090E00E940E2AFC01F282E1821382D3
:1040D00014821682158217821186108610838993A6
:1040E00099931F5F1D3161F767E089E897E00E94AF
:1040F000170763E283E897E00E9417078FE2809337
:104100002508C2E0C093270810922808DFEFD0935B
:1041100026081092290885E298E00E94901F80E30B
:1041200080932008C093220881E080932308D093D5
:1041300021081092240880E298E00E94901F81E3F9
:1041400080931B08C0931D08C0931E08D0931C08C1
:1041500010921F088BE198E00E94901F82E38093E9
:104160001608C093180813E010931908D093170885
:1041700010921A0886E198E00E94901F83E38093D2
:104180001108C093130804E000931408D093120898
:104190001092150881E198E00E94901F84E38093BB
:1041A0000C08C0930E0885E0E82EE0920F08D0932B
:1041B0000D08109210088CE098E00E94901F98E083
:1041C000F92EF0920708C093090886E080930A0848
:1041D000D093080810920B0887E098E00E94901F87
:1041E0008EE280930208C093040887E0809305085C
:1041F000D09303081092060882E098E00E94901F76
:10420000E092FD07C093FF07F0920008D093FE07ED
:10421000109201088DEF97E00E94901F0093F8071D
:10422000C093FA0789E08093FB07D093F9071092B7
:10423000FC0788EF97E00E94901F1093F307C0934C
:10424000F5078AE08093F607D093F4071092F707FA
:1042500083EF97E00E94901FC093EE07C093F00792
:104260008BE08093F107D093EF071092F2078EEE68
:1042700097E00E94901F84E28093E907C093EB07C8
:104280002CE0D22ED092EC07D093EA071092ED07E3
:1042900089EE97E00E94901F85E28093E407C09327
:1042A000E6073DE0E32EE092E707D093E5071092A2
:1042B000E80784EE97E00E94901F86E28093DF0774
:1042C000C093E1074EE0C42EC092E207D093E0070E
:1042D0001092E3078FED97E00E94901F87E2809392
:1042E000DA07C093DC075FE0F52EF092DD07D0938C
:1042F000DB071092DE078AED97E00E94901F88E2AC
:104300008093D507C093D70700E10093D807D093D7
:10431000D6071092D90785ED97E00E94901F89E299
:104320008093D007C093D20711E11093D307D093A5
:10433000D1071092D40780ED97E00E94901FC092A1
:10434000CB07C093CD0782E18093CE07D093CC07F3
:104350001092CF078BEC97E00E94901FD092C60777
:10436000C093C80783E18093C907D093C707109211
:10437000CA0786EC97E00E94901FE092C107C093A5
:10438000C30784E18093C407D093C2071092C50786
:1043900081EC97E00E94901FF092BC07C093BE078B
:1043A00085E18093BF07D093BD071092C0078CEBC7
:1043B00097E00E94901F0093B707C093B90786E16A
:1043C0008093BA07D093B8071092BB0787EB97E0AA
:1043D0000E94901F1093B207C093B40787E18093A7
:1043E000B507D093B3071092B60782EB97E00E940F
:1043F000901F1CE11093AD07C093AF0708E1009335
:10440000B007D093AE071092B1078DEA97E00E94F3
:10441000901F6BE1F62EF092A807C093AA0779E1EE
:10442000E72EE092AB07D093A9071092AC0788EA79
:1044300097E00E94901F8AE18093A307C093A5078D
:104440008093A607D093A4071092A70783EA97E06A
:104450000E94901FE0929E07C093A007F092A107D0
:10446000D0939F071092A2078EE997E00E94901FB9
:1044700000939907C0939B0710939C07D0939A07CA
:1044800010929D0789E997E00E94901F81E2809336
:104490009407C09396078DE180939707D093950773
:1044A0001092980784E997E00E94901F8DE2809314
:1044B0008F07C09391078EE180939207D093900766
:1044C000109293078FE897E0DF91CF911F910F91A2
:1044D000FF90EF90DF90CF900C94901FCF93DF93DD
:1044E000CDB7DEB762970FB6F894DEBF0FBECDBF73
:1044F000789483B78C6483BF87B7816087BF82E07D
:104500008EBD8EB581608EBD8FB581608FBD85B546
:10451000846085BD85B5806485BD80918A00836097
:1045200080938A0080918B00816080938B0087E864
:1045300086B91AB80FB6F894A89581B5886181BD7F
:1045400011BC0FBEF8942FB7F89490E080E0FC0106
:10455000EE5EFD4F108201968F319105C1F780917B
:1045600062008E7F80936200AD98969897988091B4
:1045700065008E7F80936500809165008D7F8093BC
:104580006500A898809165008F7E8093650080917A
:104590006500877F80936500C798C598C498C698C2
:1045A000DB98DC98DD98DE98DF98809165008B7F42
:1045B000809365001A981B981C981D988091620042
:1045C0008D7F80936200C098809162008F77809386
:1045D0006200809162008F7B809362008091620014
:1045E0008F7D80936200809162008F7E8093620055
:1045F00080916200877F80936200809162008B7F50
:10460000809362002FBF9FB7F89480916100816012
:1046100080936100A59A8E9A8F9A80916400816040
:104620008093640080916400826080936400A09A0B
:104630008091640080618093640080916400886050
:1046400080936400BF9ABD9ABC9ABE9AD39AD49ABA
:10465000D59AD69AD79A809164008460809364003A
:10466000129A139A149A159A80916100826080932D
:104670006100B89A809161008068809361008091A8
:10468000610080648093610080916100806280930A
:104690006100809161008061809361008091610080
:1046A00088608093610080916100846080936100E4
:1046B0009FBF1FBC89E08EBD8CE093E09BBD8ABD8F
:1046C00087B7806187BF1092310261E08BE00E9462
:1046D000E60360E089E897E00E942C03E0918507FB
:1046E000F09186079081809184078095892380834B
:1046F000E0918707F0918807808190918407892B4A
:104700008083A9EDAA2EA1E0BA2EBCE1CB2EB1E0A8
:10471000DB2E99249394F501049110E0C8010E94C6
:10472000FA0BF82EC80101960E94FA0BE82EC80178
:1047300002960E94FA0B882EC80103960E94FA0B7B
:1047400090917307F91610F5D6010D911C91F8019F
:10475000818284838F2DE110D2C00E949A013C0196
:1047600041E050E0B8010E94D119D30116969C9304
:104770008E9315978F2D0E949A017C0150E040E0A6
:10478000B8010E94D119F70191878087A895B2E0FE
:10479000AB0EB11CE2E0CE0ED11CFAE5CF16F1E073
:1047A000DF0609F0B8CF61E070E084E090E00E949D
:1047B000F2299093780780937707892B91F010E086
:1047C00000E0E0907707F0907807E00EF11E802F70
:1047D0000E94CF0CD7018C930F5F1F4F043011053F
:1047E00081F780E00E94BB0C082F10E081E00E945E
:1047F000BB0C282F30E0322F222722273E7F000FCC
:10480000111F202B312B30937A072093790780FFDB
:1048100005C0216030937A072093790760E08AE031
:104820000E94E603EDEAF2E08491E8E7F2E0049109
:10483000E3E4F2E0149111117DC0FF24F394F092AF
:1048400046028FE190E00E940E2A8C0186E0F8017A
:10485000818386E090E00E940E2A6C0166E10E944E
:104860001707D8015E96DC92CE925D9710934502B1
:104870000093440281E893E00E94FA0BF8018083E0
:10488000843008F081C1F80181818F3FF1F01093ED
:1048900005020093040260E00E94E60360E0D80194
:1048A0005D968D919C910E942C03F80181819CEF73
:1048B000980F943020F08251843008F08FEF42E05E
:1048C00050E065EB73E10E940005D80116961C923A
:1048D0001E9215971B961C921E921A9750961C9228
:1048E0001E921F9755961C921E9254975A961C9290
:1048F0001E9259975C961C921E925B972AC00E944A
:104900009A01DC0113969C92B0E8EB1609F432CFC1
:10491000F1E8EF123BCF8F2D0E949A017C0141E01C
:1049200050E0B8010E94D119D70116969C938E933E
:1049300015972CCF81110E948303E12FF0E0EE0F39
:10494000FF1FE75DFD4FA591B491EC91E02309F4C1
:1049500074CF81E090E00E94FA0B21E030E03093C8
:1049600039022093380280933A0281E190E00E945C
:10497000FA0B21E130E030933C0220933B0280931C
:104980003D0282E190E00E94FA0B22E130E0309398
:104990003F0220933E02809340028DE190E00E940E
:1049A000E00C81FDF3C08DE190E090934202809392
:1049B00041021092430287E08093B6028093B702CF
:1049C00060E00E94E60361E087E00E94B80360E0D7
:1049D0008BE00E9431158FE29AE190930F02809351
:1049E0000E0285EF92E090930D0280930C021092DC
:1049F0000B0210920A02109281021092A3021092EE
:104A00007F0281E080937E021092590261E083E18F
:104A10000E94B80361E082E10E94B80380917100B6
:104A20008E7F80937100809171008D7F80937100E3
:104A300088E48093700085E48093740086EF92E0B0
:104A4000909309028093080282E093E0909307021A
:104A50008093060282E0809372008CE08093700065
:104A60001092110210921002109288001092890088
:104A700010928A0010928B0080918A00846080934B
:104A80008A0080917D00846080937D0088E19BE0B6
:104A90000FB6F894A89581BD0FBE91BD789462E0E1
:104AA000462E512C8091490281110DC00E9417049D
:104AB0006093530270935402809355029093560270
:104AC00081E08093490280914802882309F448C01C
:104AD00010E001E0009380021093A2021092810284
:104AE0001092A3020E94AD01811105C0809147027E
:104AF0008F5F809347021F5F1F3761F780914702E6
:104B0000882339F161E070E090E00E94F2298C0185
:104B10009093330280933202E12CF12CDD24D39464
:104B2000D0928002F092A202109281021092A3020F
:104B30000E94AD01811105C0F801EE0DF11DF0825A
:104B4000E394F394BFE7FB12EBCF10928A0010922C
:104B50007D00109288001092890010924802A8955A
:104B600080914602882361F10E945617A895809192
:104B70004602882309F496CF809144029091450221
:104B80000E940410A8958ECFF0827DCE8DE190E03A
:104B90000E94E00C85FD0DC08091160190911701D7
:104BA000A09118018093410290934202A093430286
:104BB00002CF8091190190911A01A0911B01F2CFAF
:104BC000809157029091580281309105E9F148F1A6
:104BD000029761F60E94550A80915102882309F4D8
:104BE0007DC383E897E00E940207182F811186C3D6
:104BF00080916E0790916F07019709F069C390E06B
:104C000080E00E94940A0E94550A83E897E00E947F
:104C100002078823D1F340E0612F84E20E94480814
:104C200010C00E945617882361F00E94E3090E9479
:104C3000170460935302709354028093550290932B
:104C400056020E94881592CF0AED13E09AE0E92EF1
:104C5000F12CDD24D39423E6C22E33E0B32E42E0C0
:104C6000A42E5BE1352EF80183859485019709F028
:104C700056C1E654F109808191813296608071803D
:104C8000680E791ED80151961C92519752961C922B
:104C9000529716961C9216971A961C921A971D9662
:104CA0001C921D971E961C921E971F961C921F9772
:104CB00017961C92179750961C92509753961C92D9
:104CC000539719961C92199715961C921E92149739
:104CD0009301359527954801BCE58B1A9108F4019D
:104CE00061E070E086899789A72FA69541E050E0A2
:104CF0004C0F5D1F4A0F511DDA0141E0281739079B
:104D00000CF040E04C93713248F4408D518D840F8B
:104D1000951F8E579109C19708F460E07E5F349625
:104D2000743201F7FE013196CE9C9001CF9C300D7C
:104D300011244CE557E0421B530B90E080E070815A
:104D400071118FC071817111A6C0D401A80FB91F54
:104D50001D961C92019632968930910581F7F801D3
:104D600080819181A281B38185519540A109B109CA
:104D700083359B40A105B10508F070C1662309F495
:104D80006DC181E046E9641671040CF080E0D80141
:104D900051968C93F801EC54F10990813197808100
:104DA000B9E08B9F802D1124939D800D11243297A3
:104DB0009081890F31964081942F990F940F890F1C
:104DC000F8018683EB54F10946E9641671040CF48A
:104DD00030C181E09081913009F080E0D8011D96CA
:104DE0008C938989880F9F85890F880F9D85890FEE
:104DF000880F9B85890F91E009F090E0F801968774
:104E000091E0813009F090E0D8011F969C938111C8
:104E10008150F80187838289882309F456C08C85E4
:104E2000880F9E85890F880F9889890F880F9A8926
:104E3000890FEEEFE80FEE3008F047C0F0E0ED5DCF
:104E4000F84D0C94D5295827582760276027052846
:104E50000528652765270A280A280E280E28132802
:104E600013287130C1F42180A1E02A1206C0DA01B2
:104E7000A80FB91F1D962C926DCF21100CC0D40124
:104E8000A80FB91F1D96AC92853008F463CFD801E6
:104E900052967C935FCF853048F0DA01A80FB91F96
:104EA0001D96BC92D8015296DC9254CF60E057CF49
:104EB000D8011996AC921997817053968C9305C0BE
:104EC00041E050E0F8015583448389E090E0FAE046
:104ED000EF16F10411F08E199F09D8011C965C920F
:104EE0004E921B97C89EB001C99E700D1124FB0104
:104EF000EB51FC4F80819181029789F465577C4F7B
:104F000049E050E089E697E0821B930B0E94332B27
:104F1000892B29F423E030E0F80134872387F1E07E
:104F2000EF1AF1080D591F4FE114F10409F09BCE5F
:104F3000E5EEF3E090E080E020813181233031051F
:104F400009F094C023E6289F8001299F100D1124A9
:104F5000F801EB51FC4F84E090E09183808305578A
:104F60001C4F0115110509F46CCE780125E5E20E00
:104F7000F11CD701EC91F0E080913A029F01281BCF
:104F80003109C9012130310509F4DDC00CF076C0CA
:104F9000892B09F04ACE80913702D801A45ABF4F1D
:104FA0009C91992309F491C080618093370290917C
:104FB0003702D801A85ABF4F8C91823009F4A0C0A3
:104FC00008F085C0813009F48FC02091370241E09C
:104FD00050E070E060E0CF010E94500DF801ED5A02
:104FE000FF4F808191818130910509F09FC03396F8
:104FF00080913A020DE110E021E030E0408170E064
:1050000060E090E00E94A80A10CED8011996BC92E8
:10501000199752CFF8015582448257CFD80119967B
:10502000DC92199749CF44E0F80141878170838B66
:105030004CCF8081811112C08F85880F9D85890F8B
:10504000880F9B85890FD8011A968C9381E09989E6
:10505000913009F080E0F801808B37CFE5E0F0E097
:10506000D8011C96FC93EE931B9759CF0196ED59EE
:10507000FF4F8A30910509F05FCFE3CD2230310533
:1050800009F4ADC02330310509F0CFCD80E390E0C5
:105090000E94E00C83FFC9CD80913402F801E85AE8
:1050A000FF4F9081923009F4FDC008F0E2C09130CA
:1050B00009F4ECC0D7018C912091340244E050E017
:1050C00070E060E08350990B59C08F7E6ECF8330C3
:1050D00009F1843009F079CFD801AE59BF4F8C91D6
:1050E000882311F1986007C0D801AE59BF4F8C9149
:1050F000882321F091609093370267CF9E7FFBCF8A
:10510000D801AE59BF4F8C91882311F09260F3CF34
:105110009D7FF1CFD801AE59BF4F8C91882311F0FC
:105120009460E9CF9B7FE7CF977FE5CF029709F0A7
:105130007CCDF801EA5AFF4F80913A020DE110E070
:1051400030E020E05BCF80E390E00E94E00C81FF44
:105150006CCD80913602F801E85AFF4F9081923071
:1051600041F178F49130C9F0D7018C912091360249
:1051700042E050E070E060E08150990B0E94500DD9
:1051800054CD933001F1943079F7F801EE59FF4F87
:105190009081992311F1886007C0F801EE59FF4F03
:1051A0009081992321F0816080933602DDCF8E7F3C
:1051B000FBCFF801EE59FF4F9081992311F08260E7
:1051C000F3CF8D7FF1CFF801EE59FF4F90819923F6
:1051D00011F08460E9CF8B7FE7CF877FE5CF80E355
:1051E00090E00E94E00C82FF20CD80913502F80112
:1051F000E85AFF4F9081923031F168F49130B9F064
:10520000F70180812091350243E050E070E060E0DA
:105210008250990BB3CF933001F1943089F7F801A4
:10522000EE59FF4F9081992311F1886007C0F80172
:10523000EE59FF4F9081992321F0816080933502D0
:10524000DFCF8E7FFBCFF801EE59FF4F908199237E
:1052500011F08260F3CF8D7FF1CFF801EE59FF4F4F
:105260009081992311F08460E9CF8B7FE7CF877F0E
:10527000E5CF933009F1943009F01CCFF801EE59D5
:10528000FF4F9081992311F1886007C0F801EE5912
:10529000FF4F9081992321F08160809334020ACFDF
:1052A0008E7FFBCFF801EE59FF4F9081992311F0CB
:1052B0008260F3CF8D7FF1CFF801EE59FF4F9081DF
:1052C000992311F08460E9CF8B7FE7CF877FE5CF0B
:1052D00081E090E00E94940A10E895CC89E897E07C
:1052E0000E940207811106C081E090E00E94940AAA
:1052F00010E891CC90E080E00E94940A10E08BCC02
:1053000060E083E897E00E942C0360E089E897E082
:105310000C942C03E199FECF9FBB8EBBE09A99279A
:105320008DB30895262FE199FECF9FBB8EBB2DBB79
:105330000FB6F894E29AE19A0FBE0196089597FB92
:10534000072E16F4009407D077FD09D00E94DE29BD
:1053500007FC05D03EF4909581959F4F0895709578
:1053600061957F4F0895A1E21A2EAA1BBB1BFD0178
:105370000DC0AA1FBB1FEE1FFF1FA217B307E40734
:10538000F50720F0A21BB30BE40BF50B661F771F8C
:10539000881F991F1A9469F760957095809590956C
:1053A0009B01AC01BD01CF010895EE0FFF1F00244A
:1053B000001C0BBE0790F691E02D0994AA1BBB1BA5
:1053C00051E107C0AA1FBB1FA617B70710F0A61B05
:1053D000B70B881F991F5A95A9F780959095BC0126
:1053E000CD0108950F931F93CF93DF93869F800184
:1053F000879F100D969F100D1124C8010E940E2A40
:10540000EC01009729F0A80170E060E00E94402BB9
:10541000CE01DF91CF911F910F9108950F931F93AC
:10542000CF93DF938230910510F482E090E0E09119
:105430002C08F0912D0830E020E0B0E0A0E030979B
:1054400099F42115310509F44AC0281B390B243081
:105450003105D8F58A819B816115710589F1FB01C0
:1054600093838283FE0111C04081518102811381A7
:1054700048175907E0F04817590799F4109761F059
:1054800012960C93129713961C933296CF01DF91CC
:10549000CF911F910F91089500932C0810932D0820
:1054A000F4CF2115310551F04217530738F0A90107
:1054B000DB019A01BD01DF01F801C1CFEF01F9CF96
:1054C00090932D0880932C08CDCFFE01E20FF31F9F
:1054D000819391932250310939832883D7CF20912A
:1054E0002A0830912B08232B41F42091120130918E
:1054F000130130932B0820932A082091100130913A
:1055000011012115310541F42DB73EB74091140129
:1055100050911501241B350BE0912A08F0912B08BE
:10552000E217F307A0F42E1B3F0B2817390778F07A
:10553000AC014E5F5F4F2417350748F04E0F5F1FD9
:1055400050932B0840932A08819391939FCFF0E0CA
:10555000E0E09CCFCF93DF930097E9F0FC01329716
:1055600013821282A0912C08B0912D08ED0130E039
:1055700020E01097A1F420813181820F931F2091A8
:105580002A0830912B082817390709F061C0F093D9
:105590002B08E0932A08DF91CF910895EA01CE17F6
:1055A000DF07E8F54A815B819E0141155105B1F79E
:1055B000E901FB83EA8349915991C40FD51FEC1788
:1055C000FD0761F4808191810296840F951FE901A6
:1055D00099838883828193819B838A83F0E0E0E0D2
:1055E00012968D919C9113970097B9F52D913C914E
:1055F0001197CD010296820F931F20912A083091B6
:105600002B082817390739F6309751F510922D08D5
:1056100010922C08B0932B08A0932A08BCCFD383F8
:10562000C28340815181840F951FC817D90761F447
:105630004E5F5F4F88819981480F591F5183408386
:105640008A819B81938382832115310509F0B0CF34
:10565000F0932D08E0932C089ECFFD01DC01C0CF14
:1056600013821282D7CFFB01DC0104C08D9101901F
:10567000801921F441505040C8F7881B990B0895B8
:10568000DC0101C06D9341505040E0F7089511E0F6
:10569000CDE6D1E004C0FE010E94D5292196CE3688
:0856A000D107C9F7F894FFCF10
:1056A8000A020000000000000000000000000000E6
:1056B80000002E0880001D00021D00222508200879
:1056C8001B08160811080C0807080208FD07F80748
:1056D800F307EE07E907E407DF07DA07D507D0077E
:1056E800CB07C607C107BC07B707B207AD07A807AE
:1056F800A3079E07990794078F07000000006D0213
:1057080056030F02B40240021E02320200000000DB
:105718001608E9074508BF07E207CF07C0070D0AC3
:0257280000007F
:00000001FF
