:100000000C946E010C9414190C94E9180C94BE18FD
:100010000C9493180C9468180C943D180C941218B6
:100020000C94E7170C9498010C9498010C94980187
:100030000C94631A0C9498010C9498010C949801F8
:100040000C949D170C9498010C9467170C943D1711
:100050000C9498010C9498010C9498010C949801BC
:100060000C9498010C9498010C9498010C949801AC
:100070000C9498010C9498010C9498010C9498019C
:100080000C9498010C943F190C9498013E030000C5
:100090000000000A0D0000000000000101C0800007
:1000A000000000000000000000060000000000004A
:1000B0000000000000000000000000000000000040
:1000C000000000000000FF1F000000000000000012
:1000D0000000000000000000000000000000000020
:1000E0000000000000000000000000000000000010
:1000F000000000000000000000000000010080007F
:1001000002008000030080000400800005008000E1
:1001100006008000070080000800800009008000C1
:100120000A00FF000B00FF000C00FF000D00FF00A5
:100130000E00FF000F00FF001000FF001100FF0085
:100140001200FF001300FF001400FF001500FF0065
:100150001600FF001700FF001800FF0000008000DD
:10016000000080000000800000008000000080008F
:100170001980FF001981FF00FF000000FF00000050
:10018000FF000000FF000000FF000000FF00000073
:10019000FF000000FF000000FF0000000000000062
:1001A000000000000000000000000000000000004F
:1001B00000000000000000000000003A003700349A
:1001C00000310022006100640000003B003800356F
:1001D0000032002300620065007000740078007C2B
:1001E000008000840088008C009000940098009C9F
:1001F00000A000A400A800AC00B000B400B800BC8F
:1002000000C000C400C800CC00D000D400D800DC7E
:1002100000E000E400E800EC00F000F400F800FC6E
:10022000000001040108010C010000390036003310
:1002300000300021002000630005050505050505C7
:100240000502020202020202020707040404040477
:100250000404040707030303030303030307010163
:100260000101010101010606060606060606010255
:10027000040810204080010204081020408008106B
:10028000010204081020408001020102040810202D
:10029000408004804020100804020101020408107C
:1002A0002040800000000A0B0C000000000000014C
:1002B000040506000000000000000000000000002F
:1002C000000000000000000000000000000000002E
:1002D0000000000000000000CC1B902711241FBE6E
:1002E000CFEFD0E1DEBFCDBF11E0A0E0B1E0E8ECA0
:1002F000F2E500E00BBF02C007900D92A238B107F3
:10030000D9F728E0A2E8B1E001C01D92A732B207F8
:10031000E1F711E0CDE6D1E004C02197FE010E9493
:10032000E527CC36D107C9F70E949D1E0C945729AA
:100330000C94000020916D0730916E072115310556
:1003400049F090E0880F991F820F931FFC01808174
:100350009181089590E080E008959C0161157105F8
:1003600029F06130710571F080E008958091620795
:100370008217130681F09091650781E092171306AA
:1003800099F7089581E040916307509164074217FF
:10039000530751F7F6CF81E0F4CFFF920F931F93ED
:1003A000CF93DF938C01F42EE9010E94AD018823E5
:1003B000B1F0809165078017110619F580916907E2
:1003C00090916A078C179D0751F0809166078823EA
:1003D00099F0219751F410926A0710926907DF9102
:1003E000CF911F910F91FF90089581E090E090933D
:1003F0006A0780936907F3CFD0936A07C0936907B0
:10040000EECF8091670790916807C817D90739F335
:10041000F0FE0EC0219729F410926807109267072A
:10042000DECF81E090E09093680780936707D7CF95
:10043000D0936807C0936707D2CF089581E0809377
:1004400095020895FC01538D448D252F30E0842FB3
:1004500090E0821B930B541710F0CF9608950197EC
:100460000895FC01918D828D981761F0A28DAE0FD9
:10047000BF2FB11D5D968C91928D9F5F9F73928F60
:1004800090E008958FEF9FEF0895FC01918D828D8C
:10049000981731F0828DE80FF11D858D90E0089559
:1004A0008FEF9FEF0895FC01918D228D892F90E0B1
:1004B000805C9F4F821B91098F7399270895FC01DF
:1004C000A48DA80FB92FB11DA35ABF4F2C91848DB5
:1004D00090E001968F739927848FA689B7892C9312
:1004E000A089B1898C9180648C93938D848D9813AD
:1004F00006C00288F389E02D80818F7D8083089576
:10050000EF92FF920F931F93CF93DF93EC0181E063
:10051000888F9B8D8C8D981316C0E889F98980810E
:1005200085FF11C0EE89FF896083E889F9898081A0
:100530008064808381E090E0DF91CF911F910F91E3
:10054000FF90EF900895F62E0B8D10E00F5F1F4F78
:100550000F731127E02E8C8D8E110CC00FB607FC87
:10056000FACFE889F989808185FFF5CFCE010E9415
:100570005F02F1CFEB8DEC0FFD2FF11DE35AFF4F22
:10058000F0820B8FEA89FB8980818062D2CFCF9382
:10059000DF93EC01888D8823B9F0AA89BB89E889AB
:1005A000F9898C9185FD03C0808186FD0DC00FB651
:1005B00007FCF7CF8C9185FFF2CF808185FFEDCFCF
:1005C000CE010E945F02E9CFDF91CF9108958EECBA
:1005D00092E00E94530221E0892B09F420E0822F4F
:1005E000089580E090E0892B29F00E94E7028111B4
:1005F0000E94000080E090E0892B49F080E090E0CC
:10060000892B29F00E94000081110C9400000895AC
:100610000895E0915402F0915502309729F010921C
:1006200051021092500209940895CF93DF93AC01C8
:10063000E0915602F09157023097F1F090915302F9
:10064000809152029817C0F090E0292F30E02617D1
:10065000370754F4D901AD55BE4F240F351FE901BA
:1006600028812C939F5FF1CF109253026093520226
:10067000CB01DF91CF910994DF91CF910895DC01F7
:100680001296ED91FC91139711969C911197808190
:1006900061110EC09095982390831496ED91FC9172
:1006A0001597908111968C91809589238083089568
:1006B000623061F49095982390831496ED91FC91AB
:1006C0001597808111969C91892BF0CF982B908360
:1006D0000895AF92BF92CF92DF92EF92FF920F9365
:1006E0001F93CF93DF936C017B018B01040F151FC8
:1006F000EB015E01AE18BF08C017D10759F0699130
:10070000D601ED91FC910190F081E02DC601099593
:10071000892B79F7C501DF91CF911F910F91FF9040
:10072000EF90DF90CF90BF90AF90089581508C30C4
:1007300088F5E82FF0E0E156FC4F0C94E527C7035D
:10074000C703CA03AB03AF03B203B503CA03CA03AB
:10075000B903BF03C3038FB58F778FBD08958FB5DE
:100760008F7DFBCF8FB5877FF8CF85B58F7D85BD1A
:10077000089580918B008F7780938B0008958091EE
:100780008B008F7DF9CF80918B00877FF5CF83B76A
:100790008F7D83BF08951F93CF93DF93282F30E081
:1007A000F901ED55FD4F8491F901E259FD4FD491C6
:1007B000F901E75CFD4FC491CC23A9F0162F8111FC
:1007C0000E949603EC2FF0E0EE0FFF1FE753FE4F61
:1007D000A591B4918FB7F894EC91111108C0D09500
:1007E000DE23DC938FBFDF91CF911F910895DE2B25
:1007F000F8CFCF93DF9390E0FC01E259FD4F2491B5
:10080000875C9D4FFC0184918823D1F090E0880F94
:10081000991FFC01E754FE4FA591B491FC01E753E9
:10082000FE4FC591D49161110EC09FB7F8948C9181
:10083000E22FE0958E238C932881E223E8839FBFEB
:10084000DF91CF9108958FB7F894EC91E22BEC9360
:100850008FBFF6CF3FB7F894809143029091440246
:10086000A0914502B091460222B706B600FE05C02F
:100870002F3F19F00196A11DB11D3FBFBA2FA92F1F
:10088000982F8827BC01CD01620F711D811D911D1C
:1008900042E0660F771F881F991F4A95D1F7089588
:1008A0008F929F92AF92BF92CF92DF92EF92FF9280
:1008B0004B015C010E942A046B017C010E942A0406
:1008C0006C197D098E099F09683E73408105910569
:1008D000A8F321E0821A9108A108B10888EEC80E99
:1008E00083E0D81EE11CF11C81149104A104B10421
:1008F00029F7FF90EF90DF90CF90BF90AF909F903F
:100900008F90089561E08BE00E94CB0364E070E07B
:1009100080E090E00E94500460E08BE00C94CB03F8
:100920000C9482042FB7F89460913F0270914002BA
:1009300080914102909142022FBF0895E82FF0E08C
:10094000DF01AA0FBB1FA050BF4F11967C936E937F
:100950008830A8F4E255FB4F0C94E527B604C00498
:10096000CD04DB04E904F004FB04070580916A0070
:100970008C7F482B40936A0089B7816089BF0895B6
:1009800080916A00837F440F551F440F551F482BE9
:1009900040936A0089B78260F1CF80916A008F7CB2
:1009A00074E0440F551F7A95E1F7482B40936A0095
:1009B00089B78460E3CF80916A008F7366E0440F4B
:1009C000551F6A95E1F7482B40936A0089B7886004
:1009D000D5CF8AB78C7F482B4ABF89B78061CECFED
:1009E0008AB7837F440F551F440F551F482B4ABFBA
:1009F00089B78062C3CF8AB78F7C24E0440F551F2C
:100A00002A95E1F7482B4ABF89B78064B7CF8AB7E8
:100A10008F7396E0440F551F9A95E1F7482B4ABF14
:100A200089B78068ABCF883010F40C949E04089589
:100A30000E942A0420913C0230913D02FB01E21BFE
:100A4000F30B2091B5023091B602E217F30708F4D8
:100A500038C12091B7023091B80270933D02609383
:100A60003C024091B9025091BA024130510599F1CE
:100A700048F04230510509F4B9C04330510509F43A
:100A8000EFC00895E217F30708F0D4C08091BC02CC
:100A90008F5F8093BC028B3008F413C181E090E03B
:100AA0009093BA028093B90241E050E068E175E0AA
:100AB0008091AF020E94130510923B0282E590E004
:100AC0009093B8028093B70283E290E09093B602CD
:100AD0008093B502089540913B024130A9F038F06F
:100AE000433009F449C0443009F47CC00895E2174A
:100AF000F30730F491E090933B02E0933A020895BB
:100B000084E080933B020895E217F30798F5109272
:100B10003B029091BC029F5F9093BC028E2FEE0F20
:100B2000990B20913A02821B910927FD939597FF1B
:100B300003C091958195910949970CF4C2C0109218
:100B4000BA021092B90282E990E09093B8028093C1
:100B5000B70282E590E09093B6028093B5021092BE
:100B6000BC0240919D0250E068E175E08091AF02C7
:100B70000C94130583E0C5CFE217F30700F38091CF
:100B80009D02833061F582E080939D0282E090E0D7
:100B90009093BA028093B90282E990E09093B802F0
:100BA0008093B70282E590E09093B6028093B502FD
:100BB0001092BE021092C0021092C1021092C202A4
:100BC0001092C3021092C4021092C5028091BC021E
:100BD0008093BF021092BC021092BD02C2CF40931C
:100BE0009D02D4CFE217F30788F6A9CF5091BC023B
:100BF0005F5F5093BC024091BD02440FE217F307C0
:100C0000E0F04093BD02583009F05BC0E091BE02B5
:100C1000E630A9F41092BA021092B90282E990E08B
:100C20009093B8028093B70282E590E09093B60269
:100C30008093B5021092BC0208954160E2CF83E038
:100C400090E09093BA028093B90281E08E0F809376
:100C5000BE02F0E0E754FD4F8091BD028783089506
:100C6000E217F307F8F41092BA021092B902109248
:100C7000BC0282E990E09093B8028093B70282E5CB
:100C800090E09093B6028093B50288E0EEEBF2E03C
:100C9000A6ECB2E001900D928A95E1F781E0809395
:100CA000BB0208958091BE02863009F4B3CF82E082
:100CB00090E09093BA028093B9021092BC02109215
:100CC000BD02089580E090E0892B29F08091B40264
:100CD00083FD0C9400000895E82FF0E0E65AFD4FE4
:100CE000608308950F931F93CF93DF93FC0182815C
:100CF000813089F040F0823009F47AC0DF91CF91E1
:100D00001F910F91089561E08081DF91CF911F9134
:100D10000F910C94CB030181C02FD0E0108161E0D2
:100D2000812F0E94F903209719F460E0812FEDCF05
:100D3000CF3FD10511F461E0F9CFE12FF0E0ED559F
:100D4000FD4FE491E150EC3008F04DC0F0E0E55586
:100D5000F94F0C94E527B706B706F306BC06C206A2
:100D6000C806D006F306F306D506DF06E90683B704
:100D7000806283BF01BFC2CF8FB580688FBDDBBDEE
:100D8000CABDBCCF8FB580628FBDD9BDC8BDB6CF3F
:100D90008FB588608FBDD0937900C0937800AECFB7
:100DA00085B5806285BD03BDA9CF80918B00806829
:100DB00080938B00D0938700C09386009FCF809153
:100DC0008B00806280938B00D0938500C093840059
:100DD00095CF80918B00886080938B00D0938300A7
:100DE000C09382008BCFC038D1050CF0A4CF9DCF2B
:100DF0008181E381F0E0E65AFD4F80837FCF0F933E
:100E00001F93CF93DF93D62F8C01C0E0CD1741F015
:100E1000F801819191918F010E947206CF5FF6CF08
:100E2000DF91CF911F910F910895CF93DF93DC0154
:100E3000EC91F0E0EE0FFF1FE75DFD4FC591D491FF
:100E4000988111968C91982381E009F480E0DF91DC
:100E5000CF910895DC0170E0FB01E259FD4FE49170
:100E60001196EC931197675C7D4FFB0124912C93B5
:100E700030E0220F331FF901E754FE4F8591949122
:100E800013969C938E931297F901E753FE4F859129
:100E9000949115969C938E9314970895FC018081EC
:100EA000813089F4CB01845893408897C0F0613831
:100EB000F3E07F07A1F06C5F734081E0653071055E
:100EC00078F080E00895823021F4CB018C5A934071
:100ED000ECCF833061F7CB01845D9340E6CF81E0B6
:100EE0000895CF93DF93FC0121812F3FF9F0EC01AE
:100EF00061E0858D968D0E943F03AD8DBE8D149669
:100F0000ED91FC911597908111968C918095892394
:100F1000808361E070E080E090E00E94500460E037
:100F20008D8D9E8DDF91CF910C943F0380E090E0FA
:100F3000892B21F0DF91CF910C940000DF91CF91AC
:100F4000089585ED809374008091740084FDFCCF3A
:100F500010924F0208952091E301260F3327331F8B
:100F600021323105ECF420914F02FC0190E080E049
:100F7000243069F082E00895A091E3012191AC0151
:100F80004D535E4FA40FB52FB11D2C9301968617BC
:100F900098F38091E301680F6093E30180E0089586
:100FA00081E008950895E091530280915202E8177C
:100FB00030F4F0E0ED55FE4F808190E008958FEF22
:100FC0009FEF089590915302809152022FEF3FEFCF
:100FD000981748F4E92FF0E0ED55FE4F208130E0FE
:100FE0009F5F90935302C90108958091520290919E
:100FF0005302891B990B0895CF92DF92EF92FF92D3
:101000000F931F93CF93DF937C01CB018A01209133
:10101000A201222389F0EB016B01C40ED51ECC1571
:10102000DD0569F06991D701ED91FC910190F081A6
:10103000E02DC7010995F3CF642F0E94AB07C801CB
:10104000DF91CF911F910F91FF90EF90DF90CF90A4
:101050000895CF93DF931F92CDB7DEB769832091B8
:10106000A2012223F9F020915002203258F021E011
:1010700030E0FC013383228390E080E00F90DF9129
:10108000CF91089580915102E82FF0E0EE57FE4F86
:10109000998190838F5F809351028093500281E009
:1010A00090E0ECCF61E0CE0101960E94AB07F7CF54
:1010B00090E080E00895089508958F929F92AF92F6
:1010C000BF92CF92DF92EF92FF920F931F93CF9335
:1010D0000E942A04AB01BC018091790390917A03AC
:1010E000A0917B03B0917C038A019B01081B190B23
:1010F0002A0B3B0B80918103882309F47FC08091E8
:10110000830390918203E92FEE0FFF0BA82F082E87
:10111000000CBB0BC3E68C02E00DF11D1124E95855
:10112000FC4F178B068B053F11402105310508F058
:1011300054C09F5F90938203909182039332C9F5CC
:1011400093E69A9F90019B9F300D112429583C4FA4
:10115000F901E45AFF4FC0907D03D0907E03E090E8
:101160007F03F09080034A015B018C189D08AE0854
:10117000BF0875016401C082D182E282F3822959DD
:101180003F4FE1E0F0E0D901ED93FC938F5F8A30AF
:1011900094F580938303E0918303B3E6EB02F001BF
:1011A0001124E252FC4F118210821092810310929E
:1011B00082034093790350937A0360937B03709387
:1011C0007C03CF911F910F91FF90EF90DF90CF9014
:1011D000BF90AF909F908F9008951092820391E0FE
:1011E0009093810340937D0350937E0360937F032C
:1011F00070938003A1CF10928303CDCF053F1140A0
:1012000021053105B0F281E08093810340937D0395
:1012100050937E0360937F0370938003CACFE82FBF
:10122000F0E0E65AFD4F60830895CF93FC01828180
:10123000813051F020F0823079F0CF91089560E054
:101240008081CF910C94CB03C08161E08C2F0E94F0
:10125000F90360E08C2FF5CFE381F0E0E65AFD4F13
:101260001082EBCF80939602882361F00FB6F8943A
:10127000A89581B5886181BD11BC0FBE8EE198E053
:101280000C9472068EE198E00E94150988E19BE0BB
:101290000FB6F894A89581BD0FBE91BD0895CF9368
:1012A000C82F8091A0028C1731F081E0C11101C0DC
:1012B00080E00E943209C093A00260E070E0CB01A0
:1012C000C1110E9492046093A1027093A2028093C4
:1012D000A3029093A4028091A0028C1739F081E0C0
:1012E000C11101C080E0CF910C943209CF910895D3
:1012F000EF92FF920F931F93CF93DF938C01FC012A
:10130000C581D681209751F0E480F12CEF1431F0A3
:10131000899199910E941509F394F8CFF801C0853D
:10132000D185209751F0078110E0011731F08991A4
:1013300099910E9415091F5FF8CFDF91CF911F91FE
:101340000F91FF90EF90089520916D0730916E07F7
:101350002115310551F090E0880F991F820F931FDE
:10136000FC01808191810C9478090895CF9380913C
:101370006F07882369F18091700790917107892B1D
:1013800029F1C0E080916C07C81700F58C2F869575
:101390008695869590E0E0917007F0917107E80FCF
:1013A000F91F208130E043E0880F991F4A95E1F74B
:1013B0004C2F481B02C0359527954A95E2F720FF30
:1013C00003C08C2F0E94A409CF5FDCCF10926F075F
:1013D000CF9108950F931F93CF938C01C42F0E9438
:1013E000AD018823E1F180916507482F50E0C031BD
:1013F00028F5882319F12C2F30E080917207909105
:1014000073070C2E02C0969587950A94E2F780FF29
:1014100015C00417150719F580916D0790916E0797
:101420000097E9F0220F331F820F931FFC01808188
:101430009181CF911F910F910C9478090417150792
:1014400071F080916D0790916E07009741F04C2FDD
:1014500050E0440F551F480F591FFA01E8CFCF91B4
:101460001F910F9108950F931F93CF93DF93EC017A
:101470008B81882379F08B0189819A818617970760
:1014800029F0CE010E9478091A83098389819A8103
:10149000019731F48D819E81009769F06C8105C0C0
:1014A00088859985009739F06F81DF91CF911F91E1
:1014B0000F910C94FF06DF91CF911F910F9108952A
:1014C00020916D0730916E072115310571F0609103
:1014D00067077091680790E0880F991F820F931F2C
:1014E000FC01808191810C94330A0895CF938091FF
:1014F0006F07811138C0C0E080916C07C81728F4CD
:101500008C2F0E94A409CF5FF7CF80917007909134
:101510007107892B29F1C0E080916C07C81700F58D
:101520008C2F86958695869590E0E0917007F091D6
:101530007107E80FF91F208130E043E0880F991F01
:101540004A95E1F74C2F481B02C0359527954A95DF
:10155000E2F720FF03C08C2F0E94600ACF5FDCCF30
:1015600081E080936F07CF910895209167073091B4
:1015700068072817390761F0909368078093670719
:1015800080916F07882321F00E94B6090C94760A97
:101590000895CF93C62F8230910509F456C020F4E8
:1015A000019769F1CF9108958330910509F48BC0BB
:1015B0000497C1F785E160FFC0C00E94600A86E120
:1015C000C1FFBEC00E94600A87E1C2FFBCC00E948A
:1015D000600A88E1C3FFBAC00E94600A89E1C4FFC3
:1015E000B8C00E94600A8AE1C5FFB6C00E94600AC6
:1015F0008BE1C6FFB4C00E94600A8CE14AC080E063
:1016000064FF17C00E94600A81E0C0FF15C00E94FD
:10161000600A82E0C1FF13C00E94600A83E0C2FF3B
:1016200011C00E94600A84E0C3FF35C0CF910C94C2
:10163000600A0E94A409E8CF0E94A409EACF0E9490
:10164000A409ECCF0E94A409EECF85E060FF26C07C
:101650000E94600A86E0C1FF24C00E94600A87E001
:10166000C2FF22C00E94600A88E0C3FF20C00E941F
:10167000600A89E0C4FF1EC00E94600A8AE0C5FFBC
:101680001CC00E94600A8BE0C6FF1AC00E94600A5C
:101690008CE0C7FDCBCFCF910C94A4090E94A40984
:1016A000D9CF0E94A409DBCF0E94A409DDCF0E94FC
:1016B000A409DFCF0E94A409E1CF0E94A409E3CFCF
:1016C0000E94A409E5CF8DE060FF22C00E94600A5D
:1016D0008EE0C1FF20C00E94600A8FE0C2FF1EC0E2
:1016E0000E94600A80E1C3FF1CC00E94600A81E181
:1016F000C4FF1AC00E94600A82E1C5FF18C00E94A0
:10170000600A83E1C6FF16C00E94600A84E1C1CF6F
:101710000E94A409DDCF0E94A409DFCF0E94A40982
:10172000E1CF0E94A409E3CF0E94A409E5CF0E9463
:10173000A409E7CF0E94A409E9CF0E94A4093FCFE2
:101740000E94A40941CF0E94A40943CF0E94A4098A
:1017500045CF0E94A40947CF0E94A40949CF0E9407
:10176000A4094BCF0F931F93CF938C01C42F0E94DA
:10177000AD01882309F444C080916507482F50E0EB
:10178000C03148F5882339F12C2F30E08091720761
:10179000909173070C2E02C0969587950A94E2F7F4
:1017A00080FF19C00417150759F580916D079091B6
:1017B0006E07009729F16091690770916A07220FFF
:1017C000331F820F931FFC0180819181CF911F9164
:1017D0000F910C94330A0417150791F080916D074F
:1017E00090916E07009761F06091670770916807AC
:1017F0004C2F50E0440F551F480F591FFA01E4CFFA
:10180000CF911F910F9108950E944F09EEE9F2E0E8
:1018100081E087831086E7EAF2E088E0DF011D922D
:101820008A95E9F708950C949A270F931F93CF9305
:10183000C82F8B0181E090E00E94130C90E0209172
:1018400062072817190629F020916507281719063D
:1018500011F4C0936B078DE190E00E94130CC82F28
:1018600081E090E00E94130C90E021E030E0013034
:10187000110511F030E020E04C2F70E060E0CF91D6
:101880001F910F910C94CD01CF93863823E09207DE
:1018900019F130F481389340D1F08FEFCF91089552
:1018A000873823E09207D9F088389340B1F786E86B
:1018B00093E00E94130CC82F87E893E00E94130C5A
:1018C00090E02FEFC29F800D911D112402C081E88E
:1018D00093E0CF910C94130C86E893E0FACF87E85D
:1018E00093E0F7CFCF93C82F8FE290E00E94130CC4
:1018F000811109C085E190E0CC2311F086E190E0F0
:10190000CF910C94130C80E0CF910895CF93C82F02
:101910008FE290E00E94130C811106C08C2F90E0A2
:10192000CA96CF910C94130C80E0CF910895DF926A
:10193000EF92FF920F931F93CF93DF9350918C02FE
:1019400051111AC07901D42E8B01EC010E94AD0116
:101950008111D0926B078DE190E00E94130C9701EA
:10196000482FB801CE01DF91CF911F910F91FF90C9
:10197000EF90DF900C94CD01DF91CF911F910F91EB
:10198000FF90EF90DF9008951F93CF93DF93EC01CA
:1019900080919602882359F08FE090E00E94130C0A
:1019A000182F80E190E00E94130C181306C0CE019E
:1019B000DF91CF911F910C94130C8EE198E00E945F
:1019C0001509FFCF0C94C40CCF93DF932091B10283
:1019D0003091B2022F3F320721F0C901DF91CF9140
:1019E00008958091B40287FF2BC086FF0FC089E065
:1019F00090E00E94E20CC82F81E090E00E94E20C8F
:101A00009C2F9093B2028093B10215C089E090E0C0
:101A10000E94E20CC82F81E090E00E94E20C90E46A
:101A2000C99F90011124207C31708F73282B309333
:101A3000B2022093B1028091B1029091B202CECF56
:101A400085FF0CC081E190E00E94E20CC82F82E18A
:101A500090E00E94E20CC05CDD0BD2CF81E090E010
:101A60000E94E20C90E0CDCFFF920F931F93CF9393
:101A7000DF9330918C0231110FC0F22E8B01EC01FB
:101A80004330510509F47EC068F441305105E9F056
:101A90004230510509F458C0DF91CF911F910F9149
:101AA000FF9008954530510509F4D4C008F488C06A
:101AB0004630510589F740E024FF2CC0DF91CF91DB
:101AC0001F910F91FF900C94B20B809189028111AC
:101AD0002BC040E0B801CE01F4FE23C00E94B20B3F
:101AE00041E0B801CE01F0FE26C00E94B20B42E0F8
:101AF000B801CE01F1FE22C00E94B20B43E0B80152
:101B0000CE01F2FE1EC00E94B20B44E0B801CE012D
:101B1000F3FCD4CFDF91CF911F910F91FF900C94E4
:101B2000EA090E94EA09DCCF8DE190E00E94E20C14
:101B300081FDCFCFD5CF0E94EA09D9CF0E94EA0913
:101B4000DDCF0E94EA09E1CF45E020FF12C00E94EC
:101B5000B20B46E0B801CE01F1FE0EC00E94B20BFE
:101B600047E0B801CE01F2FE0AC00E94B20B48E085
:101B7000CDCF0E94EA09EDCF0E94EA09F1CF0E9481
:101B8000EA09F5CF49E020FF12C00E94B20B4AE0FB
:101B9000B801CE01F1FE0EC00E94B20B4BE0B801BD
:101BA000CE01F2FE0AC00E94B20B4CE0AFCF0E9401
:101BB000EA09EDCF0E94EA09F1CF0E94EA09F5CFC8
:101BC0004DE020FF32C00E94B20B4EE0B801CE01C2
:101BD000F1FE2EC00E94B20B4FE0B801CE01F2FE22
:101BE0002AC00E94B20B40E1B801CE01F3FE26C02C
:101BF0000E94B20B41E1B801CE01F4FE22C00E9466
:101C0000B20B42E1B801CE01F5FE1EC00E94B20B3C
:101C100043E1B801CE01F6FE1AC00E94B20B44E1C6
:101C2000B801CE01F7FE76CF49CF0E94EA09CDCFA9
:101C30000E94EA09D1CF0E94EA09D5CF0E94EA09A1
:101C4000D9CF0E94EA09DDCF0E94EA09E1CF0E94C4
:101C5000EA09E5CF45E120FF2EC00E94B20B46E124
:101C6000B801CE01F1FE2AC00E94B20B47E1B801D3
:101C7000CE01F2FE26C00E94B20B48E1B801CE01AF
:101C8000F3FE22C00E94B20B49E1B801CE01F4FE7E
:101C90001EC00E94B20B4AE1B801CE01F5FE1AC087
:101CA0000E94B20B4BE1B801CE01F6FE16C00E94B5
:101CB000B20B4CE1B5CF0E94EA09D1CF0E94EA09EC
:101CC000D5CF0E94EA09D9CF0E94EA09DDCF0E9450
:101CD000EA09E1CF0E94EA09E5CF0E94EA09E9CFCB
:101CE0001F93CF93DF93EC01162F0E949A271817AA
:101CF00021F0612FCE010E94A227CE01DF91CF916A
:101D00001F910C94130CCF93DF93863823E0920736
:101D100039F138F481389340E9F08FEFDF91CF91BA
:101D20000895873823E09207F1F088389340A9F7A7
:101D3000C62F86E893E00E94130CD82F87E893E023
:101D40000E94130C90E06C2F2FEFD29F800D911DFD
:101D5000112402C081E893E0DF91CF910C94700EC2
:101D600086E893E0F9CF87E893E0F6CF0F931F93CF
:101D7000CF93DF930FB7F894D0E0C0E0FE01E457B3
:101D8000FF4F1491CE010E949A27181721F0612F5E
:101D9000CE010E94A2272196CD3281E0D80771F7AB
:101DA00081E893E00E949A27813029F061E081E880
:101DB00093E00E94A227CCE1D1E01FEF8991999195
:101DC000FC0111830E947206F1E0CA35DF07B1F70A
:101DD0000FBFDF91CF911F910F9108951F93CF9364
:101DE000DF93EC01162F089779F4662319F10E940E
:101DF000B60E80E090E0892BB9F0612FCE01DF9123
:101E0000CF911F910C94000080E090E0892BA9F7FE
:101E100081E0C11590E1D90708F080E0111105C0FB
:101E2000DF91CF911F91089581E027972297C0F706
:101E300080E0F6CF80E090E0892BF9F681E0F0CFEA
:101E40002F923F924F925F926F927F928F929F92CA
:101E5000AF92BF92CF92DF92EF92FF920F931F93B8
:101E6000CF93DF9300D000D0CDB7DEB78C01E0E098
:101E7000CE2EE0E0DE2EF0E02F2EF0E03F2E812C83
:101E8000912C54018394B0E0EB2EB0E0FB2ED801EE
:101E90005B96ED91FC91309709F416C25280B181A6
:101EA000BA838081803409F42DC108F044C089329E
:101EB00009F4A2C1F0F4843209F45BC180F48132E8
:101EC00009F438C1833209F43EC1811110C080E0A9
:101ED00090E0892B61F08A810E94000008C0863260
:101EE00009F460C108F44FC1883209F47BC180E075
:101EF000DBC18D3209F495C168F48B3209F48AC1D3
:101F000008F481C16A8185E090E0E114F10409F0F0
:101F100070C1EDCF8F3209F493C108F489C18033C9
:101F200009F495C1813319F7E0E0F0E0EF2BF9F205
:101F30006A8182E093C1813609F4A1C050F58035F1
:101F400009F446C170F4823409F4EDC008F4E4C029
:101F5000833469F6C114D10451F26A8184E090E0BF
:101F6000D8C08E3509F47DC1803609F482C0813530
:101F700009F0BDCF80E090E0892B09F4B8CF9A81B9
:101F800097FF0CC161E070E0892F80580E9400002B
:101F9000AECF8D3609F47FC088F4833609F477C05C
:101FA00008F471C08C3609F0A2CFE0E0F0E0EF2B2E
:101FB00009F49DCF8A810E94000099CF873709F4E8
:101FC00065C1E8F48E3609F092CF0380F481E02DEC
:101FD000309709F479C180818F3609F088CF2114B8
:101FE000310409F484CF6A81661F6627661F8181E8
:101FF000B0E88B9FC0011124EA818E2B80C08B3703
:1020000009F4A7C18F3709F072CFFA81EF2FF0E002
:10201000EF5FFC4FFC83EB83BF01C8010E944E07BA
:10202000882309F440C18B819C818538A3E09A07FD
:1020300009F439C18D3AB3E09B0709F446C2853DE6
:10204000E3E09E0709F441C28438F3E09F0741F0C2
:102050008C3A23E0920721F0843D934009F028C296
:1020600088E0581225C20E94B60EC8010E9471076E
:102070002CC26A8181E090E00E94C90A38CF6A814F
:1020800082E090E0F9CF6A8183E090E0F5CF6A8149
:1020900084E090E0F1CF8A818F778183211431042D
:1020A00009F425CF6A81661F6627661FD8015B96F3
:1020B000ED91FC918181811121C081E080933902F1
:1020C00061110EC08091390287FD11CF60E090E070
:1020D0000E940000809139028F5F80933902F2CF15
:1020E0008091390287FD03CF61E090E00E940000FB
:1020F000809139028F5F80933902F2CF90E00E9485
:102100000000F5CE6A8181E090E0C114D10409F4A9
:10211000EECE0E940000EBCE6A8182E090E0C11416
:10212000D104B9F7E4CE6A8183E090E0C114D10410
:1021300081F7DDCE80E090E0892B09F4D8CE8A814A
:102140000E940000D4CEA0E0B0E0AB2B09F4CFCECB
:10215000BA818B2F90E0B7FF09C0EA81E1958E2FFD
:1021600090E09C838B839195819591090E9400005A
:10217000BECEAA8161E070E08A2FA7FD2FC070E07B
:1021800060E08A812CC0E0E0F0E0EF2B09F4AFCEF4
:10219000FA8161E070E08F2FF7FDF7CE70E060E02C
:1021A0008A81F4CE80E090E0892B09F4A0CE9A8158
:1021B00097FD05C0892F90E00E94000098CEAA816B
:1021C000A195EA2FF0E0CF01919581959109F4CF87
:1021D0002A8127FFD4CF61E070E0822F80580E94CF
:1021E000150C85CE6A8181E090E0E114F10409F4D8
:1021F0007ECE0E9400007BCE6A8182E090E0E114F6
:10220000F104B9F774CE6A8183E090E0E114F1043F
:1022100081F76DCE6A8184E090E0E114F10449F722
:1022200066CE6A8186E090E0E114F10411F75FCE9A
:10223000E114F10409F45BCE6A8187E090E0D9CF24
:102240006A8188E090E0E114F10499F650CEA0E0B4
:10225000B0E06A8181E0AB2B09F449CE0E94000016
:1022600046CE0380F481E02D309771F180818F3567
:1022700009F03DCEA0E0B0E0AB2B09F438CE81816F
:10228000BA81982F8B2F0E94000031CE9A81892F1E
:1022900090E08F5F9C4F9C838B83BC01C8010E94A0
:1022A0004E07811128C081E0D8015B96ED91FC9129
:1022B0005C9723813481148213825C963C932E9325
:1022C0005B97813009F4E3CD0F900F900F900F9042
:1022D000DF91CF911F910F91FF90EF90DF90CF9002
:1022E000BF90AF909F908F907F906F905F904F9036
:1022F0003F902F900895AB81BC81A138E3E0BE07E9
:10230000C9F0A438F3E0BF0711F1A53823E0B20704
:1023100079F0AC3A43E0B407D1F0AD3A83E0B807C6
:1023200039F0A43D93E0B90791F0A53DB34051F4D5
:102330008AE002C0D8018C915812B5CFC8010E9422
:102340007107B1CF8B819C810E94440CF5CF8DE049
:10235000F3CFBA816B2E712CEFEF6E1AECEF7E0A81
:10236000B301C8010E944E07882309F49CCF852D34
:1023700090E09C0144E0359527954A95E1F7F22FCE
:10238000F170F983F09338029C0153E0359527955D
:102390005A95E1F7422F4170442E409337029C0139
:1023A00035952795A22FA170AA0F9595879595959C
:1023B00087958170880F880F8A0FB52DB170B80F7F
:1023C000BB83B0933602E1E86E16E3E07E06B1F41B
:1023D000D8018C9180933502F130A9F180913502BA
:1023E00090E00B8002C0959587950A94E2F7817082
:1023F00099274816190609F056CFA0CFB4E86B16F6
:10240000B3E07B0651F0ECEA6E16E3E07E0629F0BD
:10241000F4ED6F16F3E07F0689F58DE080933502C9
:1024200099819130D9F6C30184589340029708F4FA
:102430003ACF8A818B5A823008F435CFAA81A35DC6
:10244000A23008F430CFD501C4010B8004C0880F3E
:10245000991FAA1FBB1F0A94D2F72091350253FE81
:1024600022C0822B8093350260913502C3010E9405
:10247000830E90913502891316CF60CF25E862163E
:1024800023E0720651F04DEA641643E0740629F029
:1024900085ED681683E0780611F48AE0BFCFC301AA
:1024A0000E94440CBBCF482F4095822F8423DACF63
:1024B000652D8B819C810E94830ED8015B96ED91E6
:1024C000FC919281891709F4D0CDEB81FC81E13830
:1024D000F34009F0E8CE81E893E00E94130CD801A4
:1024E0008C93E1CEAF92BF92CF92DF92EF92FF92A8
:1024F0000F931F93CF93DF93C0914702D09148026F
:102500001091340211111AC0FE0190E080E0258183
:102510003681232B09F05AC025E0289FF001299F1E
:10252000F00D11243296EC0FFD1FF0933302E0936F
:102530003202309709F43FC014821382A090320215
:10254000B0903302A114B104B1F10E949204C09082
:102550002E02D0902F02E0903002F09031026C19E0
:102560007D098E099F096A30710581059105C8F1C1
:10257000109234020E94920460932E0270932F02F4
:1025800080933002909331028D8D9E8D0E941507AD
:10259000F5019081882319F19160908381E0809307
:1025A00034020E942A0460932A0270932B028093C3
:1025B0002C0290932D02DF91CF911F910F91FF90EC
:1025C000EF90DF90CF90BF90AF9008950196359631
:1025D0008530910509F09BCFF0E0E0E0A6CF9E7F2B
:1025E000DCCF0E942A04C0902A02D0902B02E090F7
:1025F0002C02F0902D026C197D098E099F0965311E
:10260000710581059105B8F20E942A046C197D09B3
:102610008E099F09643F71408105910560F68D8D9B
:102620009E8D212F2770C12CD12C7601C39404C01C
:10263000CC0CDD1CEE1CFF1C2A95D2F7103108F0E3
:1026400049C00E941507E12FE695E695E695EA0D4B
:10265000FB2DF11D8823D1F18081C82AC08201E0C1
:10266000010F009334020E942A0460932A0270939F
:102670002B0280932C0290932D02177F173019F0B4
:10268000083109F098CF0E94920460932E02709353
:102690002F028093300290933102003141F10831D2
:1026A00009F089CF0B8D1C8D8091320290913302FD
:1026B0009C8F8B8FCE010E94200FE0913202F0910F
:1026C0003302148213821C8F0B8F2CC0C094808124
:1026D000C822C4CF0E941507F5019281882319F002
:1026E000C92AC282BCCFC0949C219283B8CFA0914A
:1026F0003202B09133028C91982F977F973709F46B
:102700005ACF8B3709F457CFEB8DFC8D309721F4DE
:10271000BC8FAB8F07C0FC01838194810097D9F7F0
:10272000B483A3831092340246CF0F931F93CF93A9
:10273000DF9320919602222329F08F30910541F4F6
:102740008FE090E0DF91CF911F910F910C94700E6C
:10275000162FEC018FE090E00E94130C082F80E10F
:1027600090E00E94130C08130DC0C730D10531F062
:10277000C830D10521F4183031F0FFCFFFCF612FE1
:10278000CE01E0CFFFCF0E94B60E88E0DF91CF915F
:102790001F910F9108958331910588F4813191053E
:1027A00030F48130910519F08930910531F42FEF23
:1027B0003FEF3093B2022093B1020C9495138D3108
:1027C0009105D9F7677F6093B40220919E022F7321
:1027D000362F307C232B20939E02E9CFCF93DF93BB
:1027E000E9EBF2E095E1DF011D929A95E9F722E924
:1027F00030E03093B8022093B70222E530E0309306
:10280000B6022093B502CEE9D2E0888319828FEF19
:102810009FEF9C8B8B8B1D8A83E080939D0243E00E
:1028200050E068E175E089890E9413058DE190E030
:102830000E94E20C682F6F738DE190E00E94CB1331
:102840008E8B6AE087E090E00E94CB136DE088E019
:1028500090E00E94CB1380E0DF91CF910C94040CA8
:1028600089B78F7789BF8DE192E090930F018093B4
:102870000E0181E00E94EE1310929C0210929B02C6
:1028800008950F931F930E942A04009197021091BC
:1028900098022091990230919A02601B710B820B71
:1028A000930B613F79448240910508F456C08091B2
:1028B000960281110BC080919B0290919C02813005
:1028C0009105B1F188F0029709F444C00E942A04EE
:1028D00060939702709398028093990290939A0262
:1028E00081E01F910F91089580E390E00E94C40C55
:1028F00080FF0EC041E050E06DE578E087E00E9487
:102900009E0481E090E090939C0280939B02DECF36
:102910008DE190E00E94C40C82FFD8CF41E050E0EE
:102920006EE172E087E00E949E0482E090E0EBCFCF
:1029300089B78F7789BF8DE192E090930F018093E3
:102940000E018DE190E00E94C40C82FDE7CF0E9451
:102950003014BCCF10929502FACF80E0C2CFBF9264
:10296000CF92DF92EF92FF920F931F93CF93DF935B
:102970008B01B42E690182FF23C083FF17C061E081
:10298000C8010E94EE0E8823D9F16B2DC8010E9468
:10299000CB138B1135C0F601DF91CF911F910F91B1
:1029A000FF90EF90DF90CF90BF90099460E0C80156
:1029B0000E94EE0E882321F1C8010E94E20CE9CFAB
:1029C000842F8770C1E0D0E07E0101C0EE0C8A95B3
:1029D000EAF7D42FD870CB010E94E20CC82FB4FEC6
:1029E0001CC061E0C8010E94EE0E882349F0DD237F
:1029F00089F0CE296C2FC8010E94CB138C1759F295
:102A0000DF91CF911F910F91FF90EF90DF90CF90CA
:102A1000BF900895E094CE21EDCF60E0C8010E9400
:102A2000EE0E882369F3CE21DD2319F0C111B3CF57
:102A3000E7CFCC2309F4AFCFE3CFCF92DF92EF9271
:102A4000FF920F931F93CF93DF937C016B01C42FF1
:102A5000122FD42FD07E80919E0287FF2CC0D03EB3
:102A6000C1F580919F028823A1F190E00E94E20CC1
:102A7000D82F80919F0290E001960E94E20C982F3F
:102A80008D2FE816F90629F56C2F70E0762F662752
:102A900066277370612B6F5F7F4F22E636E0402F11
:102AA0008C2FDF91CF911F910F91FF90EF90DF90CE
:102AB000CF900C94AF1480FD32C0D03609F464C0BE
:102AC00088F4D03209F447C0D03409F45DC0DD2366
:102AD00079F1DF91CF911F910F91FF90EF90DF90EF
:102AE000CF900895D03A09F483C090F42C2F2F7121
:102AF00041E050E0D03869F7B601C701DF91CF91CE
:102B00001F910F91FF90EF90DF90CF900C94340DB8
:102B1000D03C09F476C0D03E09F4B6CFDACF0E949B
:102B2000E40C8E159F0549F2E114F10431F2D1CF86
:102B30008C2F8E7071F680E090E0892B51F28C2FF3
:102B40008170DF91CF911F910F91FF90EF90DF90F7
:102B5000CF900C940000CF71CF3109F0BACF412F44
:102B60004F7771F0413071F0111F1127111F212F84
:102B700030E00FE710E0B601C7010E94970CA9CF23
:102B800041E0F2CF40E0F0CF2C2F30E08C2F8F715E
:102B9000813029F030F0803121F08131F9F440E0CA
:102BA00001C041E025FB222720F90DE110E030E0D3
:102BB000B601C7010E94970C80E090E0892B09F4D0
:102BC00088CF4C2FB601C701DF91CF911F910F9194
:102BD000FF90EF90DF90CF900C940000C901880F18
:102BE000991F8E71C4FB442740F9482B4250DACF1D
:102BF0002C2F2F7043E050E0C4FF7ECF42E050E026
:102C00007BCFCF71CE3139F0CF3109F062CF212F98
:102C100045E050E071CF212F44E050E06DCFCF92DE
:102C2000DF92EF92FF920F931F93CF93DF93EC010C
:102C30007B0141305105F9F4CD80DE802496C1142A
:102C4000D104E9F462E070E081E090E00E940228A3
:102C50008C01009731F0FC01F182E08288818F5F66
:102C60008883C801DF91CF911F910F91FF90EF9062
:102C7000DF90CF900895C884D9842796E0CF8881CB
:102C80008F5F8883C82FD0E062E070E0CE010E94A1
:102C900002288C0120E0BE0161507109822F90E072
:102CA0008617970774F4880F991FF601E80FF91F2C
:102CB00040815181800F911FFC01518340832F5F20
:102CC000EDCFC150D048CC0FDD1FC00FD11FF9820E
:102CD000E882C6010E94BA28C4CF4F925F926F92D9
:102CE0007F92AF92BF92CF92DF92EF92FF920F93BB
:102CF0001F93CF93DF93CDB7DEB7C154D1090FB681
:102D0000F894DEBF0FBECDBF5C01F82E6E0182E2EB
:102D1000C80ED11C8601802F8C198F1540F48BE6CC
:102D200093E00E94E207F80181938F01F4CFF12C28
:102D30008AE0482E512C612C712CF5E0AF16B104BD
:102D400009F064C000915802109159020115110553
:102D5000A9F13CA14BA12AA1F80190E080E0658196
:102D60007681672B31F555E0589F7001599FF00C23
:102D70001124C7010296800F911FE00EF11EF7018A
:102D800016821582228343833483F801C38CD48C4A
:102D9000322F377F373741F5F801948F838FC80181
:102DA0000E94200FF70116821582F801D48EC38E7F
:102DB00005C0019635968530910589F6CF5BDF4FCA
:102DC0000FB6F894DEBF0FBECDBFDF91CF911F913C
:102DD0000F91FF90EF90DF90CF90BF90AF907F90DA
:102DE0006F905F904F9008952B37B1F2C114D104CA
:102DF00021F4948F838FE2CF6901F601238134811E
:102E000021153105C9F794838383D8CF8F2D90E0A6
:102E10008A159B059CF68C0D9D1DFC01208130E0E0
:102E200050E040E019A28E010F5D1F4FCA01B901A9
:102E3000A30192010E94C327605DF80162938F0194
:102E4000211531054105510589F7309761F0019051
:102E50000020E9F73197AF01401B510BB8018EEC10
:102E600092E00E94690342E050E06EE771E08EEC70
:102E700092E00E946903F394C9CF1F920F920FB69C
:102E80000F9211240BB60F922F933F934F935F93A2
:102E90006F937F938F939F93AF93BF93EF93FF9322
:102EA0008EEC92E00E945F02FF91EF91BF91AF9193
:102EB0009F918F917F916F915F914F913F912F9152
:102EC0000F900BBE0F900FBE0F901F9018951F9282
:102ED0000F920FB60F9211240BB60F922F938F9370
:102EE0009F93EF93FF93E091DE02F091DF028081E8
:102EF000E091E402F091E50282FD1DC09081809195
:102F0000E7028F5F8F732091E802821741F0E09112
:102F1000E702F0E0E253FD4F958F8093E702FF91C7
:102F2000EF919F918F912F910F900BBE0F900FBE3D
:102F30000F901F9018958081F2CF1F920F920FB6BD
:102F40000F9211242F933F938F939F93AF93BF932F
:102F500080913F0290914002A0914102B0914202C3
:102F600030913E0223E0230F2D3768F126E8230F2E
:102F70000296A11DB11D20933E0280933F029093C3
:102F80004002A0934102B09342028091430290918B
:102F90004402A0914502B09146020196A11DB11DC7
:102FA0008093430290934402A0934502B09346025B
:102FB000BF91AF919F918F913F912F910F900FBE35
:102FC0000F901F9018950196A11DB11DD4CF1F928F
:102FD0000F920FB60F9211240BB60F922F933F93BF
:102FE0004F935F936F937F938F939F93AF93BF9311
:102FF000EF93FF93E0910E01F0910F010995FF917E
:10300000EF91BF91AF919F918F917F916F915F9160
:103010004F913F912F910F900BBE0F900FBE0F90CD
:103020001F9018951F920F920FB60F9211240BB696
:103030000F922F933F934F935F936F937F938F9351
:103040009F93AF93BF93EF93FF93E0910C01F091A7
:103050000D010995FF91EF91BF91AF919F918F91D4
:103060007F916F915F914F913F912F910F900BBE88
:103070000F900FBE0F901F9018951F920F920FB6D2
:103080000F9211240BB60F922F933F934F935F93A0
:103090006F937F938F939F93AF93BF93EF93FF9320
:1030A000E0910A01F0910B010995FF91EF91BF9119
:1030B000AF919F918F917F916F915F914F913F91D0
:1030C0002F910F900BBE0F900FBE0F901F90189571
:1030D0001F920F920FB60F9211240BB60F922F93DF
:1030E0003F934F935F936F937F938F939F93AF9390
:1030F000BF93EF93FF93E0910801F09109010995C7
:10310000FF91EF91BF91AF919F918F917F916F91BF
:103110005F914F913F912F910F900BBE0F900FBE7B
:103120000F901F9018951F920F920FB60F921124B7
:103130000BB60F922F933F934F935F936F937F93B1
:103140008F939F93AF93BF93EF93FF93E09106010B
:10315000F09107010995FF91EF91BF91AF919F9178
:103160008F917F916F915F914F913F912F910F9030
:103170000BBE0F900FBE0F901F9018951F920F92CD
:103180000FB60F9211240BB60F922F933F934F93CC
:103190005F936F937F938F939F93AF93BF93EF93BF
:1031A000FF93E0910401F09105010995FF91EF91E2
:1031B000BF91AF919F918F917F916F915F914F914F
:1031C0003F912F910F900BBE0F900FBE0F901F904D
:1031D00018951F920F920FB60F9211240BB60F92F3
:1031E0002F933F934F935F936F937F938F939F930F
:1031F000AF93BF93EF93FF93E0910201F09103012E
:103200000995FF91EF91BF91AF919F918F917F9120
:103210006F915F914F913F912F910F900BBE0F9047
:103220000FBE0F901F9018951F920F920FB60F921E
:1032300011240BB60F922F933F934F935F936F938D
:103240007F938F939F93AF93BF93EF93FF93E091FF
:103250000001F09101010995FF91EF91BF91AF91AC
:103260009F918F917F916F915F914F913F912F919E
:103270000F900BBE0F900FBE0F901F9018951F92CE
:103280000F920FB60F9211240BB60F922F933F930C
:103290004F935F936F937F938F939F93AF93BF935E
:1032A000EF93FF9380917100887F803609F44DC0C1
:1032B00008F040C0883209F4A9C028F5803109F42B
:1032C0009DC0C8F4882309F4FBC0883009F496C077
:1032D000FF91EF91BF91AF919F918F917F916F91EE
:1032E0005F914F913F912F910F900BBE0F900FBEAA
:1032F0000F901F901895883109F488C0803241F7EB
:103300008093060214C0803409F49DC040F48033D9
:10331000B9F38833E9F68093060285ECB0C08035B6
:1033200009F485C0883509F496C0883489F60E946E
:10333000A107CECF883909F48CC038F5883729F039
:1033400050F4883611F0803719F683E080934F02ED
:103350001092050257C0883809F47BC0803919F0F3
:10336000803809F0B5CF80910502803208F071C035
:10337000E091050281E08E0F809305028091730039
:10338000F0E0EB51FE4F80833DC0803B39F0E0F42C
:10339000803A09F479C0883A09F09ACF84E08093A2
:1033A0004F021092E4011092E301E0914B02F09180
:1033B0004C0209958091E30181110FC081E0809357
:1033C000E3011092C30109C0803C09F4A6CF883CF8
:1033D00009F4A3CF883B09F07BCFE091E40181E0C1
:1033E0008E0F8093E401F0E0ED53FE4F80818093D7
:1033F00073009091E4018091E30129C0809129023A
:103400008093730085EC8093740062CF90912802C2
:1034100080912702981758F5E091280281E08E0FDD
:1034200080932802F0E0E95FFD4F8081E9CFE091D1
:10343000280281E08E0F8093280280917300F0E0D3
:10344000E95FFD4F808390912802809127029817B1
:10345000C8F285E8D8CFE091280281E08E0F8093F2
:10346000280280917300F0E0E95FFD4F8083809136
:103470004E0281115CCF81E080934D0284EA8093FB
:10348000740010924F0224CF85EC80937400109248
:103490004F0280910502803230F4E0910502F0E0A5
:1034A000EB51FE4F10826091050270E0E0914902FD
:1034B000F0914A0285EE91E009951092050208CF3D
:1034C0001092060234CF1F920F920FB60F92112462
:1034D0008F939F93789480917902909178028917C5
:1034E00008F0F5C090916200916090936200909115
:1034F0007702891708F0EFC0AD9A9091760289178C
:1035000008F0EBC0969A90917502891708F0E7C011
:10351000979A90917402891708F0E3C09091650022
:1035200091609093650090917302891708F0DDC057
:103530009091650092609093650090917202891756
:1035400008F0D7C0A89A90917102891708F0D3C0EB
:103550009091650090619093650090917002891739
:1035600008F0CDC0909165009860909365009091AF
:103570006F02891708F0C7C0C79A90916E02891729
:1035800008F0C3C0C59A90916D02891708F0BFC0BA
:10359000C49A90916C02891708F0BBC0C69A9091AA
:1035A0006B02891708F0B7C0DB9A90916A028917FD
:1035B00008F0B3C0DC9A90916902891708F0AFC097
:1035C000DD9A90916802891708F0ABC0DE9A90915D
:1035D0006702891708F0A7C0DF9A909166028917E1
:1035E00008F0A3C09091650094609093650090915D
:1035F0006502891708F09DC01A9A90916402891794
:1036000008F099C01B9A90916302891708F095C041
:103610001C9A90916202891708F091C01D9A9091AE
:103620006102891708F08DC09091620092609093BA
:10363000620090916002891708F087C0C09A90914B
:103640005F02891708F083C09091620090689093A0
:10365000620090915E02891708F07DC0909162002F
:1036600090649093620090915D02891708F077C092
:103670009091620090629093620090915C02891731
:1036800008F071C0909162009061909362009091F7
:103690005B02891708F06BC090916200986090936C
:1036A000620090915A02891708F065C0809162000B
:1036B000846080936200809179028F5F80937902A9
:1036C0009F918F910F900FBE0F901F901895909122
:1036D00062009E7F0ACFAD9810CF969814CF97982E
:1036E00018CF909165009E7F1CCF909165009D7FC3
:1036F00022CFA89828CF909165009F7E2CCF9091E3
:103700006500977F32CFC79838CFC5983CCFC49813
:1037100040CFC69844CFDB9848CFDC984CCFDD989B
:1037200050CFDE9854CFDF9858CF909165009B7FA3
:103730005CCF1A9862CF1B9866CF1C986ACF1D98F1
:103740006ECF909162009D7F72CFC09878CF90919C
:1037500062009F777CCF909162009F7B82CF909197
:1037600062009F7D88CF909162009F7E8ECF909166
:103770006200977F94CF809162008B7F9ACFCF9326
:10378000DF93EC0161E088810E94F90360E08881A9
:10379000DF91CF910C94CB03CF92DF92EF92FF9207
:1037A0000F931F93CF93DF931092D1021092D00208
:1037B00088EE93E0A0E0B0E08093D2029093D30231
:1037C000A093D402B093D5022EE531E03093CF021E
:1037D0002093CE0220E930E03093DB022093DA021E
:1037E00029E230E03093DD022093DC022BE230E06E
:1037F0003093DF022093DE022AE230E03093E102D0
:103800002093E00225E930E03093E3022093E202C6
:103810002CE230E03093E5022093E4021092E702BC
:103820001092E8021092E9021092EA0210926E03DE
:1038300010926D0380936F0390937003A0937103B4
:10384000B093720380E791E090936C0380936B03D5
:103850001092790310927A0310927B0310927C03EA
:1038600010927D0310927E0310927F0310928003CA
:1038700010928103109282031092830387E090E0FC
:10388000909378038093770383E190E00E94130C78
:10389000C82F82E190E00E94130CD82F81E190E0C4
:1038A0000E94130C182F81E090E00E94130C21E07D
:1038B00030E0309368072093670730936A072093BE
:1038C000690710926B0710926F07109271071092A0
:1038D000700780936207212F205C330BC9012D2FC5
:1038E000382FC9019093640780936307CF77C09303
:1038F0006507109266078DE180936C0762E070E0C7
:103900008DE190E00E94022890936E0780936D07EE
:103910000097C9F0EC0110E0EE24E394F12C8AE06A
:1039200090E00E941E28FC01F282E1821382148240
:1039300016821582178211861086108389939993B7
:103940001F5F1D3161F767E082E897E00E942A0758
:1039500063E28CE797E00E942A078FE280931E08BB
:10396000C2E0C093200810922108DFEFD0931F0817
:10397000109222088EE198E00E94BF1B80E38093A2
:103980001908C0931B0881E080931C08D0931A0883
:1039900010921D0889E198E00E94BF1B81E380938B
:1039A0001408C0931608C0931708D09315081092F6
:1039B000180884E198E00E94BF1B82E380930F08FF
:1039C000C093110813E010931208D09310081092BE
:1039D00013088FE098E00E94BF1B83E380930A08DE
:1039E000C0930C0804E000930D08D0930B081092CC
:1039F0000E088AE098E00E94BF1B84E380930508CC
:103A0000C093070885E0E82EE0920808D0930608E6
:103A10001092090885E098E00E94BF1B98E0F92EFB
:103A2000F0920008C093020886E080930308D093C8
:103A300001081092040880E098E00E94BF1B8EE20B
:103A40008093FB07C093FD0787E08093FE07D09328
:103A5000FC071092FF078BEF97E00E94BF1BE092DC
:103A6000F607C093F807F092F907D093F707109282
:103A7000FA0786EF97E00E94BF1B0093F107C093FF
:103A8000F30789E08093F407D093F2071092F507CB
:103A900081EF97E00E94BF1B1093EC07C093EE07E5
:103AA0008AE08093EF07D093ED071092F0078CEE39
:103AB00097E00E94BF1BC093E707C093E9078BE024
:103AC0008093EA07D093E8071092EB0787EE97E020
:103AD0000E94BF1B84E28093E207C093E4072CE0BE
:103AE000D22ED092E507D093E3071092E60782EE3C
:103AF00097E00E94BF1B85E28093DD07C093DF073C
:103B00003DE0E32EE092E007D093DE071092E1075C
:103B10008DED97E00E94BF1B86E28093D807C0938B
:103B2000DA074EE0C42EC092DB07D093D90710927B
:103B3000DC0788ED97E00E94BF1B87E28093D307E4
:103B4000C093D5075FE0F52EF092D607D093D40747
:103B50001092D70783ED97E00E94BF1B88E2809305
:103B6000CE07C093D00700E10093D107D093CF07D1
:103B70001092D2078EEC97E00E94BF1B89E28093DF
:103B8000C907C093CB0711E11093CC07D093CA07A4
:103B90001092CD0789EC97E00E94BF1BC092C4072A
:103BA000C093C60782E18093C707D093C5071092E0
:103BB000C80784EC97E00E94BF1BD092BF07C09358
:103BC000C10783E18093C207D093C0071092C30757
:103BD0008FEB97E00E94BF1BE092BA07C093BC072F
:103BE00084E18093BD07D093BB071092BE078AEB98
:103BF00097E00E94BF1BF092B507C093B70785E11D
:103C00008093B807D093B6071092B90785EB97E079
:103C10000E94BF1B0093B007C093B20786E1809358
:103C2000B307D093B1071092B40780EB97E00E94DE
:103C3000BF1B1093AB07C093AD0787E18093AE071E
:103C4000D093AC071092AF078BEA97E00E94BF1B9E
:103C50001CE11093A607C093A80708E10093A907E9
:103C6000D093A7071092AA0786EA97E00E94BF1B8D
:103C70006BE1F62EF092A107C093A30779E1E72E3E
:103C8000E092A407D093A2071092A50781EA97E0DB
:103C90000E94BF1B8AE180939C07C0939E0780937C
:103CA0009F07D0939D071092A0078CE997E00E9490
:103CB000BF1BE0929707C0939907F0929A07D093A1
:103CC000980710929B0787E997E00E94BF1B00931B
:103CD0009207C093940710939507D093930710927F
:103CE000960782E997E00E94BF1B81E280938D07CF
:103CF000C0938F078DE180939007D0938E07109229
:103D000091078DE897E00E94BF1B8DE280938807A2
:103D1000C0938A078EE180938B07D0938907109216
:103D20008C0788E897E0DF91CF911F910F91FF906A
:103D3000EF90DF90CF900C94BF1BCF93DF93CDB764
:103D4000DEB762970FB6F894DEBF0FBECDBF789492
:103D500083B78C6483BF87B7816087BF82E08EBDE5
:103D60008EB581608EBD8FB581608FBD85B5846055
:103D700085BD85B5806485BD80918A008360809310
:103D80008A0080918B00816080938B0087E886B9E0
:103D90001AB80FB6F894A89581B5886181BD11BC99
:103DA0000FBE2FB7F89490E080E0FC01E65AFD4F7B
:103DB000108201968F319105C1F7809162008E7F4C
:103DC00080936200AD9896989798809165008E7F59
:103DD00080936500809165008D7F80936500A89831
:103DE000809165008F7E8093650080916500877F5C
:103DF00080936500C798C598C498C698DB98DC98EE
:103E0000DD98DE98DF98809165008B7F8093650058
:103E10001A981B981C981D98809162008D7F809342
:103E20006200C098809162008F77809362008091D9
:103E300062008F7B80936200809162008F7D80930F
:103E40006200809162008F7E8093620080916200A8
:103E5000877F80936200809162008B7F80936200F5
:103E60002FBF9FB7F89480916100816080936100BB
:103E7000A59A8E9A8F9A80916400816080936400E5
:103E800080916400826080936400A09A80916400B5
:103E900080618093640080916400886080936400F6
:103EA000BF9ABD9ABC9ABE9AD39AD49AD59AD69AFA
:103EB000D79A80916400846080936400129A139A68
:103EC000149A159A80916100826080936100B89A7B
:103ED00080916100806880936100809161008064BE
:103EE0008093610080916100806280936100809185
:103EF000610080618093610080916100886080939F
:103F00006100809161008460809361009FBF1FBC4D
:103F100089E08EBD8CE093E09BBD8ABD87B7806150
:103F200087BF1092790261E08BE00E94F90360E0A4
:103F300082E897E00E943F03E0917E07F0917F07BF
:103F4000908180917D07809589238083E09180070F
:103F5000F0918107808190917D07892B808329EDE5
:103F6000A22E21E0B22E3CE1C32E31E0D32E9924C3
:103F70009394F501E490F12CC7010E94130C182FC3
:103F8000C70101960E94130C082FC70102960E94D8
:103F9000130C882EC70103960E94130C90916C0796
:103FA000191710F5D601ED90FC90F70181828483FA
:103FB000812F0111D2C00E949A013C0141E050E0E2
:103FC000B7010E940F16D30116969C938E931597F6
:103FD000812F0E949A018C0150E040E0B7010E94BD
:103FE0000F16F80191878087A895B2E0AB0EB11C3F
:103FF000E2E0CE0ED11CFAE5CF16F1E0DF0609F0C3
:10400000B8CF61E070E084E090E00E9402289093D5
:10401000710780937007892B91F010E000E0E09029
:104020007007F0907107E00EF11E802F0E94860C41
:10403000D7018C930F5F1F4F0430110581F780E08B
:104040000E94720C082F10E081E00E94720C282F51
:1040500030E0322F222722273E7F000F111F202B16
:10406000312B309373072093720780FF05C02160C6
:10407000309373072093720760E08AE00E94F9038F
:10408000EDEAF2E08491E8E7F2E00491E3E4F2E0A3
:10409000149111117CC0FF24F394F0928C028FE1F3
:1040A00090E00E941E288C0186E0F801818386E062
:1040B00090E00E941E286C0166E10E942A07D80148
:1040C0005E96DC92CE925D9710938B0200938A02EB
:1040D00081E893E00E94130CF8018083843008F09B
:1040E00024C1F80181818F3FF1F0109348020093C1
:1040F000470260E00E94F90360E0D8015D968D916F
:104100009C910E943F03F80181819CEF980F9430AD
:1041100020F08251843008F08FEF42E050E062E7F7
:1041200072E10E941305D80116961C921E921597F3
:104130001B961C921E921A9750961C921E921F97C5
:1041400055961C921E9254975A961C921E925997FD
:104150005C961C921E925B9729C00E949A01DC011A
:1041600013969C92003809F433CF013809F03CCF04
:10417000812F0E949A018C0141E050E0B7010E941A
:104180000F16D80116969C938E9315972DCF8111FB
:104190000E949603E12FF0E0EE0FFF1FE75DFD4F59
:1041A000A591B491EC91E02309F475CF81E090E002
:1041B0000E94130C21E030E030937F0220937E02B6
:1041C0008093800281E190E00E94130C21E130E0B5
:1041D00030938202209381028093830282E190E0F7
:1041E0000E94130C22E130E0309385022093840278
:1041F000809386028DE190E00E94C40C81FD97C0FF
:104200008DE190E09093880280938702109289025A
:1042100087E08093AF028093B00260E00E94F903D0
:1042200061E087E00E94CB0380E00E94EE138DE600
:1042300096E1909357028093560288E093E0909322
:10424000550280935402109253021092520210921F
:1042500051021092500210924F0281E080934E0260
:1042600010924D0261E083E10E94CB0361E082E1A4
:104270000E94CB03809171008E7F809371008091AA
:1042800071008D7F8093710088E48093700085E4D5
:104290008093740089E093E090934C0280934B02EA
:1042A00085E193E090934A028093490282E08093F3
:1042B00072008CE0809370001092590210925802A4
:1042C00088E19BE00FB6F894A89581BD0FBE91BD23
:1042D00072E0472E512C80918D0281110DC00E94F9
:1042E0002A046093970270939802809399029093A6
:1042F0009A0281E080938D0280919B0290919C02B2
:104300008130910509F4AEC260F1029709F4D8C575
:10431000A89580918C028823F1F280918A02909175
:104320008B020E94200FA895D6CFF082DACE8DE1C5
:1043300090E00E94C40C85FD0DC080911601909103
:104340001701A09118018093870290938802A0938F
:1043500089025ECF8091190190911A01A0911B01F1
:10436000F2CF8091A0028823B1F00E9492040091C4
:10437000A1021091A2022091A3023091A402601B1D
:10438000710B820B930B653171058105910518F056
:1043900080E00E94040C8091BB02882309F445C090
:1043A000F89488E0E6ECF2E0A4E7B7E001900D9223
:1043B0008A95E1F71092BB0278943091C602E8EC3E
:1043C000F2E090E080E0391721F0219182279F5F91
:1043D000FACF81112AC080E090E0892B21F084E798
:1043E00097E00E94000080917607811125C090918E
:1043F0007707911121C080E090E0892B19F080E0CF
:104400000E9400008091A002882391F081E00E9428
:104410004F090E94B6090E942A0460939702709384
:1044200098028093990290939A020E94411470CF4F
:1044300081E00E94040CEDCF9091A002992309F431
:1044400086C08057803108F07FC081E00E944F090C
:10445000109174078091A70218130AC0412F50E0F1
:1044600069EA72E086E797E00E944329892B61F0B0
:104470001092A60288E0E4E7F7E0A7EAB2E0019034
:104480000D928A95E1F7C5CF8091A6028F5F809348
:10449000A602133009F040C090917607892F8770EB
:1044A000F0907707853029F4F092A5020E948204EB
:1044B000B0CF0DE110E0843091F0282F30E084304F
:1044C000F0F40091A5020023D1F00150110B000F70
:1044D000111F000F111F020F131F0F5F1F4F93FFBC
:1044E00010C061E0C8010E94EE0E882309F491CF4C
:1044F0006F2DC8010E94CB13F8128BCFD7CF890143
:10450000ECCF60E0C8010E94EE0E882309F481CF51
:10451000C8010E94E20CF0CF143009F07ACF8091EC
:104520007607682F70E0762F662766277370909164
:104530007707692B6F5F7F4F20E934E04091780760
:104540008C700E94AF1465CF80E00E94040CE09153
:104550007607EF3F61F48091770781115ACF80E0B1
:1045600090E0892B09F455CF0E94000052CFE7FD5F
:104570000DC000917907209178074091770770E08E
:1045800060E08E2F90E00E941D1543CFE03C08F0C4
:1045900058C130919E0237FF3CCF20917707822F80
:1045A00090E08C0100951095000F111F000F111F56
:1045B000007C1170EF730E2B95958795B82FB37013
:1045C000BB2E80917407853041F52C782C3029F56D
:1045D0000E94E40C8017910721F00F3F114009F071
:1045E00018CF8091770790E0982F882788279370BD
:1045F00000917807080F192F111D0F5F1F4FF090C2
:10460000790761E0C8010E94EE0E6F2D882309F43E
:1046100000CFC8010E94CB13FCCE6801F1E0CF1A95
:10462000D108CC0CDD1CCC0CDD1CCB2876012FEF87
:10463000E21AF20A8091B3028823F9F036FF41C0F2
:10464000C70160E071E00E94AF27682F81E090E031
:104650000E94CB13C701F7FE02C081509F4F692F04
:1046600089E090E00E94CB1380E090E0892B19F064
:10467000C7010E9400001092B30280919E0280FD4B
:1046800039C080917407843009F04FC0809177075A
:104690008978813009F0BDCE6091780780E090E0A4
:1046A000892B19F0C7010E94000080E090E0892B5F
:1046B00009F4AFCE409178076B2DC7010E9400002E
:1046C000A8CEB8016F73772781E090E00E94CB13EA
:1046D000B801E6E075956795EA95E1F789E090E025
:1046E0000E94CB1380E090E0892B29F2C8010E9440
:1046F0000000C1CF86FF0DC00E94E40C8E159F05FF
:1047000009F4BFCF3DEFE31637E0F3060CF0B9CF65
:1047100080CE0E94E40C8017910709F4B2CF0F3FBE
:1047200041E0140709F4ADCF74CE833069F54091B0
:104730007707542F5170C52E43FBDD24D0F880E05D
:1047400090E0892B31F047702D2DB801C7010E94F0
:10475000000080919E0286FF0BC080E090E0892BD4
:1047600009F457CE4D2D6C2DC7010E94000051CE8B
:1047700080E090E0892B09F44CCE2D2D4C2D6B2D33
:10478000C8010E94000045CE863009F042CE8091DB
:104790007707982F9978913021F08F78803809F039
:1047A00038CE80919E0286FF28C00E94E40C8E15B0
:1047B0009F05E9F48091780790E0382F222722277F
:1047C000337000917907020F132F111D0F5F1F4FD8
:1047D000F0907A0795958795959587958370992799
:1047E0008230910599F0039709F40BCF12CE8DEF2B
:1047F000E81687E0F806F4F60CCE0E94E40C801769
:104800009107C1F20F3F1140A9F203CEF4FE01CE91
:1048100061E0C8010E94EE0E882309F4FACDC801B8
:104820000E94E20C9F2D977061E070E001C0660F5E
:104830009A95EAF7F3FE02C0682BEBCE60956823E9
:10484000E8CEE83E08F0E5CDE05CFF0B809177070D
:1048500000917A07209179074091780761E070E034
:104860009E2F91CE03ED13E09AE0E92EF12CDD248A
:10487000D39423E6C22E33E0B32E42E0A42E5BE1B4
:10488000352ED8011B968D919C91019709F03FC15F
:10489000F801E654F109808191813296608071803F
:1048A000680E791EF801118A128A16821286158600
:1048B000168617861782108A138A1186158214822B
:1048C0009301359527954801FCE58F1A9108F4016D
:1048D00061E070E086899789A72FA69541E050E0B6
:1048E0004C0F5D1F4A0F511DDA0141E028173907AF
:1048F0000CF040E04C93713248F4408D518D840FA0
:10490000951F8E579109C19708F460E07E5F349639
:10491000743201F7FE013196CE9C9001CF9C300D90
:10492000112445E557E0421B530B90E080E0708175
:1049300071118FC071817111A6C0D401A80FB91F68
:104940001D961C92019632968930910581F7F801E7
:1049500080819181A281B38185519540A109B109DE
:1049600083359B40A105B10508F070C1662309F4A9
:104970006DC181E046E9641671040CF080E0D80155
:1049800051968C93F801EC54F10990813197808114
:10499000B9E08B9F802D1124939D800D11243297B7
:1049A0009081890F31964081942F990F940F890F30
:1049B000F8018683EB54F10946E9641671040CF49E
:1049C00030C181E09081913009F080E0D8011D96DE
:1049D0008C938989880F9F85890F880F9D85890F02
:1049E000880F9B85890F91E009F090E0F801968788
:1049F00091E0813009F090E0D8011F969C938111DD
:104A00008150F80187838289882309F456C08C85F8
:104A1000880F9E85890F880F9889890F880F9A893A
:104A2000890FEEEFE80FEE3008F047C0F0E0E55EEA
:104A3000FA4D0C94E5275025502558255825FD257D
:104A4000FD255D255D2502260226062606260B2667
:104A50000B267130C1F42180A1E02A1206C0DA01D0
:104A6000A80FB91F1D962C926DCF21100CC0D40138
:104A7000A80FB91F1D96AC92853008F463CFD801FA
:104A800052967C935FCF853048F0DA01A80FB91FAA
:104A90001D96BC92D8015296DC9254CF60E057CF5D
:104AA000D8011996AC921997817053968C9305C0D2
:104AB00041E050E0F8015583448389E090E0FAE05A
:104AC000EF16F10411F08E199F09D8011C965C9223
:104AD0004E921B97C89EB001C99E700D1124FB0118
:104AE000E252FC4F80819181029789F46C577C4F90
:104AF00049E050E082E697E0821B930B0E94432935
:104B0000892B29F423E030E0F80134872387F1E092
:104B1000EF1AF1080D591F4FE114F10409F0B1CE5D
:104B2000EEEDF3E090E080E020813181233031052B
:104B300009F094C023E6289F8001299F100D1124BD
:104B4000F801E252FC4F84E090E0918380830C579F
:104B50001C4F0115110509F468CC780125E5E20E1A
:104B6000F11CD701EC91F0E0809180029F01281B9D
:104B70003109C9012130310509F4DDC00CF076C0DE
:104B8000892B09F046CC80917D02D801A45ABF4FF1
:104B90009C91992309F491C0806180937D0290914A
:104BA0007D02D801A85ABF4F8C91823009F4A0C071
:104BB00008F085C0813009F48FC020917D0241E06A
:104BC00050E070E060E0CF010E94340DF801ED5A32
:104BD000FF4F808191818130910509F09FC033960C
:104BE000809180020DE110E021E030E0408170E032
:104BF00060E090E00E94970C0CCCD8011996BC9212
:104C0000199752CFF8015582448257CFD80119968F
:104C1000DC92199749CF44E0F80141878170838B7A
:104C20004CCF8081811112C08F85880F9D85890F9F
:104C3000880F9B85890FD8011A968C9381E09989FA
:104C4000913009F080E0F801808B37CFE5E0F0E0AB
:104C5000D8011C96FC93EE931B9759CF0196ED5902
:104C6000FF4F8A30910509F05FCFDFCB223031054D
:104C700009F4ADC02330310509F0CBCB80E390E0DF
:104C80000E94C40C83FFC5CB80917A02F801E85AD8
:104C9000FF4F9081923009F4FDC008F0E2C09130DE
:104CA00009F4ECC0D7018C9120917A0244E050E0E5
:104CB00070E060E08350990B59C08F7E6ECF8330D7
:104CC00009F1843009F079CFD801AE59BF4F8C91EA
:104CD000882311F1986007C0D801AE59BF4F8C915D
:104CE000882321F0916090937D0267CF9E7FFBCF58
:104CF000D801AE59BF4F8C91882311F09260F3CF49
:104D00009D7FF1CFD801AE59BF4F8C91882311F010
:104D10009460E9CF9B7FE7CF977FE5CF029709F0BB
:104D200078CBF801EA5AFF4F809180020DE110E044
:104D300030E020E05BCF80E390E00E94C40C81FF74
:104D400068CB80917C02F801E85AFF4F9081923045
:104D500041F178F49130C9F0D7018C9120917C0217
:104D600042E050E070E060E08150990B0E94340D09
:104D700050CB933001F1943079F7F801EE59FF4FA1
:104D80009081992311F1886007C0F801EE59FF4F17
:104D90009081992321F0816080937C02DDCF8E7F0A
:104DA000FBCFF801EE59FF4F9081992311F08260FB
:104DB000F3CF8D7FF1CFF801EE59FF4F908199230A
:104DC00011F08460E9CF8B7FE7CF877FE5CF80E369
:104DD00090E00E94C40C82FF1CCB80917B02F80102
:104DE000E85AFF4F9081923031F168F49130B9F078
:104DF000F701808120917B0243E050E070E060E0A9
:104E00008250990BB3CF933001F1943089F7F801B8
:104E1000EE59FF4F9081992311F1886007C0F80186
:104E2000EE59FF4F9081992321F0816080937B029E
:104E3000DFCF8E7FFBCFF801EE59FF4F9081992392
:104E400011F08260F3CF8D7FF1CFF801EE59FF4F63
:104E50009081992311F08460E9CF8B7FE7CF877F22
:104E6000E5CF933009F1943009F01CCFF801EE59E9
:104E7000FF4F9081992311F1886007C0F801EE5926
:104E8000FF4F9081992321F0816080937A020ACFAD
:104E90008E7FFBCFF801EE59FF4F9081992311F0DF
:104EA0008260F3CF8D7FF1CFF801EE59FF4F9081F3
:104EB000992311F08460E9CF8B7FE7CF877FE5CF1F
:104EC0000E94760A809195028823E1F08CE797E0B2
:104ED0000E9415078111A9CA809167079091680700
:104EE000019769F490E080E00E94B50A0E94760A7A
:104EF0008CE797E00E9415078823D1F396CA81E0DA
:104F000090E0F2CF82E897E00E941507811105C07A
:104F100081E090E00E94B50A88CA90E080E0FACF74
:104F200060E08CE797E00E943F0360E082E897E052
:104F30000C943F03E199FECF9FBB8EBBE09A99276B
:104F40008DB30895262FE199FECF9FBB8EBB2DBB5D
:104F50000FB6F894E29AE19A0FBE0196089597FB76
:104F6000072E16F4009407D077FD09D00E94EE2793
:104F700007FC05D03EF4909581959F4F089570955C
:104F800061957F4F0895A1E21A2EAA1BBB1BFD015C
:104F90000DC0AA1FBB1FEE1FFF1FA217B307E40718
:104FA000F50720F0A21BB30BE40BF50B661F771F70
:104FB000881F991F1A9469F7609570958095909550
:104FC0009B01AC01BD01CF010895EE0FFF1F00242E
:104FD000001C0BBE0790F691E02D0994AA1BBB1B89
:104FE00051E107C0AA1FBB1FA617B70710F0A61BE9
:104FF000B70B881F991F5A95A9F780959095BC010A
:10500000CD0108950F931F93CF93DF93869F800167
:10501000879F100D969F100D1124C8010E941E2815
:10502000EC01009729F0A80170E060E00E9450298F
:10503000CE01DF91CF911F910F9108950F931F9390
:10504000CF93DF938230910510F482E090E0E091FD
:105050002508F091260830E020E0B0E0A0E030978D
:1050600099F42115310509F44AC0281B390B243065
:105070003105D8F58A819B816115710589F1FB01A4
:1050800093838283FE0111C040815181028113818B
:1050900048175907E0F04817590799F4109761F03D
:1050A00012960C93129713961C933296CF01DF91B0
:1050B000CF911F910F910895009325081093260812
:1050C000F4CF2115310551F04217530738F0A901EB
:1050D000DB019A01BD01DF01F801C1CFEF01F9CF7A
:1050E0009093260880932508CDCFFE01E20FF31F91
:1050F000819391932250310939832883D7CF20910E
:10510000230830912408232B41F42091120130917F
:10511000130130932408209323082091100130912B
:1051200011012115310541F42DB73EB7409114010D
:1051300050911501241B350BE0912308F0912408B0
:10514000E217F307A0F42E1B3F0B2817390778F05E
:10515000AC014E5F5F4F2417350748F04E0F5F1FBD
:105160005093240840932308819391939FCFF0E0BC
:10517000E0E09CCFCF93DF930097E9F0FC013297FA
:1051800013821282A0912508B0912608ED0130E02B
:1051900020E01097A1F420813181820F931F20918C
:1051A0002308309124082817390709F061C0F093CB
:1051B0002408E0932308DF91CF910895EA01CE17E8
:1051C000DF07E8F54A815B819E0141155105B1F782
:1051D000E901FB83EA8349915991C40FD51FEC176C
:1051E000FD0761F4808191810296840F951FE9018A
:1051F00099838883828193819B838A83F0E0E0E0B6
:1052000012968D919C9113970097B9F52D913C9131
:105210001197CD010296820F931F209123083091A0
:1052200024082817390739F6309751F510922608C7
:1052300010922508B0932408A0932308BCCFD383F1
:10524000C28340815181840F951FC817D90761F42B
:105250004E5F5F4F88819981480F591F518340836A
:105260008A819B81938382832115310509F0B0CF18
:10527000F0932608E09325089ECFFD01DC01C0CF06
:1052800013821282D7CFFB01DC0104C08D91019003
:10529000801921F441505040C8F7881B990B08959C
:1052A000DC0101C06D9341505040E0F7089511E0DA
:1052B000CDE6D1E004C0FE010E94E5272196CE365E
:0852C000D107C9F7F894FFCFF4
:1052C8001D020000000000000000000000000000B7
:1052D8000000270880001D00021D00221E08190872
:1052E80014080F080A0805080008FB07F607F10765
:1052F800EC07E707E207DD07D807D307CE07C9079A
:10530800C407BF07BA07B507B007AB07A607A107C9
:105318009C07970792078D07880700000000800206
:1053280069032202C702530231024502000000004D
:105338002908FC075808D207F507E207D3070D0A22
:02534800000063
:00000001FF
