:100000000C942D010C9417100C94EC0F0C94C10F50
:100010000C94960F0C946B0F0C94400F0C94150FCE
:100020000C94EA0E0C9457010C9457010C94570150
:100030000C9462110C9457010C9457010C945701C5
:100040000C94A00E0C9457010C946A0E0C94400E64
:100050000C9457010C9457010C9457010C945701C0
:100060000C9457010C9457010C9457010C945701B0
:100070000C9457010C9457010C9457010C945701A0
:100080000C9457010C9442100C9457012803000063
:10009000000000060D0000000000000101C080000B
:1000A000000000000000000000060000000000004A
:1000B0000000000000000000000000000000000040
:1000C000000000000000FF3F0000000000000000F2
:1000D0000000000000000000000000000000000020
:1000E0000000000000000000000000000000000010
:1000F000000000000000000000000000010080007F
:1001000002008000030080000400800005008000E1
:1001100006008000070080000800800009008000C1
:100120000A0080000B0080000C0080000D008000A1
:100130000E0080000F008000100080001100800081
:100140001200800013008000140080001500800061
:10015000160080001700800018008000000080005A
:10016000000080000000800000008000000080008F
:100170001980FF001981FF00FF000000FF00000050
:10018000FF000000FF000000FF000000FF00000073
:10019000FF000000FF00000000003A0037003400BC
:1001A000310022006100640000003B00380035008F
:1001B00032002300620065000505050505050505FB
:1001C00002020202020202020707040404040404F9
:1001D00004040707030303030303030307010101E7
:1001E00001010101010606060606060606010204D3
:1001F00008102040800102040810204080081001EF
:10020000020408102040800102010204081020406E
:10021000800480402010080402010102040810201C
:1002200040800000000A0B0C0000000000000104E8
:1002300005060000000000000000000000000000B3
:1002400000000000000000000000000000000000AE
:100250000000000000000000B91211241FBECFEF03
:10026000D0E1DEBFCDBF11E0A0E0B1E0ECE8FFE2FD
:1002700000E00BBF02C007900D92A636B107D9F778
:1002800027E0A6E6B1E001C01D92AA37B207E1F768
:1002900011E0CDE2D1E004C02197FE010E94731667
:1002A000CC32D107C9F70E9483150C94C4170C9463
:1002B00000009C016115710529F06130710571F034
:1002C00080E008958091CB068217130681F090910B
:1002D000CE0681E09217130699F7089581E04091C8
:1002E000CC065091CD064217530751F7F6CF81E067
:1002F000F4CFE82FF0E0EE5EFD4F6083089520918B
:10030000DA06213099F49C01245833402832310513
:10031000C8F0813823E09207A9F09C012C5F33409C
:1003200081E02530310578F080E00895223021F415
:100330009C012C5A3340EACF233059F79C01245DAD
:100340003340E4CF81E008950895883008F5E82F20
:10035000F0E0EE0FFF1FE050FF4F7183608381508C
:10036000873068F4E82FF0E0E854FE4F0C947316E1
:10037000C901D601E401F201F901040210028091E1
:100380006A008C7F482B40936A0089B7816089BFDF
:10039000089580916A00837F440F551F440F551FB5
:1003A000482B40936A0089B78260F1CF80916A0040
:1003B0008F7C74E0440F551F7A95E1F7482B4093EA
:1003C0006A0089B78460E3CF80916A008F7366E02A
:1003D000440F551F6A95E1F7482B40936A0089B78F
:1003E0008860D5CF8AB78C7F482B4ABF89B7806198
:1003F000CECF8AB7837F440F551F440F551F482B1C
:100400004ABF89B78062C3CF8AB78F7C24E0440F8C
:10041000551F2A95E1F7482B4ABF89B78064B7CFAB
:100420008AB78F7396E0440F551F9A95E1F7482BD2
:100430004ABF89B78068ABCFFC01538D448D252F0F
:1004400030E0842F90E0821B930B541710F0CF966E
:10045000089501970895FC01918D828D981761F0A0
:10046000A28DAE0FBF2FB11D5D968C91928D9F5FB7
:100470009F73928F90E008958FEF9FEF0895FC0196
:10048000918D828D981731F0828DE80FF11D858D49
:1004900090E008958FEF9FEF0895FC01918D228DDC
:1004A000892F90E0805C9F4F821B91098F73992761
:1004B0000895FC01A48DA80FB92FB11DA35ABF4FF9
:1004C0002C91848D90E001968F739927848FA68953
:1004D000B7892C93A089B1898C9180648C93938D7A
:1004E000848D981306C00288F389E02D80818F7D6A
:1004F00080830895EF92FF920F931F93CF93DF9322
:10050000EC0181E0888F9B8D8C8D981316C0E88953
:10051000F989808185FF11C0EE89FF896083E889B0
:10052000F98980818064808381E090E0DF91CF91C0
:100530001F910F91FF90EF900895F62E0B8D10E014
:100540000F5F1F4F0F731127E02E8C8D8E110CC083
:100550000FB607FCFACFE889F989808185FFF5CFCE
:10056000CE010E945902F1CFEB8DEC0FFD2FF11D52
:10057000E35AFF4FF0820B8FEA89FB89808180620A
:10058000D2CFCF93DF93EC01888D8823B9F0AA896D
:10059000BB89E889F9898C9185FD03C0808186FD3E
:1005A0000DC00FB607FCF7CF8C9185FFF2CF80818D
:1005B00085FFEDCFCE010E945902E9CFDF91CF91A7
:1005C000089582E392E00E944D0221E0892B09F414
:1005D00020E0822F089580E090E0892B29F00E948E
:1005E000E10281110E94000080E090E0892B49F037
:1005F00080E090E0892B29F00E94000081110C948A
:1006000000000895AF92BF92CF92DF92EF92FF92D7
:100610000F931F93CF93DF936C017B018B01040F2A
:10062000151FEB015E01AE18BF08C017D10759F0C6
:100630006991D601ED91FC910190F081E02DC60108
:100640000995892B79F7C501DF91CF911F910F9102
:10065000FF90EF90DF90CF90BF90AF90089590E023
:10066000FC01EE5DFD4F2491FC01E351FE4F3491FE
:1006700088549E4FFC018491882359F12223C1F0B4
:1006800021502C30A8F4E22FF0E0E75BFC4F0C94F3
:10069000731682038203580355036A036D037003C4
:1006A0005803580374037A037E039FB59F779FBD59
:1006B000E82FF0E0EE0FFF1FE855FE4FA591B49133
:1006C0008FB7F894EC91611121C030953E233C9393
:1006D0008FBF08959FB59F7DEACF9FB5977FE7CFE6
:1006E00095B59F7D95BDE4CF90918B009F779093BA
:1006F0008B00DECF90918B009F7DF9CF90918B0086
:10070000977FF5CF93B79F7D93BFD2CF3E2BDFCF9F
:10071000CF93DF9390E0FC01E351FE4F2491885486
:100720009E4FFC0184918823D1F090E0880F991F9F
:10073000FC01E856FE4FA591B491FC01E855FE4F2F
:10074000C591D49161110EC09FB7F8948C91E22F9E
:10075000E0958E238C932881E223E8839FBFDF916D
:10076000CF9108958FB7F894EC91E22BEC938FBF63
:10077000F6CF3FB7F8948091D7019091D801A0911E
:10078000D901B091DA0122B706B600FE05C02F3FAD
:1007900019F00196A11DB11D3FBFBA2FA92F982FA7
:1007A0008827BC01CD01620F711D811D911D42E0A2
:1007B000660F771F881F991F4A95D1F708950E94E9
:1007C000B9032091690130916A01FB01E21BF30B2F
:1007D0002091F9013091FA01E217F30708F438C1CA
:1007E0002091FB013091FC0170936A0160936901D3
:1007F0004091FD015091FE014130510599F148F0C1
:100800004230510509F4B9C04330510509F4EFC035
:100810000895E217F30708F0D4C0809100028F5FBB
:10082000809300028B3008F413C181E090E0909334
:10083000FE018093FD0141E050E06FED73E0809197
:10084000F3010E94A5011092680182E590E0909367
:10085000FC018093FB0183E290E09093FA01809386
:10086000F9010895409168014130A9F038F0433012
:1008700009F449C0443009F47CC00895E217F30735
:1008800030F491E090936801E0936701089584E06B
:10089000809368010895E217F30798F510926801B4
:1008A000909100029F5F909300028E2FEE0F990BA4
:1008B00020916701821B910927FD939597FF03C043
:1008C00091958195910949970CF4C2C01092FE014F
:1008D0001092FD0182E990E09093FC018093FB016E
:1008E00082E590E09093FA018093F9011092000262
:1008F0004091E10150E06FED73E08091F3010C94C1
:10090000A50183E0C5CFE217F30700F38091E10171
:10091000833061F582E08093E10182E090E0909382
:10092000FE018093FD0182E990E09093FC018093A9
:10093000FB0182E590E09093FA018093F901109217
:100940000202109204021092050210920602109206
:10095000070210920802109209028091000280930F
:1009600003021092000210920102C2CF4093E101F3
:10097000D4CFE217F30788F6A9CF509100025F5F4A
:100980005093000240910102440FE217F307E0F098
:1009900040930102583009F05BC0E0910202E6305A
:1009A000A9F41092FE011092FD0182E990E090936B
:1009B000FC018093FB0182E590E09093FA01809323
:1009C000F9011092000208954160E2CF83E090E0C7
:1009D0009093FE018093FD0181E08E0F80930202CF
:1009E000F0E0E350FE4F8091010287830895E21703
:1009F000F307F8F41092FE011092FD01109200022C
:100A000082E990E09093FC018093FB0182E590E005
:100A10009093FA018093F90188E0E2E0F2E0AAE025
:100A2000B2E001900D928A95E1F781E08093FF0199
:100A3000089580910202863009F4B3CF82E090E0FD
:100A40009093FE018093FD0110920002109201022A
:100A500008958F929F92AF92BF92CF92DF92EF92C2
:100A6000FF924B015C010E94B9036B017C010E9463
:100A7000B9036C197D098E099F09683E7340810591
:100A80009105A8F321E0821A9108A108B10888EE27
:100A9000C80E83E0D81EE11CF11C81149104A1044E
:100AA000B10429F7FF90EF90DF90CF90BF90AF9007
:100AB0009F908F900895CF93C091D00261E08C2FCA
:100AC0000E94880360E08C2F0E942F0361E070E099
:100AD00080E090E00E94290561E08C2F0E942F03A6
:100AE00060E08C2FCF910C94880361E088E00E9435
:100AF0002F0364E070E080E090E00E94290560E050
:100B000088E00C942F030C94750585ED8093740098
:100B10008091740084FDFCCF1092B0010895209163
:100B20008C01260F3327331F21323105ECF420913D
:100B3000B001FC0190E080E0243069F082E008958B
:100B4000A0918C012191AC0144595E4FA40FB52FA7
:100B5000B11D2C930196861798F380918C01680F34
:100B600060938C0180E0089581E0089508958FEFEF
:100B70009FEF08958FEF9FEF089580916B0190E0B4
:100B80009195819591090895CF93DF93CB01EA0167
:100B9000642F0E948F05CE01DF91CF910895CF93EE
:100BA000DF931F92CDB7DEB7698361E0CE01019676
:100BB0000E948F0581E090E00F90DF91CF91089522
:100BC00090E080E008950F931F93CF93DF93FC0193
:100BD0008281813089F040F0823009F47AC0DF915F
:100BE000CF911F910F91089561E08081DF91CF91A6
:100BF0001F910F910C942F030181C02FD0E0108121
:100C000061E0812F0E948803209719F460E0812F12
:100C1000EDCFCF3FD10511F461E0F9CFE12FF0E046
:100C2000EE5DFD4FE491E150EC3008F04DC0F0E096
:100C3000E45EF94F0C9473162806280664062D0608
:100C400033063906410664066406460650065A060F
:100C500083B7806283BF01BFC2CF8FB580688FBD6D
:100C6000DBBDCABDBCCF8FB580628FBDD9BDC8BD4D
:100C7000B6CF8FB588608FBDD0937900C0937800D0
:100C8000AECF85B5806285BD03BDA9CF80918B00B5
:100C9000806880938B00D0938700C09386009FCF9D
:100CA00080918B00806280938B00D0938500C093ED
:100CB000840095CF80918B00886080938B00D093C7
:100CC0008300C09382008BCFC038D1050CF0A4CF35
:100CD0009DCF8181E381F0E0EE5EFD4F80837FCF89
:100CE0000F931F93CF93DF93D62F8C01C0E0CD17C6
:100CF00041F0F801819191918F010E94E305CF5F4E
:100D0000F6CFDF91CF911F910F91089580936601E7
:100D100081E797E00C94E305CF93C82F8091E4011D
:100D20008C1731F081E0C11101C080E00E9486067D
:100D3000C093E401CC2311F12FB7F8948091DB012B
:100D40009091DC01A091DD01B091DE012FBF482F11
:100D5000392F2A2F8B2F4093E5013093E601209302
:100D6000E7018093E8018091E4018C1761F081E054
:100D7000C11101C080E0CF910C94860640E030E0C4
:100D800020E080E0E8CFCF91089580E090E0892BCB
:100D900029F08091F80183FD0C94000008951F93C1
:100DA000CF93DF930FB6F894A89581B5886181BD84
:100DB00011BC0FBEC6E1D1E01FEF89919991FC01F2
:100DC00011830E94E305F1E0C435DF07B1F7DF913D
:100DD000CF911F910895E82FF0E0EE5EFD4F608304
:100DE00008958F929F92AF92BF92CF92DF92EF922F
:100DF000FF920F931F93CF930E94B903AB01BC01E5
:100E00008091E2029091E302A091E402B091E502A8
:100E10008A019B01081B190B2A0B3B0B8091EA02EC
:100E2000882309F47FC08091EC029091EB02E92FB6
:100E3000EE0FFF0BA82F082E000CBB0BC3E68C0295
:100E4000E00DF11D1124E052FD4F178B068B053F7D
:100E500011402105310508F054C09F5F9093EB02CB
:100E60009091EB029332C9F593E69A9F90019B9F74
:100E7000300D112420523D4FF901E45AFF4FC0902C
:100E8000E602D090E702E090E802F090E9024A0121
:100E90005B018C189D08AE08BF0875016401C08213
:100EA000D182E282F38229593F4FE1E0F0E0D9019B
:100EB000ED93FC938F5F8A3094F58093EC02E09180
:100EC000EC02B3E6EB02F0011124E95BFC4F118266
:100ED00010821092EA021092EB024093E2025093C9
:100EE000E3026093E4027093E502CF911F910F91AA
:100EF000FF90EF90DF90CF90BF90AF909F908F903A
:100F000008951092EB0291E09093EA024093E6027A
:100F10005093E7026093E8027093E902A1CF109228
:100F2000EC02CDCF053F114021053105B0F281E043
:100F30008093EA024093E6025093E7026093E8024E
:100F40007093E902CACFFF920F931F93CF93DF9361
:100F5000F62E8C01C0E0CF15F9F0D801ED91FD918E
:100F60008D018281813051F020F0823079F0CF5FA5
:100F7000F2CF60E080810E942F03F9CFD08161E041
:100F80008D2F0E94880360E08D2FF5CFE381F0E084
:100F9000EE5EFD4F1082EBCFDF91CF911F910F914D
:100FA000FF900895CF93DF93EC018C819D81009792
:100FB00019F06B810E94A3078F819885009729F013
:100FC0006E81DF91CF910C94A307DF91CF910895AB
:100FD0000F931F93CF938C01C42F0E945901882334
:100FE000E1F18091CE06482F50E0C03128F58823EA
:100FF00019F12C2F30E08091D8069091D9060C2E53
:1010000002C0969587950A94E2F780FF15C00417F1
:10101000150719F58091D4069091D5060097E9F04F
:10102000220F331F820F931FFC0180819181CF918A
:101030001F910F910C94D2070417150771F080913E
:10104000D4069091D506009741F04C2F50E0440F04
:10105000551F480F591FFA01E8CFCF911F910F91EB
:1010600008951F93CF93DF93EC018A81882359F071
:10107000162F8981861721F0CE010E94D20719838D
:101080008981882331F08C819D81009761F06B818B
:1010900005C08F819885009731F06E81DF91CF91E7
:1010A0001F910C947006DF91CF911F9108950F93BB
:1010B0001F93CF938C01C42F0E945901882309F4F8
:1010C00040C08091CE06482F50E0C03138F58823CB
:1010D00029F12C2F30E08091D8069091D9060C2E62
:1010E00002C0969587950A94E2F780FF17C004170F
:1010F000150739F58091D4069091D506009709F12E
:10110000220F331F820F931F6091D106FC01808153
:101110009181CF911F910F910C94310804171507FD
:1011200081F08091D4069091D506009751F04C2F14
:1011300050E0440F551F480F591F6091D006FA0127
:10114000E6CFCF911F910F9108950E948C06E2EE99
:10115000F1E081E087831086EBEEF1E088E0DF01CB
:101160001D928A95E9F708950C945E16DF92EF922E
:10117000FF920F931F93CF93DF938C017B01D42EAB
:10118000E9010E9459018111D092D2068DE190E0CF
:101190000E94B408D82EB701C8010E9459018823C3
:1011A000C1F08091CE0680171106D9F48091D10646
:1011B0008C171D0671F08091CF06882329F081E0FD
:1011C000CD2B29F080E003C081E0CD2BD9F38093B3
:1011D000D106DF91CF911F910F91FF90EF90DF909B
:1011E00008958091D0068C171D0699F381E0D0FEFA
:1011F00004C0CD2B21F080E002C0CD2BE1F3809321
:10120000D006E7CF1F93CF93DF93EC018091660167
:10121000882359F08FE090E00E94B408182F80E1F5
:1012200090E00E94B408181306C0CE01DF91CF9160
:101230001F910C94B4080E94CF06FFCF0C940209B2
:10124000CF93DF932091F5013091F6012F3F3207C4
:1012500021F0C901DF91CF9108958091F80187FFB6
:101260002BC086FF0FC089E090E00E941E09C82FA6
:1012700081E090E00E941E099C2F9093F6018093DC
:10128000F50115C089E090E00E941E09C82F81E099
:1012900090E00E941E0990E4C99F90011124207CD7
:1012A00031708F73282B3093F6012093F5018091D4
:1012B000F5019091F601CECF85FF0CC081E190E061
:1012C0000E941E09C82F82E190E00E941E09C05CA6
:1012D000DD0BD2CF81E090E00E941E0990E0CDCFDF
:1012E000FF920F931F93CF93DF93EC018B01F22EAC
:1012F0004330510509F471C068F441305105E9F0FB
:101300004230510509F44BC0DF91CF911F910F91ED
:10131000FF9008954530510509F4C7C008F47BC01B
:101320004630510589F740E024FF26C0DF91CF9178
:101330001F910F91FF900C94570840E024FF23C0A9
:101340000E94570841E0B801CE01F0FE1FC00E9484
:10135000570842E0B801CE01F1FE1BC00E945708B9
:1013600043E0B801CE01F2FE17C00E94570844E0E6
:10137000B801CE01F3FCDACFDF91CF911F910F912D
:10138000FF900C94E8070E94E807DCCF0E94E80772
:10139000E0CF0E94E807E4CF0E94E807E8CF45E0ED
:1013A00020FF12C00E94570846E0B801CE01F1FEAE
:1013B0000EC00E94570847E0B801CE01F2FE0AC0F5
:1013C0000E94570848E0D4CF0E94E807EDCF0E9462
:1013D000E807F1CF0E94E807F5CF49E020FF12C0EF
:1013E0000E9457084AE0B801CE01F1FE0EC00E94EB
:1013F00057084BE0B801CE01F2FE0AC00E94570820
:101400004CE0B6CF0E94E807EDCF0E94E807F1CF8D
:101410000E94E807F5CF4DE020FF32C00E94570838
:101420004EE0B801CE01F1FE2EC00E9457084FE0F9
:10143000B801CE01F2FE2AC00E94570840E1B8016F
:10144000CE01F3FE26C00E94570841E1B801CE014B
:10145000F4FE22C00E94570842E1B801CE01F5FE19
:101460001EC00E94570843E1B801CE01F6FE1AC023
:101470000E94570844E1B801CE01F7FE7DCF56CF58
:101480000E94E807CDCF0E94E807D1CF0E94E8076D
:10149000D5CF0E94E807D9CF0E94E807DDCF0E9490
:1014A000E807E1CF0E94E807E5CF45E120FF2EC025
:1014B0000E94570846E1B801CE01F1FE2AC00E9401
:1014C000570847E1B801CE01F2FE26C00E94570836
:1014D00048E1B801CE01F3FE22C00E94570849E15D
:1014E000B801CE01F4FE1EC00E9457084AE1B801BF
:1014F000CE01F5FE1AC00E9457084BE1B801CE019B
:10150000F6FE16C00E9457084CE1B5CF0E94E807CE
:10151000D1CF0E94E807D5CF0E94E807D9CF0E941B
:10152000E807DDCF0E94E807E1CF0E94E807E5CF9A
:101530000E94E807E9CFCF93C82F81E090E00E9496
:10154000B4082C2F42E050E070E060E090E00E9490
:10155000700981E090E00E94B4082C2F30E094E004
:10156000359527959A95E1F743E050E070E060E00B
:1015700090E0CF910C947009CF938230910511F1D6
:10158000C62F8330910520F4019779F0CF9108950B
:1015900083309105D9F00497C9F781E090E00E946B
:1015A000B4082C2F45E050E007C081E090E00E9495
:1015B000B4082C2F41E050E070E060E090E0CF9163
:1015C0000C947009862FCF910C949B0A81E090E0D7
:1015D0000E94B4082C2F44E050E0EECF0F931F93ED
:1015E000CF93C82F81E090E00E94B4080FE710E08D
:1015F00021E030E04C2F70E060E090E00E94B608FF
:10160000CF911F910F9108950F931F93CF93613046
:10161000710529F4CF911F910F910C94EE0AC82FF8
:1016200081E090E00E94B4080FE710E030E020E095
:101630004C2F70E060E090E00E94B608CF911F91BF
:101640000F910895CF93863823E0920719F130F473
:1016500081389340D1F08FEFCF910895873823E000
:101660009207D9F088389340B1F786E893E00E945A
:10167000B408C82F87E893E00E94B40890E02FEFE9
:10168000C29F800D911D112402C081E893E0CF918B
:101690000C94B40886E893E0FACF87E893E0F7CF9C
:1016A0001F93CF93DF93D0E0C0E0FE01E457FF4FDC
:1016B0001491CE010E945E16181721F0612FCE0101
:1016C0000E9466162196CC3081E0D80771F781E838
:1016D00093E00E945E16813029F061E081E893E09A
:1016E0000E946616DF91CF911F910C94CF061F9335
:1016F000CF93DF93EC01162F089779F4662319F145
:101700000E94500B80E090E0892BB9F0612FCE0150
:10171000DF91CF911F910C94000080E090E0892B25
:10172000A9F781E0C11590E1D90708F080E0111117
:1017300005C0DF91CF911F91089581E027972297EF
:10174000C0F780E0F6CF80E090E0892BF9F681E0E9
:10175000F0CF1F93CF93DF93EC01162F0E945E16FC
:10176000181721F0612FCE010E946616CE01DF917D
:10177000CF911F910C94B408CF93DF93863823E068
:10178000920739F138F481389340E9F08FEFDF9117
:10179000CF910895873823E09207F1F0883893407D
:1017A000A9F7C62F86E893E00E94B408D82F87E8EF
:1017B00093E00E94B40890E06C2F2FEFD29F800D31
:1017C000911D112402C081E893E0DF91CF910C9428
:1017D000A90B86E893E0F9CF87E893E0F6CF0F9363
:1017E0001F93CF93DF9320916601222329F08F303E
:1017F000910541F48FE090E0DF91CF911F910F911F
:101800000C94A90B162FEC018FE090E00E94B40815
:10181000082F80E190E00E94B40808130DC0C73083
:10182000D10531F0C830D10521F4183031F0FFCFA7
:10183000FFCF612FCE01E0CFFFCF0E94500B88E099
:10184000DF91CF911F910F9108958331910588F415
:101850008131910530F48130910519F0893091057D
:1018600031F42FEF3FEF3093F6012093F5010C9404
:10187000EF0B8D319105D9F7677F6093F8012091C7
:10188000E2012F73362F307C232B2093E201E9CF26
:10189000CF93DF93EDEFF1E085E1DF011D928A95B3
:1018A000E9F782E990E09093FC018093FB0182E5E7
:1018B00090E09093FA018093F901C2EED1E081E0CB
:1018C000888319828FEF9FEF9C8B8B8B1D8A83E01F
:1018D0008093E10143E050E06FED73E089890E945D
:1018E000A5018DE190E00E941E09682F6F738DE1C4
:1018F00090E00E94250C8E8B6AE087E090E00E94C9
:10190000250C6DE088E090E00E94250C80E0DF91DE
:10191000CF910C94A5088091DF019091E001813076
:10192000910581F118F00297E1F1089580E390E0CC
:101930000E94020980FF1DC089B78F7789BF84EAA2
:1019400091E090930F0180930E0181EF96E09093C8
:101950000F0180930E018AB78F7380648ABF89B7A5
:10196000806889BF81E090E09093E0018093DF017F
:1019700008958DE190E00E94020982FF20C082E07C
:1019800090E0F2CF89B78F7789BF84EA91E0909396
:101990000F0180930E018DE190E00E94020982FD0B
:1019A000EECF87E08093F3018093F40160E00E9422
:1019B00088030E94480C1092E0011092DF01089504
:1019C000BF92CF92DF92EF92FF920F931F93CF932C
:1019D000DF938B01B42E690182FF23C083FF17C000
:1019E00061E0C8010E94770B8823D9F16B2DC801F3
:1019F0000E94250C8B1135C0F601DF91CF911F910C
:101A00000F91FF90EF90DF90CF90BF90099460E02E
:101A1000C8010E94770B882321F1C8010E941E098A
:101A2000E9CF842F8770C1E0D0E07E0101C0EE0CC9
:101A30008A95EAF7D42FD870CB010E941E09C82FCF
:101A4000B4FE1CC061E0C8010E94770B882349F0F6
:101A5000DD2389F0CE296C2FC8010E94250C8C173C
:101A600059F2DF91CF911F910F91FF90EF90DF908E
:101A7000CF90BF900895E094CE21EDCF60E0C801F3
:101A80000E94770B882369F3CE21DD2319F0C11161
:101A9000B3CFE7CFCC2309F4AFCFE3CFCF92DF9220
:101AA000EF92FF920F931F93CF93DF937C016B0113
:101AB000C42F122FD42FD07E8091E20187FF2CC03B
:101AC000D03EC1F58091E3018823A1F190E00E940E
:101AD0001E09D82F8091E30190E001960E941E0913
:101AE000982F8D2FE816F90629F56C2F70E0762FC8
:101AF000662766277370612B6F5F7F4F25EC36E09A
:101B0000402F8C2FDF91CF911F910F91FF90EF907D
:101B1000DF90CF900C94E00C80FD32C0D03609F4F9
:101B200064C088F4D03209F447C0D03409F45DC0F1
:101B3000DD2379F1DF91CF911F910F91FF90EF900D
:101B4000DF90CF900895D03A09F483C090F42C2F01
:101B50002F7141E050E0D03869F7B601C701DF913D
:101B6000CF911F910F91FF90EF90DF90CF900C9449
:101B70007009D03C09F476C0D03E09F4B6CFDACF74
:101B80000E9420098E159F0549F2E114F10431F2FB
:101B9000D1CF8C2F8E7071F680E090E0892B51F2BE
:101BA0008C2F8170DF91CF911F910F91FF90EF905B
:101BB000DF90CF900C940000CF71CF3109F0BACFF5
:101BC000412F4F7771F0413071F0111F1127111F14
:101BD000212F30E00FE710E0B601C7010E94B608E0
:101BE000A9CF41E0F2CF40E0F0CF2C2F30E08C2F96
:101BF0008F71813029F030F0803121F08131F9F49A
:101C000040E001C041E025FB222720F90DE110E072
:101C100030E0B601C7010E94B60880E090E0892B51
:101C200009F488CF4C2FB601C701DF91CF911F91E6
:101C30000F91FF90EF90DF90CF900C940000C901BE
:101C4000880F991F8E71C4FB442740F9482B4250DE
:101C5000DACF2C2F2F7043E050E0C4FF7ECF42E05C
:101C600050E07BCFCF71CE3139F0CF3109F062CF68
:101C7000212F45E050E071CF212F44E050E06DCF9F
:101C80001F920F920FB60F9211240BB60F922F9343
:101C90003F934F935F936F937F938F939F93AF93F4
:101CA000BF93EF93FF9382E392E00E945902FF916A
:101CB000EF91BF91AF919F918F917F916F915F91C4
:101CC0004F913F912F910F900BBE0F900FBE0F9031
:101CD0001F9018951F920F920FB60F9211240BB6FA
:101CE0000F922F938F939F93EF93FF93E091420274
:101CF000F09143028081E0914802F091490282FD17
:101D00001DC0908180914B028F5F8F7320914C0298
:101D1000821741F0E0914B02F0E0EE5CFD4F958FB1
:101D200080934B02FF91EF919F918F912F910F9094
:101D30000BBE0F900FBE0F901F9018958081F2CFB1
:101D40001F920F920FB60F9211242F933F938F93F0
:101D50009F93AF93BF938091DB019091DC01A091A1
:101D6000DD01B091DE013091D60123E0230F2D3744
:101D700068F126E8230F0296A11DB11D2093D6011C
:101D80008093DB019093DC01A093DD01B093DE0131
:101D90008091D7019091D801A091D901B091DA0139
:101DA0000196A11DB11D8093D7019093D801A093F6
:101DB000D901B093DA01BF91AF919F918F913F917B
:101DC0002F910F900FBE0F901F9018950196A11D97
:101DD000B11DD4CF1F920F920FB60F9211240BB6E4
:101DE0000F922F933F934F935F936F937F938F93B4
:101DF0009F93AF93BF93EF93FF93E0910E01F09108
:101E00000F010995FF91EF91BF91AF919F918F9134
:101E10007F916F915F914F913F912F910F900BBEEA
:101E20000F900FBE0F901F9018951F920F920FB634
:101E30000F9211240BB60F922F933F934F935F9302
:101E40006F937F938F939F93AF93BF93EF93FF9382
:101E5000E0910C01F0910D010995FF91EF91BF9177
:101E6000AF919F918F917F916F915F914F913F9132
:101E70002F910F900BBE0F900FBE0F901F901895D3
:101E80001F920F920FB60F9211240BB60F922F9341
:101E90003F934F935F936F937F938F939F93AF93F2
:101EA000BF93EF93FF93E0910A01F0910B01099525
:101EB000FF91EF91BF91AF919F918F917F916F9122
:101EC0005F914F913F912F910F900BBE0F900FBEDE
:101ED0000F901F9018951F920F920FB60F9211241A
:101EE0000BB60F922F933F934F935F936F937F9314
:101EF0008F939F93AF93BF93EF93FF93E09108016C
:101F0000F09109010995FF91EF91BF91AF919F91D8
:101F10008F917F916F915F914F913F912F910F9092
:101F20000BBE0F900FBE0F901F9018951F920F922F
:101F30000FB60F9211240BB60F922F933F934F932E
:101F40005F936F937F938F939F93AF93BF93EF9321
:101F5000FF93E0910601F09107010995FF91EF9140
:101F6000BF91AF919F918F917F916F915F914F91B1
:101F70003F912F910F900BBE0F900FBE0F901F90AF
:101F800018951F920F920FB60F9211240BB60F9255
:101F90002F933F934F935F936F937F938F939F9371
:101FA000AF93BF93EF93FF93E0910401F09105018C
:101FB0000995FF91EF91BF91AF919F918F917F9183
:101FC0006F915F914F913F912F910F900BBE0F90AA
:101FD0000FBE0F901F9018951F920F920FB60F9281
:101FE00011240BB60F922F933F934F935F936F93F0
:101FF0007F938F939F93AF93BF93EF93FF93E09162
:102000000201F09103010995FF91EF91BF91AF910A
:102010009F918F917F916F915F914F913F912F9100
:102020000F900BBE0F900FBE0F901F9018951F9230
:102030000F920FB60F9211240BB60F922F933F936E
:102040004F935F936F937F938F939F93AF93BF93C0
:10205000EF93FF93E0910001F09101010995FF9149
:10206000EF91BF91AF919F918F917F916F915F9110
:102070004F913F912F910F900BBE0F900FBE0F907D
:102080001F9018951F920F920FB60F9211240BB646
:102090000F922F933F934F935F936F937F938F9301
:1020A0009F93AF93BF93EF93FF9380917100887FCD
:1020B000803609F44DC008F040C0883209F4A7C04A
:1020C00028F5803109F49BC0C8F4882309F4F7C0CF
:1020D000883009F494C0FF91EF91BF91AF919F9127
:1020E0008F917F916F915F914F913F912F910F90C1
:1020F0000BBE0F900FBE0F901F901895883109F4FA
:1021000086C0803241F78093AF0114C0803409F457
:102110009BC040F48033B9F38833E9F68093AF0174
:1021200085ECAEC0803509F483C0883509F494C0CD
:10213000883489F60E948505CECF883909F48AC093
:1021400038F5883729F050F4883611F0803719F6C1
:1021500083E08093B0011092AE0155C0883809F435
:1021600079C0803919F0803809F0B5CF8091AE017F
:10217000803208F06FC0E091AE0181E08E0F809355
:10218000AE0180917300F0E0E257FE4F80833BC0C8
:10219000803B39F0D0F4803A09F477C0883A09F0EE
:1021A0009ACF84E08093B00110928D0110928C013F
:1021B000F0E0E0E0099580918C0181110FC081E091
:1021C00080938C0110926C0109C0803C09F4A8CF67
:1021D000883C09F4A5CF883B09F07DCFE0918D01C3
:1021E00081E08E0F80938D01F0E0E459FE4F8081F5
:1021F0008093730090918D0180918C0129C0809112
:10220000D5018093730085EC8093740064CF909126
:10221000D4018091D301981758F5E091D40181E061
:102220008E0F8093D401F0E0ED54FE4F8081E9CF12
:10223000E091D40181E08E0F8093D40180917300EE
:10224000F0E0ED54FE4F80839091D4018091D30152
:102250009817C8F285E8D8CFE091D40181E08E0FBD
:102260008093D40180917300F0E0ED54FE4F8083A1
:102270008091B20181115ECF81E08093B10184EA47
:10228000809374001092B00126CF85EC8093740087
:102290001092B0018091AE01803230F4E091AE0135
:1022A000F0E0E257FE4F10826091AE0170E08EE8E0
:1022B00091E0F0E0E0E009951092AE010CCF1092B1
:1022C000AF0138CF1F920F920FB60F9211248F9348
:1022D0009F9378948091310290913002891708F091
:1022E000E9C0AF9A90912F02891708F0E5C0AD9A26
:1022F00090912E02891708F0E1C0909162009460DD
:102300009093620090912D02891708F0DBC09091A4
:10231000620091609093620090912C02891708F0FE
:10232000D5C09091620098609093620090912B02CA
:10233000891708F0CFC0909162009061909362007D
:1023400090912A02891708F0C9C0909162009260AA
:102350009093620090912902891708F0C3C01A9ADD
:1023600090912802891708F0BFC01B9A909127020C
:10237000891708F0BBC01C9A90912602891708F0B3
:10238000B7C01D9A90912502891708F0B3C09091AB
:10239000620090629093620090912402891708F085
:1023A000ADC0959A90912302891708F0A9C0909129
:1023B000650098609093650090912202891708F05B
:1023C000A3C0C79A90912102891708F09FC0C69AAE
:1023D00090912002891708F09BC0C59A90911F0226
:1023E000891708F097C0C49A90911E02891708F0C7
:1023F00093C09091650094609093650090911D0248
:10240000891708F08DC0AB9A90911C02891708F0CB
:1024100089C0DF9A90911B02891708F085C0DE9A67
:1024200090911A02891708F081C0DD9A90911902E3
:10243000891708F07DC0DC9A90911802891708F07E
:1024400079C0DB9A90911702891708F075C0AC9A91
:1024500090911602891708F071C090916500916003
:102460009093650090911502891708F06BC09091C8
:10247000650092609093650090911402891708F0AE
:1024800065C0A89A90911302891708F061C0A99AB3
:1024900090911202891708F05DC0AA9A80913102CA
:1024A0008F5F809331029F918F910F900FBE0F909D
:1024B0001F901895AF9816CFAD981ACF90916200E3
:1024C0009B7F1ECF909162009E7F24CF90916200EF
:1024D000977F2ACF909162009F7E30CF90916200CB
:1024E0009D7F36CF1A983CCF1B9840CF1C9844CF85
:1024F0001D9848CF909162009F7D4CCF959852CF08
:1025000090916500977F56CFC7985CCFC69860CFF3
:10251000C59864CFC49868CF909165009B7F6CCFBD
:10252000AB9872CFDF9876CFDE987ACFDD987ECFEA
:10253000DC9882CFDB9886CFAC988ACF90916500EB
:102540009E7F8ECF909165009D7F94CFA8989ACF63
:10255000A9989ECFAA98A2CFCF93DF93EC0161E018
:1025600088810E94880360E08881DF91CF910C947C
:102570002F036F927F928F929F92AF92BF92CF92D2
:10258000DF92EF92FF920F931F93CF93DF931092FE
:1025900035021092340288EE93E0A0E0B0E0809320
:1025A000360290933702A0933802B093390288E53F
:1025B00091E0909333028093320280E990E090930F
:1025C0003F0280933E0289E290E090934102809323
:1025D00040028BE290E090934302809342028AE2B1
:1025E00090E0909345028093440285E990E09093B7
:1025F0004702809346028CE290E0909349028093D8
:10260000480210924B0210924C0210924D0210920E
:102610004E028EE1D82ED0927107C2E0C0937307AC
:1026200010927407DFEFD09372071092750781E75D
:1026300097E00E94AC121DE110936C07C0936E07E7
:10264000FF24F394F0926F07D0936D0710927007F8
:102650008CE697E00E94AC129CE1C92EC0926707FD
:10266000C0936907C0936A07D093680710926B07FD
:1026700087E697E00E94AC122BE1B22EB09262077F
:10268000C093640733E0832E80926507D09363077D
:102690001092660782E697E00E94AC124AE1A42EEF
:1026A000A0925D07C0935F0754E0752E709260079B
:1026B000D0935E07109261078DE597E00E94AC12FF
:1026C00080E280935807C0935A0765E0662E6092B7
:1026D0005B07D093590710925C0788E597E00E944A
:1026E000AC1289E280935307C093550776E0E72E3A
:1026F000E0925607D09354071092570783E597E06E
:102700000E94AC1288E280934E07C093500787E086
:1027100080935107D0934F07109252078EE497E0B1
:102720000E94AC1287E280934907C0934B0788E070
:1027300080934C07D0934A0710924D0789E497E0A5
:102740000E94AC1286E280934407C093460789E05A
:1027500080934707D09345071092480784E497E099
:102760000E94AC1285E280933F07C09341070AE0C4
:1027700000934207D0934007109243078FE397E0FE
:102780000E94AC128FE180933A07C0933C078BE024
:1027900080933D07D0933B0710923E078AE397E072
:1027A0000E94AC1284E280933507C0933707ECE0B7
:1027B0009E2E90923807D09336071092390785E302
:1027C00097E00E94AC1290923007C0933207FDE070
:1027D0009F2E90923307D09331071092340780E3F5
:1027E00097E00E94AC1290922B07C0932D07AEE0A9
:1027F0009A2E90922E07D0932C0710922F078BE2DF
:1028000097E00E94AC1290922607C0932807BFE081
:102810009B2E90922907D093270710922A0786E2D1
:1028200097E00E94AC1290922107C093230780E1A9
:10283000982E90922407D09322071092250781E2C8
:1028400097E00E94AC1290921C07C0931E0781E192
:1028500080931F07D0931D07109220078CE197E00B
:102860000E94AC1297E1992E90921707C093190716
:1028700082E180931A07D093180710921B0787E113
:1028800097E00E94AC1282E380931207C093140772
:1028900083E180931507D09313071092160782E106
:1028A00097E00E94AC1260920D07C0930F0784E17D
:1028B00080931007D0930E07109211078DE097E0D8
:1028C0000E94AC1270920807C0930A0785E18093BA
:1028D0000B07D093090710920C0788E097E00E943D
:1028E000AC1280920307C093050786E18093060728
:1028F000D09304071092070783E097E00E94AC1280
:10290000C093FE06C093000790920107D093FF0684
:10291000109202078EEF96E00E94AC128EE2809336
:10292000F906C093FB0688E18093FC06D093FA0673
:102930001092FD0689EF96E00E94AC1281E380932D
:10294000F406C093F60689E18093F706D093F50666
:102950001092F80684EF96E00E94AC1280E3809318
:10296000EF06C093F106A092F206D093F006109203
:10297000F3068FEE96E00E94AC128DE28093EA0699
:10298000C093EC06B092ED06D093EB061092EE06E3
:102990008AEE96E00E94AC128FE28093E506C09327
:1029A000E706C092E806D093E6061092E90685EEA7
:1029B00096E00E94AC1281E28093E006C093E206AA
:1029C0001093E306D093E1061092E40680EE96E0C1
:1029D0000E94AC1283E28093DB06C093DD06D092A6
:1029E000DE06D093DC061092DF068BED96E00E94A7
:1029F000AC12E092CF020093D00260E086E00E9429
:102A0000880360E08AE00E94880383E190E00E94EE
:102A1000B408C82F82E190E00E94B408D82F81E169
:102A200090E00E94B408082F81E090E00E94B40872
:102A3000F092D006F092D1061092D2061092D706EC
:102A40001092D6068093CB06202F205C330BC90151
:102A50002D2F382FC9019093CD068093CC06CF77C8
:102A6000C093CE061092CF061093D30662E070E0BA
:102A70008DE190E00E947C169093D5068093D40659
:102A80000097B1F0EC0110E001E089E090E00E94D5
:102A90009816FC0101831282138215821482168219
:102AA000108617821083899399931F5F1D3169F7F0
:102AB0001092E2021092E3021092E4021092E502F8
:102AC0001092E6021092E7021092E8021092E902D8
:102AD0001092EA021092EB021092EC0287E090E072
:102AE0009093E1028093E002DF91CF911F910F91CB
:102AF000FF90EF90DF90CF90BF90AF909F908F901E
:102B00007F906F900895789483B78C6483BF87B764
:102B1000816087BF82E08EBD8EB581608EBD8FB52E
:102B200081608FBD85B5846085BD85B5806485BDB8
:102B300080918A00836080938A0080918B008160FD
:102B400080938B0087E886B91AB80FB6F894A895D9
:102B500081B5886181BD11BC0FBE2FB7F89490E09C
:102B600080E0FC01EE5EFD4F108201968F319105F1
:102B7000C1F7AF98AD98809162008B7F809362001F
:102B8000809162008E7F8093620080916200877FD7
:102B900080936200809162008F7E809362008091BA
:102BA00062008D7F809362001A981B981C981D9874
:102BB000809162008F7D809362009598809165007E
:102BC000877F80936500C798C698C598C498809100
:102BD00065008B7F80936500AB98DF98DE98DD9869
:102BE000DC98DB98AC98809165008E7F80936500BF
:102BF000809165008D7F80936500A898A998AA9818
:102C00002FBF9FB7F894A79AA59A8091610084601E
:102C10008093610080916100816080936100809168
:102C20006100886080936100809161008061809381
:102C3000610080916100826080936100129A139A12
:102C4000149A159A809161008062809361008D9A38
:102C500080916400886080936400BF9ABE9ABD9A98
:102C6000BC9A80916400846080936400A39AD79A90
:102C7000D69AD59AD49AD39AA49A80916400816006
:102C80008093640080916400826080936400A09AC5
:102C9000A19AA29A9FBF1FBC89E08EBD81E194E0FA
:102CA0009BBD8ABD87B7806187BF1092310261E00A
:102CB00088E00E9488030E94CF06FFCFE199FECFF3
:102CC0009FBB8EBBE09A99278DB30895262FE1997B
:102CD000FECF9FBB8EBB2DBB0FB6F894E29AE19A54
:102CE0000FBE01960895EE0FFF1F0024001C0BBEBF
:102CF0000790F691E02D09940F931F93CF93DF93E4
:102D0000869F8001879F100D969F100D1124C8018A
:102D10000E949816EC01009729F0A80170E060E08D
:102D20000E94BD17CE01DF91CF911F910F910895A1
:102D30000F931F93CF93DF938230910510F482E0BD
:102D400090E0E0917807F091790730E020E0B0E082
:102D5000A0E0309799F42115310509F44AC0281BE9
:102D6000390B24303105D8F58A819B8161157105B5
:102D700089F1FB0193838283FE0111C0408151815F
:102D80000281138148175907E0F04817590799F451
:102D9000109761F012960C93129713961C9332962B
:102DA000CF01DF91CF911F910F9108950093780784
:102DB00010937907F4CF2115310551F042175307CD
:102DC00038F0A901DB019A01BD01DF01F801C1CF93
:102DD000EF01F9CF9093790780937807CDCFFE016B
:102DE000E20FF31F81939193225031093983288395
:102DF000D7CF2091760730917707232B41F420918C
:102E000012013091130130937707209376072091B8
:102E10001001309111012115310541F42DB73EB754
:102E20004091140150911501241B350BE091760758
:102E3000F0917707E217F307A0F42E1B3F0B28173A
:102E4000390778F0AC014E5F5F4F2417350748F023
:102E50004E0F5F1F509377074093760781939193AE
:102E60009FCFF0E0E0E09CCFCF93DF930097E9F0B5
:102E7000FC01329713821282A0917807B0917907F2
:102E8000ED0130E020E01097A1F420813181820F24
:102E9000931F20917607309177072817390709F09B
:102EA00061C0F0937707E0937607DF91CF910895A3
:102EB000EA01CE17DF07E8F54A815B819E014115E3
:102EC0005105B1F7E901FB83EA8349915991C40F98
:102ED000D51FEC17FD0761F4808191810296840F64
:102EE000951FE90199838883828193819B838A83DB
:102EF000F0E0E0E012968D919C9113970097B9F560
:102F00002D913C911197CD010296820F931F209134
:102F10007607309177072817390739F6309751F53A
:102F20001092790710927807B0937707A0937607ED
:102F3000BCCFD383C28340815181840F951FC817B2
:102F4000D90761F44E5F5F4F88819981480F591FFF
:102F5000518340838A819B8193838283211531052C
:102F600009F0B0CFF0937907E09378079ECFFD0189
:102F7000DC01C0CF13821282D7CFDC0101C06D9378
:0C2F800041505040E0F70895F894FFCF56
:102F8C00A401000000000000000000000000000090
:102F9C0000007A07800071076C07670762075D07FE
:102FAC00580753074E07490744073F073A073507A9
:102FBC0030072B07260721071C07170712070D07D9
:102FCC0008070307FE06F906F406EF06EA06E5060F
:102FDC00E006DB06000000007A0202031C02C102BC
:062FEC004D022B023F0222
:00000001FF
