:100000000C946E010C9430190C9405190C94DA18A8
:100010000C94AF180C9484180C9459180C942E1846
:100020000C9403180C9498010C9498010C9498016A
:100030000C947F1A0C9498010C9498010C949801DC
:100040000C94B9170C9498010C9498010C94980195
:100050000C9498010C9498010C9498010C949801BC
:100060000C9498010C9498010C9498010C949801AC
:100070000C9498010C9498010C9498010C9498019C
:100080000C9498010C945B190C9498013E030000A9
:100090000000000A0D0000000000000101C0800007
:1000A000000000000000000000060000000000004A
:1000B0000000000000000000000000000000000040
:1000C000000000000000FF3F0000000000000000F2
:1000D0000000000000000000000000000000000020
:1000E0000000000000000000000000000000000010
:1000F000000000000000000000000000010080007F
:1001000002008000030080000400800005008000E1
:1001100006008000070080000800800009008000C1
:100120000A00FF000B00FF000C00FF000D00FF00A5
:100130000E00FF000F00FF001000FF001100FF0085
:100140001200FF001300FF001400FF001500FF0065
:100150001600FF001700FF001800FF0000008000DD
:10016000000080000000800000008000000080008F
:100170001980FF001981FF00FF000000FF00000050
:10018000FF000000FF000000FF000000FF00000073
:10019000FF000000FF000000FF0000000000000062
:1001A000000000000000000000000000000000004F
:1001B00000000000000000000000003A003700349A
:1001C00000310022006100640000003B003800356F
:1001D0000032002300620065007000740078007C2B
:1001E000008000840088008C009000940098009C9F
:1001F00000A000A400A800AC00B000B400B800BC8F
:1002000000C000C400C800CC00D000D400D800DC7E
:1002100000E000E400E800EC00F000F400F800FC6E
:10022000000001040108010C010000390036003310
:1002300000300021002000630005050505050505C7
:100240000502020202020202020707040404040477
:100250000404040707030303030303030307010163
:100260000101010101010606060606060606010255
:10027000040810204080010204081020408008106B
:10028000010204081020408001020102040810202D
:10029000408004804020100804020101020408107C
:1002A0002040800000000A0B0C000000000000014C
:1002B000040506000000000000000000000000002F
:1002C000000000000000000000000000000000002E
:1002D0000000000000000000E81BB12711241FBE31
:1002E000CFEFD0E1DEBFCDBF11E0A0E0B1E0E6ECA2
:1002F000F2E500E00BBF02C007900D92AC36B107EB
:10030000D9F727E0ACE6B1E001C01D92AA37B207E9
:10031000E1F711E0CDE6D1E004C02197FE010E9493
:10032000E427CC36D107C9F70E947B1E0C945629CE
:100330000C94000020918C0281E0213208F044C02E
:10034000809168028111FCCF80918B0292E09093A2
:10035000680291E0909367029FEF9093660210927B
:10036000650220936402ABE6B2E0E4E4F2E090E0E0
:10037000291331C01092430290914302880F892BB8
:100380008093430280914202813049F510924202EB
:1003900080914302809373008091740083FDF8CFB5
:1003A00085EC80937400809168028230E1F3809143
:1003B00066028F3FB1F0809166028032A1F0809199
:1003C0006602803391F084E010926A0210928C02EF
:1003D0001092690208953D9131939F5FC9CF85EED8
:1003E000E0CF80E0F1CF82E0EFCF83E0EDCF20914E
:1003F000C0063091C1062115310549F090E0880F03
:10040000991F820F931FFC0180819181089590E0D4
:1004100080E008959C016115710529F06130710536
:1004200071F080E008958091B5068217130681F07F
:100430009091B80681E09217130699F7089581E02C
:100440004091B6065091B7064217530751F7F6CFC1
:1004500081E0F4CFFF920F931F93CF93DF938C0132
:10046000F42EE9010E940A028823B1F08091B806B7
:100470008017110619F58091BC069091BD068C1766
:100480009D0751F08091B906882399F0219751F486
:100490001092BD061092BC06DF91CF911F910F9173
:1004A000FF90089581E090E09093BD068093BC0694
:1004B000F3CFD093BD06C093BC06EECF8091BA06B1
:1004C0009091BB06C817D90739F3F0FE0EC02197EB
:1004D00029F41092BB061092BA06DECF81E090E0BC
:1004E0009093BB068093BA06D7CFD093BB06C09338
:1004F000BA06D2CF089581E080933A020895E09140
:10050000F901F091FA01309729F010926A021092E5
:100510008C0209940895CF93DF93AC01E091FB0125
:10052000F091FC013097F1F09091F8018091F70182
:100530009817C0F090E0292F30E02617370754F4C1
:10054000D901AC58BE4F240F351FE90128812C93E7
:100550009F5FF1CF1092F8016093F701CB01DF911B
:10056000CF910994DF91CF910895DC011296ED911E
:10057000FC91139711969C911197808161110EC087
:100580009095982390831496ED91FC911597908106
:1005900011968C918095892380830895623061F44F
:1005A0009095982390831496ED91FC9115978081F6
:1005B00011969C91892BF0CF982B908308958150B0
:1005C0008C3088F5E82FF0E0E851FD4F0C94E427DB
:1005D000100310031303F402F802FB02FE021303DC
:1005E0001303020308030C038FB58F778FBD0895A3
:1005F0008FB58F7DFBCF8FB5877FF8CF85B58F7D8A
:1006000085BD089580918B008F7780938B0008952E
:1006100080918B008F7DF9CF80918B00877FF5CF04
:1006200083B78F7D83BF08951F93CF93DF93282FC8
:1006300030E0F901ED55FD4F8491F901E259FD4F8C
:10064000D491F901E75CFD4FC491CC23A9F0162F9A
:1006500081110E94DF02EC2FF0E0EE0FFF1FE75345
:10066000FE4FA591B4918FB7F894EC91111108C089
:10067000D095DE23DC938FBFDF91CF911F9108953A
:10068000DE2BF8CFCF93DF9390E0FC01E259FD4FD2
:100690002491875C9D4FFC0184918823D1F090E0E8
:1006A000880F991FFC01E754FE4FA591B491FC01FE
:1006B000E753FE4FC591D49161110EC09FB7F894D6
:1006C0008C91E22FE0958E238C932881E223E8839E
:1006D0009FBFDF91CF9108958FB7F894EC91E22BF3
:1006E000EC938FBFF6CF3FB7F8948091EC019091D7
:1006F000ED01A091EE01B091EF0122B706B600FE28
:1007000005C02F3F19F00196A11DB11D3FBFBA2FA3
:10071000A92F982F8827BC01CD01620F711D811D63
:10072000911D42E0660F771F881F991F4A95D1F7E8
:1007300008958F929F92AF92BF92CF92DF92EF92E5
:10074000FF924B015C010E9473036B017C010E94CC
:1007500073036C197D098E099F09683E73408105FA
:100760009105A8F321E0821A9108A108B10888EE4A
:10077000C80E83E0D81EE11CF11C81149104A10471
:10078000B10429F7FF90EF90DF90CF90BF90AF902A
:100790009F908F90089561E08BE00E94140364E0C5
:1007A00070E080E090E00E94990360E08BE00C94A0
:1007B00014030C94CB032FB7F8946091E801709167
:1007C000E9018091EA019091EB012FBF0895E82F94
:1007D000F0E0DF01AA0FBB1FA050BF4F11967C9322
:1007E0006E938830A8F4E950FC4F0C94E427FF0383
:1007F000090416042404320439044404500480918A
:100800006A008C7F482B40936A0089B7816089BF5A
:10081000089580916A00837F440F551F440F551F30
:10082000482B40936A0089B78260F1CF80916A00BB
:100830008F7C74E0440F551F7A95E1F7482B409365
:100840006A0089B78460E3CF80916A008F7366E0A5
:10085000440F551F6A95E1F7482B40936A0089B70A
:100860008860D5CF8AB78C7F482B4ABF89B7806113
:10087000CECF8AB7837F440F551F440F551F482B97
:100880004ABF89B78062C3CF8AB78F7C24E0440F08
:10089000551F2A95E1F7482B4ABF89B78064B7CF27
:1008A0008AB78F7396E0440F551F9A95E1F7482B4E
:1008B0004ABF89B78068ABCF883010F40C94E70347
:1008C00008950E9473032091720130917301FB011E
:1008D000E21BF30B2091A5023091A602E217F30769
:1008E00008F438C12091A7023091A80270937301D7
:1008F000609372014091A9025091AA0241305105C2
:1009000099F148F04230510509F4B9C0433051051E
:1009100009F4EFC00895E217F30708F0D4C08091FE
:10092000AC028F5F8093AC028B3008F413C181E07E
:1009300090E09093AA028093A90241E050E061E622
:1009400074E080919F020E945C041092710182E524
:1009500090E09093A8028093A70283E290E09093A6
:10096000A6028093A5020895409171014130A9F03B
:1009700038F0433009F449C0443009F47CC008958C
:10098000E217F30730F491E090937101E093700166
:10099000089584E0809371010895E217F30798F5B4
:1009A000109271019091AC029F5F9093AC028E2FD8
:1009B000EE0F990B20917001821B910927FD9395F1
:1009C00097FF03C091958195910949970CF4C2C096
:1009D0001092AA021092A90282E990E09093A802D4
:1009E0008093A70282E590E09093A6028093A502EF
:1009F0001092AC0240918D0250E061E674E080916B
:100A00009F020C945C0483E0C5CFE217F30700F368
:100A100080918D02833061F582E080938D0282E0C7
:100A200090E09093AA028093A90282E990E09093CB
:100A3000A8028093A70282E590E09093A60280939B
:100A4000A5021092AE021092B0021092B102109262
:100A5000B2021092B3021092B4021092B5028091C9
:100A6000AC028093AF021092AC021092AD02C2CFE2
:100A700040938D02D4CFE217F30788F6A9CF5091A7
:100A8000AC025F5F5093AC024091AD02440FE2179D
:100A9000F307E0F04093AD02583009F05BC0E091FD
:100AA000AE02E630A9F41092AA021092A90282E9DD
:100AB00090E09093A8028093A70282E590E0909343
:100AC000A6028093A5021092AC0208954160E2CF85
:100AD00083E090E09093AA028093A90281E08E0FB8
:100AE0008093AE02F0E0E755FD4F8091AD02878321
:100AF0000895E217F307F8F41092AA021092A902DF
:100B00001092AC0282E990E09093A8028093A70231
:100B100082E590E09093A6028093A50288E0EEEA39
:100B2000F2E0A6EBB2E001900D928A95E1F781E048
:100B30008093AB0208958091AE02863009F4B3CF62
:100B400082E090E09093AA028093A9021092AC02F6
:100B50001092AD020895CF93DF93DC01EC91F0E0A9
:100B6000EE0FFF1FE75DFD4FC591D491988111965F
:100B70008C91982381E009F480E0DF91CF91089572
:100B8000DC0170E0FB01E259FD4FE4911196EC931A
:100B90001197675C7D4FFB0124912C9330E0220F6D
:100BA000331FF901E754FE4F8591949113969C935E
:100BB0008E931297F901E753FE4F85919491159604
:100BC0009C938E9314970895FC018081813089F461
:100BD000CB01845893408897C0F06138F3E07F07D9
:100BE000A1F06C5F734081E06530710578F080E0C2
:100BF0000895823021F4CB018C5A9340ECCF83309E
:100C000061F7CB01845D9340E6CF81E00895CF93F7
:100C1000DF93EC0161E08D8D9E8D0E94B502AD8D5C
:100C2000BE8D1496ED91FC911597908111968C9143
:100C300080958923808361E070E080E090E00E94ED
:100C4000990360E08D8D9E8DDF91CF910C94B5025C
:100C500085ED809374008091740084FDFCCF109228
:100C6000680208952091B401260F3327331F2132E3
:100C70003105ECF420916802FC0190E080E0243022
:100C800069F082E00895A091B4012191AC014C5625
:100C90005E4FA40FB52FB11D2C930196861798F3C4
:100CA0008091B401680F6093B40180E0089581E001
:100CB00008950895E091F8018091F701E81730F464
:100CC000F0E0EC58FE4F808190E008958FEF9FEFA9
:100CD00008959091F8018091F7012FEF3FEF981759
:100CE00048F4E92FF0E0EC58FE4F208130E09F5FA0
:100CF0009093F801C90108958091F7019091F8014E
:100D0000891B990B0895CF92DF92EF92FF920F9378
:100D10001F93CF93DF937C01CB018A01209169025D
:100D2000222389F0EB016B01C40ED51ECC15DD0525
:100D300069F06991D701ED91FC910190F081E02D6E
:100D4000C7010995F3CF642F0E943206C801DF91D5
:100D5000CF911F910F91FF90EF90DF90CF9008956A
:100D600044E050E06CE671E08EEB92E00C94830678
:100D7000CF93DF931F92CDB7DEB7698320916902CD
:100D80002223F9F020918C02203258F021E030E04B
:100D9000FC013383228390E080E00F90DF91CF91BC
:100DA000089580916A02E82FF0E0E559FD4F99819E
:100DB00090838F5F80936A0280938C0281E090E041
:100DC000ECCF61E0CE0101960E943206F7CF90E0B1
:100DD00080E0089580E090E0892B29F08091A402C2
:100DE00083FD0C9400000895E82FF0E0E150FE4FE1
:100DF000608308950F931F93CF93DF93FC0182814B
:100E0000813089F040F0823009F47AC0DF91CF91CF
:100E10001F910F91089561E08081DF91CF911F9123
:100E20000F910C9414030181C02FD0E0108161E078
:100E3000812F0E944203209719F460E0812FEDCFAB
:100E4000CF3FD10511F461E0F9CFE12FF0E0ED558E
:100E5000FD4FE491E150EC3008F04DC0F0E0ED5C66
:100E6000F84F0C94E4273F073F077B0744074A07E6
:100E7000500758077B077B075D076707710783B734
:100E8000806283BF01BFC2CF8FB580688FBDDBBDDD
:100E9000CABDBCCF8FB580628FBDD9BDC8BDB6CF2E
:100EA0008FB588608FBDD0937900C0937800AECFA6
:100EB00085B5806285BD03BDA9CF80918B00806818
:100EC00080938B00D0938700C09386009FCF809142
:100ED0008B00806280938B00D0938500C093840048
:100EE00095CF80918B00886080938B00D093830096
:100EF000C09382008BCFC038D1050CF0A4CF9DCF1A
:100F00008181E381F0E0E150FE4F80837FCF0F933A
:100F10001F93CF93DF93D62F8C01C0E0CD1741F004
:100F2000F801819191918F010E94FA06CF5FF6CF6F
:100F3000DF91CF911F910F9108950F931F93CF933E
:100F4000DF9300D000D01F92CDB7DEB789837B83BB
:100F50006A835D834C8310E001E08091F2011817F1
:100F600008F5E091F001F091F101E10FF11D8081B0
:100F70000093690280938B0210926A0210928C0295
:100F800062E08EEB92E00E94B80645E050E0BE01C0
:100F90006F5F7F4F8EEB92E00E9483060E949A0162
:100FA0001F5FDBCF0F900F900F900F900F90DF918E
:100FB000CF911F910F9108950F931F93CF93DF93BC
:100FC000162F082FEC018EEB92E00E9469068993A0
:100FD0008C2F801B8117B8F3812FDF91CF911F9148
:100FE0000F9108958F929F92AF92BF92CF92DF920E
:100FF000EF92FF920F931F93CF930E947303AB0165
:10100000BC018091CC029091CD02A091CE02B09112
:10101000CF028A019B01081B190B2A0B3B0B809105
:10102000D402882309F47FC08091D6029091D50222
:10103000E92FEE0FFF0BA82F082E000CBB0BC3E609
:101040008C02E00DF11D1124E653FD4F178B068B2A
:10105000053F11402105310508F054C09F5F909372
:10106000D5029091D5029332C9F593E69A9F9001EB
:101070009B9F300D112426533D4FF901E45AFF4F39
:10108000C090D002D090D102E090D202F090D30272
:101090004A015B018C189D08AE08BF087501640108
:1010A000C082D182E282F38229593F4FE1E0F0E031
:1010B000D901ED93FC938F5F8A3094F58093D6022B
:1010C000E091D602B3E6EB02F0011124EF5CFC4F95
:1010D000118210821092D4021092D5024093CC0259
:1010E0005093CD026093CE027093CF02CF911F91A7
:1010F0000F91FF90EF90DF90CF90BF90AF909F90B7
:101100008F9008951092D50291E09093D40240936D
:10111000D0025093D1026093D2027093D302A1CF38
:101120001092D602CDCF053F114021053105B0F216
:1011300081E08093D4024093D0025093D102609317
:10114000D2027093D302CACFE82FF0E0E150FE4FF5
:1011500060830895CF93FC018281813051F020F0AB
:10116000823079F0CF91089560E08081CF910C9426
:101170001403C08161E08C2F0E94420360E08C2F39
:10118000F5CFE381F0E0E150FE4F1082EBCF80938A
:101190003B02882321F081E797E00C94FA0681E76F
:1011A00097E00C94AA08CF93C82F809190028C17D7
:1011B00031F081E0C11101C080E00E94C708C093F6
:1011C000900260E070E0CB01C1110E94DB036093EC
:1011D0009102709392028093930290939402809173
:1011E00090028C1739F081E0C11101C080E0CF91ED
:1011F0000C94C708CF910895EF92FF920F931F931D
:10120000CF93DF938C01FC01C581D681209751F0EB
:10121000E480F12CEF1431F0899199910E94AA0891
:10122000F394F8CFF801C085D185209751F007815C
:1012300010E0011731F0899199910E94AA081F5F6F
:10124000F8CFDF91CF911F910F91FF90EF9008950C
:101250000F931F93CF938C01C42F0E940A028823FF
:10126000E1F18091B806482F50E0C03128F588237D
:1012700019F12C2F30E08091C5069091C6060C2EF6
:1012800002C0969587950A94E2F780FF15C004176F
:10129000150719F58091C0069091C1060097E9F0F5
:1012A000220F331F820F931FFC0180819181CF9108
:1012B0001F910F910C94FC080417150771F0809191
:1012C000C0069091C106009741F04C2F50E0440FAA
:1012D000551F480F591FFA01E8CFCF911F910F9169
:1012E0000895CF938091C3069091C406892BA1F1F4
:1012F000C0E08091BF06C81778F58C2F869586953B
:10130000869590E0E091C306F091C406E80FF91FBE
:10131000208130E04C2F50E063E0880F991F6A95E0
:10132000E1F7BA01681B790B02C0359527956A95DC
:10133000E2F720FF0FC08091C0069091C106009790
:1013400049F0440F551F840F951FFC018081918146
:101350000E94FC08CF5FCDCF1092C206CF910895B6
:101360000F931F93CF93DF93EC018B81882379F048
:101370008B0189819A818617970729F0CE010E94F7
:10138000FC081A83098389819A81019731F48D8140
:101390009E81009769F06C8105C0888599850097CA
:1013A00039F06F81DF91CF911F910F910C948707D6
:1013B000DF91CF911F910F9108950F931F93CF93BA
:1013C0008C01C42F0E940A02882309F444C0809132
:1013D000B806482F50E0C03148F5882339F12C2F4A
:1013E00030E08091C5069091C6060C2E02C09695FD
:1013F00087950A94E2F780FF19C00417150759F57D
:101400008091C0069091C106009729F16091BC06B9
:101410007091BD06220F331F820F931FFC01808144
:101420009181CF911F910F910C94B009041715076A
:1014300091F08091C0069091C106009761F0609193
:10144000BA067091BB064C2F50E0440F551F480F51
:10145000591FFA01E4CFCF911F910F910895CF93B7
:10146000C0E08091BF06C81798F48091C0069091A3
:10147000C106009759F02C2F30E0220F331F820F46
:10148000931FFC01808191810E94FC08CF5FE9CF0E
:101490008091C3069091C406892BC1F1C0E0809170
:1014A000BF06C81798F58C2F86958695869590E08F
:1014B000E091C306F091C406E80FF91F208130E0E7
:1014C0004C2F50E063E0880F991F6A95E1F7BA014D
:1014D000681B790B02C0359527956A95E2F720FFC6
:1014E00013C08091C0069091C106009769F0609189
:1014F000BA067091BB06440F551F840F951FFC015F
:10150000808191810E94B009CF5FC9CF81E0809333
:10151000C206CF9108950E94D308EEE8F2E081E080
:1015200087831086E7E9F2E088E0DF011D928A9563
:10153000E9F708950C94BB271F93CF93DF93EC0139
:10154000162F81E090E00E949A0AC230D10509F47A
:1015500083C038F4219709F446C0DF91CF911F91E1
:101560000895C330D10509F4D1C02497B1F7C82F2D
:10157000D0E045E170E060E0CE0110FF18C10E94AC
:10158000DD0946E170E060E0CE0111FF13C10E9469
:10159000DD0947E170E060E0CE0112FF0EC10E945C
:1015A000DD0948E170E060E0CE0113FF09C10E944F
:1015B000DD0949E170E060E0CE0114FF04C10E9442
:1015C000DD094AE170E060E0CE0115FFFFC00E9436
:1015D000DD094BE170E060E0CE0116FFFAC00E9429
:1015E000DD094CE174C0C82FD0E040E070E060E05D
:1015F000CE0114FF25C00E94DD0941E070E060E0EB
:10160000CE0110FF20C00E94DD0942E070E060E0E2
:10161000CE0111FF1BC00E94DD0943E070E060E0D5
:10162000CE0112FF16C00E94DD0944E070E060E0C8
:10163000CE0113FF51C0DF91CF911F910C94DD09B2
:101640000E942809DACF0E942809DFCF0E942809CA
:10165000E4CF0E942809E9CFC82FD0E045E070E030
:1016600060E0CE0110FF3DC00E94DD0946E070E061
:1016700060E0CE0111FF38C00E94DD0947E070E054
:1016800060E0CE0112FF33C00E94DD0948E070E047
:1016900060E0CE0113FF2EC00E94DD0949E070E03A
:1016A00060E0CE0114FF29C00E94DD094AE070E02D
:1016B00060E0CE0115FF24C00E94DD094BE070E020
:1016C00060E0CE0116FF1FC00E94DD094CE070E013
:1016D00060E0CE0117FDAFCFDF91CF911F910C9449
:1016E00028090E942809C2CF0E942809C7CF0E945A
:1016F0002809CCCF0E942809D1CF0E942809D6CF33
:101700000E942809DBCF0E942809E0CFC82FD0E033
:101710004DE070E060E0CE0110FF34C00E94DD09B2
:101720004EE070E060E0CE0111FF2FC00E94DD09A5
:101730004FE070E060E0CE0112FF2AC00E94DD0998
:1017400040E170E060E0CE0113FF25C00E94DD099A
:1017500041E170E060E0CE0114FF20C00E94DD098D
:1017600042E170E060E0CE0115FF1BC00E94DD0980
:1017700043E170E060E0CE0116FF16C00E94DD0973
:1017800044E1A5CF0E942809CBCF0E942809D0CFE1
:101790000E942809D5CF0E942809DACF0E94280983
:1017A000DFCF0E942809E4CF0E942809E9CF0E94D8
:1017B0002809E7CE0E942809ECCE0E942809F1CE24
:1017C0000E942809F6CE0E942809FBCE0E94280913
:1017D00000CF0E94280905CF0F931F93CF93DF936B
:1017E000C82F8B0181E090E00E949A0A90E020913E
:1017F000B5062817190629F02091B80628171906EA
:1018000011F4C093BE068DE190E00E949A0AD82F91
:1018100081E090E00E949A0A90E00130110519F5EC
:1018200021E030E04D2F70E060E00E942A0281E06C
:1018300090E00E949A0A90E02091B50628171906B8
:1018400029F02091B8062817190641F48091F20179
:101850004FE750E061E070E0811123C0DF91CF914C
:101860001F910F91089530E020E04D2F70E060E06F
:101870000E942A0281E090E00E949A0A90E0209162
:10188000B5062817190629F02091B8062817190659
:1018900029F78091F201882309F34FE750E070E0C7
:1018A00060E08C2FDF91CF911F910F910C949D07D9
:1018B000CF93863823E0920719F130F481389340B2
:1018C000D1F08FEFCF910895873823E09207D9F0B8
:1018D00088389340B1F786E893E00E949A0AC82FAF
:1018E00087E893E00E949A0A90E02FEFC29F800D54
:1018F000911D112402C081E893E0CF910C949A0AC3
:1019000086E893E0FACF87E893E0F7CFCF93C82F2C
:101910008FE290E00E949A0A811109C085E190E06F
:10192000CC2311F086E190E0CF910C949A0A80E0EC
:10193000CF910895CF93C82F8FE290E00E949A0A2A
:10194000811106C08C2F90E0CA96CF910C949A0A10
:1019500080E0CF9108951F93CF93DF93EC018091A6
:101960003B02882359F08FE090E00E949A0A182FDA
:1019700080E190E00E949A0A181306C0CE01DF9120
:10198000CF911F910C949A0A81E797E00E94AA08D0
:101990000FB6F894A89581B5886181BD11BC0FBEC2
:1019A000FFCF0C94AB0CCF93DF932091A102309129
:1019B000A2022F3F320721F0C901DF91CF91089594
:1019C0008091A40287FF2BC086FF0FC089E090E0C2
:1019D0000E94D10CC82F81E090E00E94D10C9C2F76
:1019E0009093A2028093A10215C089E090E00E942A
:1019F000D10CC82F81E090E00E94D10C90E4C99FE7
:101A000090011124207C31708F73282B3093A20217
:101A10002093A1028091A1029091A202CECF85FFD6
:101A20000CC081E190E00E94D10CC82F82E190E0CF
:101A30000E94D10CC05CDD0BD2CF81E090E00E940F
:101A4000D10C90E0CDCFBF92CF92DF92EF92FF9278
:101A50000F931F93CF93DF9300D01F92CDB7DEB7C4
:101A600030913102311165C1B22E6A017B018C01C6
:101A70004330510509F4ACC008F03FC04130510576
:101A800009F44CC04230510509F483C0B701C801C4
:101A90000E940A02882309F44CC18091F201882334
:101AA00009F447C1DA82C982BB8210E001E080916B
:101AB000F201181708F03DC1E091F001F091F10139
:101AC000E10FF11D80810093690280938B021092D7
:101AD0006A0210928C0262E08EEB92E00E94B806DD
:101AE00043E050E0BE016F5F7F4F8EEB92E00E94BB
:101AF00083060E949A011F5FDACF4530510509F431
:101B0000D1C008F484C04630510509F0BFCF40E091
:101B1000C80124FF28C00E94DD09B8CF80912E02A1
:101B2000811127C040E0B701C801B4FE1FC00E9468
:101B3000DD0941E0B701C801B0FE22C00E94DD0905
:101B400042E0B701C801B1FE1EC00E94DD0943E0BA
:101B5000B701C801B2FE1AC00E94DD0944E0B70116
:101B6000C801B3FCD8CF0E94280990CF0E94280951
:101B7000E0CF8DE190E00E94D10C81FDD3CFD9CF91
:101B80000E942809DDCF0E942809E1CF0E94280980
:101B9000E5CF45E0C80120FF12C00E94DD0946E004
:101BA000B701C801B1FE0EC00E94DD0947E0B701D0
:101BB000C801B2FE0AC00E94DD0948E0D0CF0E94F1
:101BC0002809EDCF0E942809F1CF0E942809F5CFFE
:101BD00049E0C80120FF12C00E94DD094AE0B701B8
:101BE000C801B1FE0EC00E94DD094BE0B701C8017B
:101BF000B2FE0AC00E94DD094CE0B1CF0E94280964
:101C0000EDCF0E942809F1CF0E942809F5CF4DE0C1
:101C1000C80120FF32C00E94DD094EE0B701C801B3
:101C2000B1FE2EC00E94DD094FE0B701C801B2FE2F
:101C30002AC00E94DD0940E1B701C801B3FE26C0F9
:101C40000E94DD0941E1B701C801B4FE22C00E9433
:101C5000DD0942E1B701C801B5FE1EC00E94DD09E1
:101C600043E1B701C801B6FE1AC00E94DD0944E194
:101C7000B701C801B7FE77CF4ECF0E942809CDCF5C
:101C80000E942809D1CF0E942809D5CF0E94280997
:101C9000D9CF0E942809DDCF0E942809E1CF0E94F8
:101CA0002809E5CF45E1C80120FF2EC00E94DD09CB
:101CB00046E1B701C801B1FE2AC00E94DD0947E133
:101CC000B701C801B2FE26C00E94DD0948E1B70194
:101CD000C801B3FE22C00E94DD0949E1B701C80175
:101CE000B4FE1EC00E94DD094AE1B701C801B5FE7D
:101CF0001AC00E94DD094BE1B701C801B6FE16C04B
:101D00000E94DD094CE1B4CF0E942809D1CF0E9486
:101D10002809D5CF0E942809D9CF0E942809DDCFF4
:101D20000E942809E1CF0E942809E5CF0E942809D6
:101D3000E9CF0F900F900F90DF91CF911F910F91EE
:101D4000FF90EF90DF90CF90BF900895AF92BF9239
:101D5000CF92DF92EF92FF920F931F93CF93DF9377
:101D60005091310251112DC058016901142F7B018E
:101D7000EC010E940A0281111093BE068DE190E0F1
:101D80000E949A0A9601482FB701CE010E942A02AA
:101D9000B701CE010E940A02882399F08091F201D6
:101DA000882379F0A501B601812FDF91CF911F9192
:101DB0000F91FF90EF90DF90CF90BF90AF900C9479
:101DC0009D07DF91CF911F910F91FF90EF90DF90D2
:101DD000CF90BF90AF9008951F93CF93DF93EC0106
:101DE000162F0E94BB27181721F0612FCE010E94E9
:101DF000C327CE01DF91CF911F910C949A0ACF9304
:101E0000DF93863823E0920739F138F48138934024
:101E1000E9F08FEFDF91CF910895873823E09207A3
:101E2000F1F088389340A9F7C62F86E893E00E9426
:101E30009A0AD82F87E893E00E949A0A90E06C2FC4
:101E40002FEFD29F800D911D112402C081E893E0F5
:101E5000DF91CF910C94EC0E86E893E0F9CF87E800
:101E600093E0F6CF0F931F93CF93DF930FB6F894C1
:101E7000A89581B5886181BD11BC0FBE0FB7F894DC
:101E8000D0E0C0E0FE01E457FF4F1491CE010E9464
:101E9000BB27181721F0612FCE010E94C32721967E
:101EA000CD3281E0D80771F781E893E00E94BB272B
:101EB000813029F061E081E893E00E94C327CCE102
:101EC000D1E01FEF89919991FC0111830E94FA06DC
:101ED000F1E0CA35DF07B1F70FBF88E19BE00FB62D
:101EE000F894A89581BD0FBE91BDDF91CF911F9150
:101EF0000F9108952F923F924F925F926F927F922F
:101F00008F929F92AF92BF92CF92DF92EF92FF9209
:101F10000F931F93CF93DF9300D000D000D0CDB7A5
:101F2000DEB78C01E0E0AE2EE0E0BE2EF0E02F2E1A
:101F3000F0E03F2E412C512C32014394B0E08B2E27
:101F4000B0E09B2E80E0C82E80E0D82ED8015B96B2
:101F50000D90BC91A02DBD83AC83109709F454C2A1
:101F60008C91803409F45AC108F04BC0893209F4CD
:101F7000C8C108F5843209F4A6C198F4813209F485
:101F80006EC1833209F477C1811113C0E0E0F0E043
:101F9000EF2B79F0AC81BD8111968C910E940000ED
:101FA00008C0863209F47BC108F44DC0883209F4B8
:101FB0009CC180E019C28D3209F4C3C170F48B3228
:101FC00009F4B4C108F4A8C1C114D10491F3EC819F
:101FD000FD81618185E090E091C18F3209F4C6C135
:101FE00008F4BAC1803309F4CCC1813311F7E0E0C1
:101FF000F0E0EF2BF1F2AC81BD8111966C9182E0A3
:10200000CAC1813609F4B8C068F5803509F45BC1EE
:1020100088F4823409F419C108F40CC1833449F6F8
:10202000A114B10431F2AC81BD8111966C9184E0B0
:1020300090E0FDC08E3509F4B1C1803609F494C03A
:10204000813509F0B6CFAC81BD8111969C9180E8B5
:10205000890F61E070E097FD02C070E060E00E94CF
:10206000EC0BA7CF8D3609F49BC0A0F4833609F49E
:1020700090C008F488C08C3609F09BCF80E090E0D7
:10208000892B09F496CFAC81BD8111968C910E9469
:1020900000008FCF873709F498C108F58E3609F014
:1020A00088CFAC81BD811396ED91FC911497309748
:1020B00009F4AAC180818F3609F07BCF2114310445
:1020C00009F477CF11962C91622F661F6627661F41
:1020D0008181B0E88B9FC0011124822B9CC08B377B
:1020E00009F4E2C18F3709F064CFAC81BD8111964C
:1020F000EC90F12CBFEFEB1ABCEFFB0AB701C80163
:102100000E94E405882309F46EC1E5E8EE16E3E0D9
:10211000FE0609F468C1FDEAEF16F3E0FF0609F4D4
:1021200089C225EDE21623E0F20609F483C234E801
:10213000E31633E0F30659F04CEAE41643E0F40604
:1021400031F084EDE81683E0F80609F065C2AC8151
:10215000BD8112968C91883009F05EC20E94320FC8
:10216000C8010E94070666C2EC81FD81618181E0A1
:1021700090E00E949C0A1DCFAC81BD8111966C91AC
:1021800082E090E0F6CFEC81FD81618183E090E018
:10219000F0CFAC81BD8111966C9184E090E0E9CFE5
:1021A000EC81FD816181862F8F778183D8015B96D9
:1021B000ED91FC915C9781832114310409F4F9CEEF
:1021C000661F6627661F5B96ED91FC9181818111E8
:1021D00021C081E08093E60161110EC08091E6018B
:1021E00087FDE7CE60E090E00E9400008091E6016C
:1021F0008F5F8093E601F2CF8091E60187FDD9CE13
:1022000061E090E00E9400008091E6018F5F809382
:10221000E601F2CF90E00E940000CBCEA114B10401
:1022200009F4C7CEEC81FD81618181E090E00E94DC
:102230000000BFCEA114B10409F4BBCEAC81BD81B6
:1022400011966C9182E090E0F2CFA114B10409F4F0
:10225000B0CEEC81FD81618183E090E0E8CFE0E0E9
:10226000F0E0EF2B09F4A5CEAC81BD8111968C91E5
:102270000E9400009ECEE0E0F0E0EF2B09F499CE42
:10228000AC81BD8111968C9190E087FF05C081954E
:1022900090E09195819591090E9400008ACEE0E03E
:1022A000F0E0EF2B09F485CEAC81BD8111968C91C5
:1022B00090E087FF05C0819590E091958195910907
:1022C0000E94000076CE8114910409F472CEEC8154
:1022D000FD81918180E8890F61E070E097FD02C087
:1022E00070E060E00E94000064CEC114D10409F4E3
:1022F00060CEEC81FD81618181E090E00E94000070
:1023000058CEC114D10409F454CEAC81BD811196CC
:102310006C9182E090E0F2CFC114D10409F449CE6F
:10232000EC81FD81618183E090E0E8CFC114D104AC
:1023300009F43FCEAC81BD8111966C9184E090E0B0
:10234000DDCFC114D10409F434CEAC81BD81119626
:102350006C9186E090E0D2CFC114D10409F429CE6B
:10236000EC81FD81618187E090E0C8CFC114D10488
:1023700009F41FCEAC81BD8111966C9188E090E08C
:10238000BDCFE0E0F0E0EF2B09F413CEAC81BD81CE
:1023900011966C9181E00E9400000BCEAC81BD8152
:1023A0001396ED91FC911497309771F180818F35E0
:1023B00009F0FFCD20E030E0232B09F4FACD918124
:1023C00011968C910E940000F4CDEC81FD81E1809A
:1023D000F12CFFEFEF1AFCEFFF0AB701C8010E94D2
:1023E000E40581112AC081E0D8015B96ED91FC9152
:1023F0005C9723813481148213825C963C932E93E4
:102400005B97813009F4A2CD26960FB6F894DEBF13
:102410000FBECDBFDF91CF911F910F91FF90EF9035
:10242000DF90CF90BF90AF909F908F907F906F90F4
:102430005F904F903F902F90089521E8E21623E09F
:10244000F20601F134E8E31633E0F30659F145E80A
:10245000E41643E0F406A1F08CEAE81683E0F806FF
:1024600009F19DEAE91693E0F90651F0A4EDEA16A8
:10247000A3E0FA06B9F0B5EDEB16B3E0FB0671F494
:102480008AE002C0F8018081AC81BD8112969C91E6
:102490009813A9CFC8010E940706A5CFC7010E94C3
:1024A000580CF2CF8DE0F0CFEC81FD81F181F98302
:1024B000EF2EF12C2FEFE21A2CEFF20AB701C80130
:1024C0000E94E405882309F48ECFAC81BD81129669
:1024D000BC91BA838B2F90E09C0144E03595279501
:1024E0004A95E1F7E22FE170EE83E093E5019C016C
:1024F00053E0359527955A95E1F7F22FF170FB835C
:10250000F093E4019C0135952795422F4170440FCB
:1025100095958795959587958170880F880F840F7D
:10252000B170B80FBC83B093E30181E8E81683E093
:10253000F806B9F4D8018C918093E201E130B1F151
:102540008091E20190E00C8002C0959587950A94F5
:10255000E2F781709927BB81B817190609F043CFBC
:1025600099CFE4E8EE16E3E0FE0651F0FCEAEF1640
:10257000F3E0FF0629F024EDE21623E0F20691F5E0
:102580008DE08093E2019E819130D1F6C70184589D
:102590009340029708F427CF89818B5A823008F440
:1025A00022CF8981835D823008F41DCFD301C2011F
:1025B0000C8004C0880F991FAA1FBB1F0A94D2F772
:1025C0002091E201EA81E3FF22C0822B8093E201A5
:1025D0006091E201C7010E94FF0E9091E201891310
:1025E00002CF58CF35E8E31633E0F30651F04DEA59
:1025F000E41643E0F40629F085EDE81683E0F806DA
:1026000011F48AE0BECFC7010E94580CBACF482F00
:102610004095822F8423DACFEC81FD816281C7014E
:102620000E94FF0ED8015B96ED91FC919281891773
:1026300009F496CDB1E8EB16B3E0FB0609F0D3CE72
:1026400081E893E00E949A0AF8018083CCCEAF9291
:10265000BF92CF92DF92EF92FF920F931F93CF938F
:10266000DF93C091FD01D091FE011091E1011111A4
:102670001AC0FE0190E080E025813681232B09F00D
:102680005AC025E0289FF001299FF00D11243296B1
:10269000EC0FFD1FF093E001E093DF01309709F4A8
:1026A0003FC014821382A090DF01B090E001A1141A
:1026B000B104B1F10E94DB03C090DB01D090DC01DA
:1026C000E090DD01F090DE016C197D098E099F0913
:1026D0006A30710581059105C8F11092E1010E94EF
:1026E000DB036093DB017093DC018093DD01909349
:1026F000DE018D8D9E8D0E94AB05F50190818823B2
:1027000019F19160908381E08093E1010E9473034D
:102710006093D7017093D8018093D9019093DA0127
:10272000DF91CF911F910F91FF90EF90DF90CF90AD
:10273000BF90AF900895019635968530910509F0C8
:102740009BCFF0E0E0E0A6CF9E7FDCCF0E9473033A
:10275000C090D701D090D801E090D901F090DA0173
:102760006C197D098E099F096531710581059105F7
:10277000B8F20E9473036C197D098E099F09643FAA
:1027800071408105910560F68D8D9E8D212F2770FA
:10279000C12CD12C7601C39404C0CC0CDD1CEE1CE2
:1027A000FF1C2A95D2F7103108F049C00E94AB05F2
:1027B000E12FE695E695E695EA0DFB2DF11D8823C0
:1027C000D1F18081C82AC08201E0010F0093E101AC
:1027D0000E9473036093D7017093D8018093D9014D
:1027E0009093DA01177F173019F0083109F098CF6C
:1027F0000E94DB036093DB017093DC018093DD01B9
:102800009093DE01003141F1083109F089CF0B8D41
:102810001C8D8091DF019091E0019C8F8B8FCE0108
:102820000E947A0FE091DF01F091E001148213829F
:102830001C8F0B8F2CC0C0948081C822C4CF0E94F3
:10284000AB05F5019281882319F0C92AC282BCCF59
:10285000C0949C219283B8CFA091DF01B091E00198
:102860008C91982F977F973709F45ACF8B3709F4BB
:1028700057CFEB8DFC8D309721F4BC8FAB8F07C009
:10288000FC01838194810097D9F7B483A3831092CC
:10289000E10146CF1F93CF93DF93EC01162F0897EA
:1028A00079F4662319F10E94320F80E090E0892BC1
:1028B000B9F0612FCE01DF91CF911F910C940000F0
:1028C00080E090E0892BA9F781E0C11590E1D9075C
:1028D00008F080E0111105C0DF91CF911F9108959C
:1028E00081E027972297C0F780E0F6CF80E090E064
:1028F000892BF9F681E0F0CF0F931F93CF93DF93ED
:1029000020913B02222329F08F30910541F48FE082
:1029100090E0DF91CF911F910F910C94EC0E162F48
:10292000EC018FE090E00E949A0A082F80E190E08D
:102930000E949A0A08130CC0C730D10529F0C8308C
:10294000D10519F4183029F0FFCF612FCE01E1CF66
:10295000FFCF0E94320F88E0DF91CF911F910F913E
:1029600008958331910588F48131910530F48130E7
:10297000910519F08930910531F42FEF3FEF309335
:10298000A2022093A1020C947C148D319105D9F7F9
:10299000677F6093A40220918E022F73362F307CC4
:1029A000232B20938E02E9CFCF93DF93E9EAF2E065
:1029B00095E1DF011D929A95E9F722E930E0309325
:1029C000A8022093A70222E530E03093A6022093CC
:1029D000A502CEE8D2E0888319828FEF9FEF9C8B0F
:1029E0008B8B1D8A83E080938D0243E050E061E68B
:1029F00074E089890E945C048DE190E00E94D10C12
:102A0000682F6F738DE190E00E94B1148E8B6AE0A5
:102A100087E090E00E94B1146DE088E090E00E94B1
:102A2000B11480E0DF91CF910C948B0A89B78F7736
:102A300089BF8AE792E090930F0180930E0181E0B5
:102A40000E94D414109241021092400208950F93F4
:102A50001F930E94730300913C0210913D0220914C
:102A60003E0230913F02601B710B820B930B613F62
:102A700079448240910508F456C080913B0281114F
:102A80000BC0809140029091410281309105B1F1DB
:102A900088F0029709F444C00E94730360933C02DB
:102AA00070933D0280933E0290933F0281E01F911C
:102AB0000F91089580E390E00E94AB0C80FF0EC060
:102AC00041E050E062EF77E087E00E94E70381E0B9
:102AD00090E09093410280934002DECF8DE190E040
:102AE0000E94AB0C82FFD8CF41E050E06BE772E070
:102AF00087E00E94E70382E090E0EBCF89B78F7711
:102B000089BF8AE792E090930F0180930E018DE1D7
:102B100090E00E94AB0C82FDE7CF0E941615BCCF5F
:102B200010923A02FACF80E0C2CFBF92CF92DF92EA
:102B3000EF92FF920F931F93CF93DF938B01B42EED
:102B4000690182FF23C083FF17C061E0C8010E94B2
:102B50004A148823D9F16B2DC8010E94B1148B113E
:102B600035C0F601DF91CF911F910F91FF90EF904B
:102B7000DF90CF90BF90099460E0C8010E944A1492
:102B8000882321F1C8010E94D10CE9CF842F8770DE
:102B9000C1E0D0E07E0101C0EE0C8A95EAF7D42FA7
:102BA000D870CB010E94D10CC82FB4FE1CC061E0CC
:102BB000C8010E944A14882349F0DD2389F0CE29F8
:102BC0006C2FC8010E94B1148C1759F2DF91CF917C
:102BD0001F910F91FF90EF90DF90CF90BF900895DD
:102BE000E094CE21EDCF60E0C8010E944A14882312
:102BF00069F3CE21DD2319F0C111B3CFE7CFCC2388
:102C000009F4AFCFE3CFCF92DF92EF92FF920F9311
:102C10001F93CF93DF937C016B01C42F122FD42F0E
:102C2000D07E80918E0287FF2CC0D03EC1F580916E
:102C30008F028823A1F190E00E94D10CD82F8091BF
:102C40008F0290E001960E94D10C982F8D2FE816EC
:102C5000F90629F56C2F70E0762F662766277370CA
:102C6000612B6F5F7F4F2AEE36E0402F8C2FDF9174
:102C7000CF911F910F91FF90EF90DF90CF900C9428
:102C8000951580FD32C0D03609F464C088F4D03286
:102C900009F447C0D03409F45DC0DD2379F1DF9138
:102CA000CF911F910F91FF90EF90DF90CF900895FB
:102CB000D03A09F483C090F42C2F2F7141E050E0FA
:102CC000D03869F7B601C701DF91CF911F910F91FD
:102CD000FF90EF90DF90CF900C94230DD03C09F43F
:102CE00076C0D03E09F4B6CFDACF0E94D30C8E1551
:102CF0009F0549F2E114F10431F2D1CF8C2F8E708F
:102D000071F680E090E0892B51F28C2F8170DF9179
:102D1000CF911F910F91FF90EF90DF90CF900C9487
:102D20000000CF71CF3109F0BACF412F4F7771F04A
:102D3000413071F0111F1127111F212F30E00FE7D3
:102D400010E0B601C7010E94A60EA9CF41E0F2CF64
:102D500040E0F0CF2C2F30E08C2F8F71813029F0A4
:102D600030F0803121F08131F9F440E001C041E0E0
:102D700025FB222720F90DE110E030E0B601C70164
:102D80000E94A60E80E090E0892B09F488CF4C2F9A
:102D9000B601C701DF91CF911F910F91FF90EF9086
:102DA000DF90CF900C940000C901880F991F8E719D
:102DB000C4FB442740F9482B4250DACF2C2F2F7008
:102DC00043E050E0C4FF7ECF42E050E07BCFCF71C4
:102DD000CE3139F0CF3109F062CF212F45E050E0FC
:102DE00071CF212F44E050E06DCFCF93DF9300D01F
:102DF00000D01F92CDB7DEB7181619069CF58EEBE2
:102E000092E00E946906992782309105D9F08330BB
:102E1000910581F1019759F464E08CE691E00E94FC
:102E2000DC0780916F018823A1F18130D9F1909165
:102E3000F7018091F8019817A9F08EEB92E00E94BB
:102E40006906F5CF65E0CE0101960E94DC0780E0BF
:102E500090E0892B39F04C815D816A817B81898189
:102E60000E9400000F900F900F900F900F90DF9135
:102E7000CF91089563E0CE0101960E94DC0780E0C7
:102E800090E0892B79F36B8189819A810E940000FF
:102E9000E9CF80916D0190916E010E94AB0C8093FF
:102EA0006C01C5CF60916C0180916D0190916E01B4
:102EB0000E947C14F4CFCF92DF92EF92FF920F9397
:102EC0001F93CF93DF93EC017B0141305105F9F45F
:102ED000CD80DE802496C114D104E9F462E070E074
:102EE00081E090E00E9401288C01009731F0FC0104
:102EF000F182E08288818F5F8883C801DF91CF9162
:102F00001F910F91FF90EF90DF90CF900895C884AC
:102F1000D9842796E0CF88818F5F8883C82FD0E03F
:102F200062E070E0CE010E9401288C0120E0BE0129
:102F300061507109822F90E08617970774F4880F0B
:102F4000991FF601E80FF91F40815181800F911FF1
:102F5000FC01518340832F5FEDCFC150D048CC0F8F
:102F6000DD1FC00FD11FF982E882C6010E94B92877
:102F7000C4CF1F920F920FB60F9211242F933F933D
:102F80008F939F93AF93BF938091E8019091E90154
:102F9000A091EA01B091EB013091E70123E0230F0A
:102FA0002D3768F126E8230F0296A11DB11D20934D
:102FB000E7018093E8019093E901A093EA01B093BF
:102FC000EB018091EC019091ED01A091EE01B091A7
:102FD000EF010196A11DB11D8093EC019093ED01CD
:102FE000A093EE01B093EF01BF91AF919F918F91AC
:102FF0003F912F910F900FBE0F901F901895019643
:10300000A11DB11DD4CF1F920F920FB60F921124A4
:103010000BB60F922F933F934F935F936F937F93D2
:103020008F939F93AF93BF93EF93FF93E0910E0124
:10303000F0910F010995FF91EF91BF91AF919F9191
:103040008F917F916F915F914F913F912F910F9051
:103050000BBE0F900FBE0F901F9018951F920F92EE
:103060000FB60F9211240BB60F922F933F934F93ED
:103070005F936F937F938F939F93AF93BF93EF93E0
:10308000FF93E0910C01F0910D010995FF91EF91F3
:10309000BF91AF919F918F917F916F915F914F9170
:1030A0003F912F910F900BBE0F900FBE0F901F906E
:1030B00018951F920F920FB60F9211240BB60F9214
:1030C0002F933F934F935F936F937F938F939F9330
:1030D000AF93BF93EF93FF93E0910A01F0910B013F
:1030E0000995FF91EF91BF91AF919F918F917F9142
:1030F0006F915F914F913F912F910F900BBE0F9069
:103100000FBE0F901F9018951F920F920FB60F923F
:1031100011240BB60F922F933F934F935F936F93AE
:103120007F938F939F93AF93BF93EF93FF93E09120
:103130000801F09109010995FF91EF91BF91AF91BD
:103140009F918F917F916F915F914F913F912F91BF
:103150000F900BBE0F900FBE0F901F9018951F92EF
:103160000F920FB60F9211240BB60F922F933F932D
:103170004F935F936F937F938F939F93AF93BF937F
:10318000EF93FF93E0910601F09107010995FF91FC
:10319000EF91BF91AF919F918F917F916F915F91CF
:1031A0004F913F912F910F900BBE0F900FBE0F903C
:1031B0001F9018951F920F920FB60F9211240BB605
:1031C0000F922F933F934F935F936F937F938F93C0
:1031D0009F93AF93BF93EF93FF93E0910401F0911E
:1031E00005010995FF91EF91BF91AF919F918F914B
:1031F0007F916F915F914F913F912F910F900BBEF7
:103200000F900FBE0F901F9018951F920F920FB640
:103210000F9211240BB60F922F933F934F935F930E
:103220006F937F938F939F93AF93BF93EF93FF938E
:10323000E0910201F09103010995FF91EF91BF9197
:10324000AF919F918F917F916F915F914F913F913E
:103250002F910F900BBE0F900FBE0F901F901895DF
:103260001F920F920FB60F9211240BB60F922F934D
:103270003F934F935F936F937F938F939F93AF93FE
:10328000BF93EF93FF93E0910001F0910101099545
:10329000FF91EF91BF91AF919F918F917F916F912E
:1032A0005F914F913F912F910F900BBE0F900FBEEA
:1032B0000F901F9018951F920F920FB60F92112426
:1032C0000BB60F922F933F934F935F936F937F9320
:1032D0008F939F93AF93BF93EF93FF938091710070
:1032E000887F803609F44DC008F040C0883209F468
:1032F000A9C028F5803109F49DC0C8F4882309F4D9
:10330000FBC0883009F496C0FF91EF91BF91AF9157
:103310009F918F917F916F915F914F913F912F91ED
:103320000F900BBE0F900FBE0F901F901895883115
:1033300009F488C0803241F78093660214C080345B
:1033400009F49DC040F48033B9F38833E9F68093E3
:10335000660285ECB0C0803509F485C0883509F473
:1033600096C0883489F60E942806CECF883909F4A1
:103370008CC038F5883729F050F4883611F0803742
:1033800019F683E0809368021092D60157C08838FE
:1033900009F47BC0803919F0803809F0B5CF8091ED
:1033A000D601803208F071C0E091D60181E08E0F25
:1033B0008093D60180917300F0E0EA54FE4F808341
:1033C0003DC0803B39F0E0F4803A09F479C0883A96
:1033D00009F09ACF84E0809368021092B5011092B0
:1033E000B401E091F501F091F60109958091B401E5
:1033F00081110FC081E08093B4011092940109C043
:10340000803C09F4A6CF883C09F4A3CF883B09F09F
:103410007BCFE091B50181E08E0F8093B501F0E0A4
:10342000EC56FE4F8081809373009091B50180919E
:10343000B40129C0809143028093730085EC80938E
:10344000740062CF9091650280916402981758F5DC
:10345000E091650281E08E0F80936502F0E0EC5B05
:10346000FD4F8081E9CFE091650281E08E0F80936E
:10347000650280917300F0E0EC5BFD4F80839091DA
:103480006502809164029817C8F285E8D8CFE09170
:10349000650281E08E0F8093650280917300F0E0F9
:1034A000EC5BFD4F80838091670281115CCF81E0EE
:1034B0008093420284EA809374001092680224CFC1
:1034C00085EC80937400109268028091D60180325E
:1034D00030F4E091D601F0E0EA54FE4F10826091A2
:1034E000D60170E0E091F301F091F40186EB91E0F8
:1034F00009951092D60108CF1092660234CF1F9220
:103500000F920FB60F9211248F939F93789480910E
:103510001E0290911D02891708F0F5C0909162007B
:1035200091609093620090911C02891708F0EFC09F
:10353000AD9A90911B02891708F0EBC0969A909172
:103540001A02891708F0E7C0979A90911902891713
:1035500008F0E3C0909165009160909365009091B0
:103560001802891708F0DDC0909165009260909371
:10357000650090911702891708F0D7C0A89A90911A
:103580001602891708F0D3C090916500906190935E
:10359000650090911502891708F0CDC090916500E3
:1035A00098609093650090911402891708F0C7C045
:1035B000C79A90911302891708F0C3C0C59A9091D9
:1035C0001202891708F0BFC0C49A9091110289179E
:1035D00008F0BBC0C69A90911002891708F0B7C0D6
:1035E000DB9A90910F02891708F0B3C0DC9A909192
:1035F0000E02891708F0AFC0DD9A90910D0289176D
:1036000008F0ABC0DE9A90910C02891708F0A7C0B1
:10361000DF9A90910B02891708F0A3C09091650082
:1036200094609093650090910A02891708F09DC0FC
:103630001A9A90910902891708F099C01B9A9091E3
:103640000802891708F095C01C9A90910702891703
:1036500008F091C01D9A90910602891708F08DC05C
:103660009091620092609093620090910502891798
:1036700008F087C0C09A90910402891708F083C0AF
:103680009091620090689093620090910302891774
:1036900008F07DC0909162009064909362009091D8
:1036A0000202891708F077C09091620090629093AF
:1036B000620090910102891708F071C09091620038
:1036C00090619093620090910002891708F06BC09E
:1036D000909162009860909362009091FF01891729
:1036E00008F065C0809162008460809362008091E0
:1036F0001E028F5F80931E029F918F910F900FBECD
:103700000F901F901895909162009E7F0ACFAD9800
:1037100010CF969814CF979818CF909165009E7F00
:103720001CCF909165009D7F22CFA89828CF9091C3
:1037300065009F7E2CCF90916500977F32CFC79810
:1037400038CFC5983CCFC49840CFC69844CFDB98BB
:1037500048CFDC984CCFDD9850CFDE9854CFDF981F
:1037600058CF909165009B7F5CCF1A9862CF1B98D1
:1037700066CF1C986ACF1D986ECF909162009D7F96
:1037800072CFC09878CF909162009F777CCF909154
:1037900062009F7B82CF909162009F7D88CF909145
:1037A00062009F7E8ECF90916200977F94CF809130
:1037B00062008B7F9ACFCF93DF93EC0161E0888129
:1037C0000E94420360E08881DF91CF910C94140342
:1037D000CF92DF92EF92FF920F931F93CF93DF93DD
:1037E0001092C1021092C00288EE93E0A0E0B0E017
:1037F0008093C2029093C302A093C402B093C50207
:103800008EE591E09093BF028093BE021092CC02AD
:103810001092CD021092CE021092CF021092D002DE
:103820001092D1021092D2021092D3021092D402BE
:103830001092D5021092D60287E090E09093CB02CE
:103840008093CA0283E190E00E949A0AC82F82E125
:1038500090E00E949A0AD82F81E190E00E949A0A93
:10386000182F81E090E00E949A0A21E030E0309326
:10387000BB062093BA063093BD062093BC06109277
:10388000BE061092C2061092C4061092C306809320
:10389000B506212F205C330BC9012D2F382FC9010C
:1038A0009093B7068093B606CF77C093B806109270
:1038B000B9068DE18093BF0662E070E08DE190E093
:1038C0000E9401289093C1068093C0060097C9F01A
:1038D000EC0110E0EE24E394F12C8AE090E00E94E9
:1038E0001D28FC01F282E182138214821682158265
:1038F0001782118610861083899399931F5F1D315B
:1039000061F767E085ED96E00E94C00563E28FEC09
:1039100096E00E94C0058FE280937107C2E0C093D9
:10392000730710927407DFEFD09372071092750738
:1039300081E797E00E94DB1B80E380936C07C093D4
:103940006E0781E080936F07D0936D071092700728
:103950008CE697E00E94DB1B81E380936707C093AE
:103960006907C0936A07D093680710926B0787E6D0
:1039700097E00E94DB1B82E380936207C093640799
:1039800013E010936507D09363071092660782E6F1
:1039900097E00E94DB1B83E380935D07C0935F0782
:1039A00004E000936007D0935E07109261078DE5F5
:1039B00097E00E94DB1B84E380935807C0935A076B
:1039C00085E0E82EE0925B07D093590710925C07E0
:1039D00088E597E00E94DB1B98E0F92EF0925307F0
:1039E000C093550786E080935607D09354071092F2
:1039F000570783E597E00E94DB1B8EE280934E071A
:103A0000C093500787E080935107D0934F071092DF
:103A100052078EE497E00E94DB1BE0924907C093B7
:103A20004B07F0924C07D0934A0710924D0789E458
:103A300097E00E94DB1B00934407C093460789E090
:103A400080934707D09345071092480784E497E096
:103A50000E94DB1B10933F07C09341078AE08093CD
:103A60004207D0934007109243078FE397E00E94EC
:103A7000DB1BC0933A07C0933C078BE080933D0764
:103A8000D0933B0710923E078AE397E00E94DB1B2E
:103A900084E280933507C09337072CE0D22ED09272
:103AA0003807D09336071092390785E397E00E94D4
:103AB000DB1B85E280933007C09332073DE0E32EA5
:103AC000E0923307D09331071092340780E397E0F8
:103AD0000E94DB1B86E280932B07C0932D074EE0EC
:103AE000C42EC0922E07D0932C0710922F078BE282
:103AF00097E00E94DB1B87E280932607C09328078C
:103B00005FE0F52EF0922907D093270710922A073D
:103B100086E297E00E94DB1B88E280932107C09336
:103B2000230700E100932407D09322071092250772
:103B300081E297E00E94DB1B89E280931C07C0931F
:103B40001E0711E110931F07D0931D071092200745
:103B50008CE197E00E94DB1BC0921707C093190706
:103B600082E180931A07D093180710921B0787E110
:103B700097E00E94DB1BD0921207C093140783E1E9
:103B800080931507D09313071092160782E197E0F0
:103B90000E94DB1BE0920D07C0930F0784E1809326
:103BA0001007D0930E07109211078DE097E00E9446
:103BB000DB1BF0920807C0930A0785E180930B078F
:103BC000D093090710920C0788E097E00E94DB1B56
:103BD00000930307C093050786E180930607D093FF
:103BE00004071092070783E097E00E94DB1B109305
:103BF000FE06C093000787E180930107D093FF067C
:103C0000109202078EEF96E00E94DB1B1CE11093DE
:103C1000F906C093FB0608E10093FC06D093FA0670
:103C20001092FD0689EF96E00E94DB1B6BE1F62EF9
:103C3000F092F406C093F60679E1E72EE092F706DB
:103C4000D093F5061092F80684EF96E00E94DB1BF5
:103C50008AE18093EF06C093F1068093F206D09339
:103C6000F0061092F3068FEE96E00E94DB1BE092C6
:103C7000EA06C093EC06F092ED06D093EB061092A4
:103C8000EE068AEE96E00E94DB1B0093E506C093E9
:103C9000E7061093E806D093E6061092E90685EE53
:103CA00096E00E94DB1B81E28093E006C093E2066F
:103CB0008DE18093E306D093E1061092E40680EE56
:103CC00096E00E94DB1B8DE28093DB06C093DD064D
:103CD0008EE18093DE06D093DC061092DF068BED3A
:103CE00096E0DF91CF911F910F91FF90EF90DF90C1
:103CF000CF900C94DB1BCF93DF93CDB7DEB76297E9
:103D00000FB6F894DEBF0FBECDBF789483B78C6436
:103D100083BF87B7816087BF82E08EBD8EB581602B
:103D20008EBD8FB581608FBD85B5846085BD85B53D
:103D3000806485BD80918A00836080938A00809131
:103D40008B00816080938B0087E886B91AB80FB624
:103D5000F894A89581B5886181BD11BC0FBE61E062
:103D60008DE00E9442032FB7F89490E080E0FC01C0
:103D7000E150FE4F108201968F319105C1F780917D
:103D800062008E7F80936200AD989698979880919C
:103D900065008E7F80936500809165008D7F8093A4
:103DA0006500A898809165008F7E80936500809162
:103DB0006500877F80936500C798C598C498C698AA
:103DC000DB98DC98DD98DE98DF98809165008B7F2A
:103DD000809365001A981B981C981D98809162002A
:103DE0008D7F80936200C098809162008F7780936E
:103DF0006200809162008F7B8093620080916200FC
:103E00008F7D80936200809162008F7E809362003C
:103E100080916200877F80936200809162008B7F37
:103E2000809362002FBF9FB7F894809161008160FA
:103E300080936100A59A8E9A8F9A80916400816028
:103E40008093640080916400826080936400A09AF3
:103E50008091640080618093640080916400886038
:103E600080936400BF9ABD9ABC9ABE9AD39AD49AA2
:103E7000D59AD69AD79A8091640084608093640022
:103E8000129A139A149A159A809161008260809315
:103E90006100B89A80916100806880936100809190
:103EA00061008064809361008091610080628093F2
:103EB0006100809161008061809361008091610068
:103EC00088608093610080916100846080936100CC
:103ED0009FBF1FBC89E08EBD8CE093E09BBD8ABD77
:103EE00087B7806187BF10921E0261E08BE00E945D
:103EF000420360E085ED96E00E94B502E091D106B4
:103F0000F091D20690818091D0068095892380839C
:103F1000E091D306F091D40680819091D006892B50
:103F2000808329EDC22E21E0D22E3CE1E32E31E048
:103F3000F32E4AE5842E41E0942E77247394F60103
:103F4000049110E0C8010E949A0A682EC8010196E7
:103F50000E949A0AB82EC80102960E949A0AA82EB8
:103F6000C80103960E949A0A9091BF06691610F53F
:103F7000D7010D911C91F801A1828483862DB11087
:103F800042C10E94F7015C0141E050E0B8010E948B
:103F90005B17D50116969C938E931597862D0E94DC
:103FA000F7015C0150E040E0B8010E945B17F501A9
:103FB00091878087A895B2E0CB0ED11CE2E0EE0E8F
:103FC000F11C8E149F0409F0BACF61E070E084E028
:103FD00090E00E9401289093C4068093C306892B29
:103FE00091F010E000E0E090C306F090C406E00E0F
:103FF000F11E802F0E949A0CD7018C930F5F1F4FE8
:104000000430110581F780E00E94860C082F10E033
:1040100081E00E94860C282F30E0322F22272227B1
:104020003E7F000F111F202B312B3093C6062093AB
:10403000C50680FF05C021603093C6062093C506E3
:1040400085EF96E19093FC018093FB0180EB96E075
:104050009093FA018093F9011092F8011092F70100
:1040600010926A0210928C021092680281E0809392
:1040700067021092420261E083E10E94140361E052
:1040800082E10E941403809171008E7F8093710001
:10409000809171008D7F8093710088E4809370001F
:1040A00085E4809374008FE792E09093F60180930B
:1040B000F5018BE892E09093F4018093F30182E0A4
:1040C000809372008CE08093700010E001E0009318
:1040D000690210938B0210926A0210928C020E9465
:1040E0009A019091F201811103C09F5F9093F201B8
:1040F0001F5F1F3761F78091F201882311F161E0A2
:1041000070E090E00E9401287C019093F10180937F
:10411000F00100E010E0DD24D394D0926902109306
:104120008B0210926A0210928C020E949A018111F5
:1041300005C0F701E00FF11D10830F5F1F5F1F37F0
:1041400061F760E08AE00E944203EDEAF2E08491C8
:10415000E8E7F2E00491E3E4F2E0149111116EC09B
:10416000FF24F394F09231028FE190E00E941D2829
:104170008C0186E0F801818386E090E00E941D2892
:104180006C0166E10E94C005D8015E96DC92CE9279
:104190005D971093300200932F0281E893E00E9414
:1041A0009A0AF8018083843008F0CDC01093FE0194
:1041B0000093FD0160E0F80181810E94420360E00C
:1041C000D8015D968D919C910E94B502F8011682EE
:1041D000158213861286108A1786158A148A128E03
:1041E000118E148E138E81819CEF980F943020F0E5
:1041F0008251843008F08FEF42E050E067E273E1D3
:104200000E945C042AC00E94F701DC0113967C9294
:10421000B0E8BB1609F4C2CEF1E8BF12CBCE862DB2
:104220000E94F7015C0141E050E0B8010E945B1779
:10423000D50116969C938E931597BCCE81110E9442
:10424000DF02E12FF0E0EE0FFF1FE75DFD4FA591CC
:10425000B491EC91E02309F483CF81E090E00E94D7
:104260009A0A21E030E030932402209323028093C5
:10427000250281E190E00E949A0A21E130E030932A
:104280002702209326028093280282E190E00E9478
:104290009A0A22E130E030932A0220932902809387
:1042A0002B028DE190E00E94AB0C81FD4EC08DE1B0
:1042B00090E090932D0280932C0210922E0287E0C2
:1042C00080939F028093A00260E00E94420361E01D
:1042D00087E00E94140380E00E94D41488E19BE0F0
:1042E0000FB6F894A89581BD0FBE91BD72E0472E20
:1042F000512C8091320281110DC00E947303609392
:104300003C0270933D0280933E0290933F0281E015
:104310008093320280914002909141028130910558
:1043200009F4B1C260F1029709F4DBC5A895809148
:1043300031028823F1F280912F02909130020E9485
:104340007A0FA895D6CFF08231CF8DE190E00E9410
:10435000AB0C85FD0DC08091160190911701A091C5
:10436000180180932C0290932D02A0932E02A7CFC8
:104370008091190190911A01A0911B01F2CF8091B7
:1043800090028823B1F00E94DB030091910210910A
:1043900092022091930230919402601B710B820B68
:1043A000930B653171058105910518F080E00E943D
:1043B0008B0A8091AB02882309F448C0F89488E006
:1043C000E6EBF2E0A7ECB6E001900D928A95E1F7FA
:1043D0001092AB0278943091B602E8EBF2E090E0F4
:1043E00080E0391721F0219182279F5FFACF811158
:1043F0002DC080E090E0892B21F087EC96E00E94B0
:1044000000008091C906811128C09091CA069111BF
:1044100024C080E090E0892B19F080E00E94000029
:10442000809190028823A9F081E00E94D3088091B6
:10443000C20681110E9471090E94730360933C02BD
:1044400070933D0280933E0290933F020E94271595
:104450006DCF81E00E948B0AEACF90919002992360
:1044600009F486C08057803108F07FC081E00E9447
:10447000D3081091C7068091970218130AC0412FE4
:1044800050E069E972E089EC96E00E944229892BAC
:1044900061F01092960288E0E7ECF6E0A7E9B2E05E
:1044A00001900D928A95E1F7C2CF809196028F5FBD
:1044B00080939602133009F040C09091C906892F6D
:1044C0008770F090CA06853029F4F09295020E9418
:1044D000CB03ADCF0DE110E0843091F0282F30E018
:1044E0008430F0F4009195020023D1F00150110BBB
:1044F000000F111F000F111F020F131F0F5F1F4F1F
:1045000093FF10C061E0C8010E944A14882309F497
:104510008ECF6F2DC8010E94B114F81288CFD7CF6B
:104520008901ECCF60E0C8010E944A14882309F495
:104530007ECFC8010E94D10CF0CF143009F077CFA4
:104540008091C906682F70E0762F66276627737002
:104550009091CA06692B6F5F7F4F29ED33E0409140
:10456000CB068C700E94951562CF80E00E948B0A6A
:10457000E091C906EF3F61F48091CA06811157CFDF
:1045800080E090E0892B09F452CF0E9400004FCFC9
:10459000E7FD0DC00091CC062091CB064091CA06E4
:1045A00070E060E08E2F90E00E94031640CFE03C68
:1045B00008F058C130918E0237FF39CF2091CA06DA
:1045C000822F90E08C0100951095000F111F000FB5
:1045D000111F007C1170EF730E2B95958795F82FA6
:1045E000F370BF2E8091C706853041F52C782C30B2
:1045F00029F50E94D30C8017910721F00F3F11403D
:1046000009F015CF8091CA0690E0982F8827882757
:1046100093700091CB06080F192F111D0F5F1F4FCC
:10462000F090CC0661E0C8010E944A146F2D8823E7
:1046300009F4FDCEC8010E94B114F9CE680141E031
:10464000C41AD108CC0CDD1CCC0CDD1CCB287601A7
:104650005FEFE51AF50A8091A3028823F9F036FF8F
:1046600041C0C70160E071E00E94D027682F81E05F
:1046700090E00E94B114C701F7FE02C081509F4F25
:10468000692F89E090E00E94B11480E090E0892BCE
:1046900019F0C7010E9400001092A30280918E02BF
:1046A00080FD39C08091C706843009F04FC08091E9
:1046B000CA068978813009F0BACE6091CB0680E0D5
:1046C00090E0892B19F0C7010E94000080E090E083
:1046D000892B09F4ACCE4091CB066B2DC7010E940B
:1046E0000000A5CEB8016F73772781E090E00E94AB
:1046F000B114B801E6E075956795EA95E1F789E0B0
:1047000090E00E94B11480E090E0892B29F2C8016A
:104710000E940000C1CF86FF0DC00E94D30C8E15F1
:104720009F0509F4BFCF8DEFE81687E0F8060CF07F
:10473000B9CF7DCE0E94D30C8017910709F4B2CF78
:104740000F3F91E0190709F4ADCF71CE833069F5C1
:104750004091CA06A42FA170CA2E43FBDD24D0F8D5
:1047600080E090E0892B31F047702D2DB801C70112
:104770000E94000080918E0286FF0BC080E090E0D6
:10478000892B09F454CE4D2D6C2DC7010E940000D9
:104790004ECE80E090E0892B09F449CE2D2D4C2D92
:1047A0006B2DC8010E94000042CE863009F03FCE3A
:1047B0008091CA06982F9978913021F08F788038AF
:1047C00009F035CE80918E0286FF28C00E94D30C5E
:1047D0008E159F05E9F48091CB0690E0382F2227B3
:1047E000222733700091CC06020F132F111D0F5F8B
:1047F0001F4FF090CD069595879595958795837079
:1048000099278230910599F0039709F40BCF0FCEC9
:10481000BDEFEB16B7E0FB06F4F609CE0E94D30C11
:1048200080179107C1F20F3F1140A9F200CEF4FEAC
:10483000FECD61E0C8010E944A14882309F4F7CD37
:10484000C8010E94D10C9F2D977061E070E001C0FB
:10485000660F9A95EAF7F3FE02C0682BEBCE6095DF
:104860006823E8CEE83E08F0E2CDE05CFF0B8091E3
:10487000CA060091CD062091CC064091CB0661E09E
:1048800070E09E2F91CE06E213E09AE0E92EF12C23
:10489000DD24D39423E6C22E33E0B32E42E0A42ECF
:1048A0005BE1352ED8011B968D919C91019709F003
:1048B0003FC1F801E654F109808191813296608010
:1048C0007180680E791EF801118A128A168212868A
:1048D0001586168617861782108A138A1186158206
:1048E00014829301359527954801FCE58F1A9108AC
:1048F000F40161E070E086899789A72FA69541E0D1
:1049000050E04C0F5D1F4A0F511DDA0141E028179E
:1049100039070CF040E04C93713248F4408D518DD2
:10492000840F951F8E579109C19708F460E07E5F50
:104930003496743201F7FE013196CE9C9001CF9CE3
:10494000300D112448EA56E0421B530B90E080E002
:10495000708171118FC071817111A6C0D401A80F2F
:10496000B91F1D961C92019632968930910581F7E8
:10497000F80180819181A281B38185519540A1097F
:10498000B10983359B40A105B10508F070C16623CC
:1049900009F46DC181E046E9641671040CF080E011
:1049A000D80151968C93F801EC54F109908131971C
:1049B0008081B9E08B9F802D1124939D800D11245F
:1049C00032979081890F31964081942F990F940FDF
:1049D000890FF8018683EB54F10946E964167104E6
:1049E0000CF430C181E09081913009F080E0D80171
:1049F0001D968C938989880F9F85890F880F9D85C7
:104A0000890F880F9B85890F91E009F090E0F801EC
:104A1000968791E0813009F090E0D8011F969C9331
:104A200081118150F80187838289882309F456C057
:104A30008C85880F9E85890F880F9889890F880F2C
:104A40009A89890FEEEFE80FEE3008F047C0F0E0EA
:104A5000E45DFA4D0C94E4276125612569256925FB
:104A60000E260E266E256E251326132617261726CC
:104A70001C261C267130C1F42180A1E02A1206C038
:104A8000DA01A80FB91F1D962C926DCF21100CC012
:104A9000D401A80FB91F1D96AC92853008F463CFDE
:104AA000D80152967C935FCF853048F0DA01A80F89
:104AB000B91F1D96BC92D8015296DC9254CF60E08B
:104AC00057CFD8011996AC921997817053968C9351
:104AD00005C041E050E0F8015583448389E090E04F
:104AE000FAE0EF16F10411F08E199F09D8011C9617
:104AF0005C924E921B97C89EB001C99E700D112406
:104B0000FB01EF5CFC4F80819181029789F469522F
:104B10007D4F49E050E085EB96E0821B930B0E94AD
:104B20004229892B29F423E030E0F80134872387D8
:104B3000F1E0EF1AF1080D591F4FE114F10409F0EB
:104B4000B1CEE1E3F3E090E080E0208131812330D9
:104B5000310509F094C023E6289F8001299F100D9C
:104B60001124F801EF5CFC4F84E090E09183808396
:104B700009521D4F0115110509F468CC780125E58E
:104B8000E20EF11CD701EC91F0E0809125029F012B
:104B9000281B3109C9012130310509F4DDC00CF0B1
:104BA00076C0892B09F043CC80912202D801A45A07
:104BB000BF4F9C91992309F491C080618093220298
:104BC00090912202D801A85ABF4F8C91823009F4EB
:104BD000A0C008F085C0813009F48FC02091220266
:104BE00041E050E070E060E0CF010E94230DF80149
:104BF000ED5AFF4F808191818130910509F09FC06E
:104C00003396809125020DE110E021E030E04081F3
:104C100070E060E090E00E94A60E09CCD8011996E1
:104C2000BC92199752CFF8015582448257CFD801D0
:104C30001996DC92199749CF44E0F80141878170B9
:104C4000838B4CCF8081811112C08F85880F9D8509
:104C5000890F880F9B85890FD8011A968C9381E064
:104C60009989913009F080E0F801808B37CFE5E039
:104C7000F0E0D8011C96FC93EE931B9759CF019658
:104C8000ED59FF4F8A30910509F05FCFDFCB22301D
:104C9000310509F4ADC02330310509F0C8CB80E3FC
:104CA00090E00E94AB0C83FFC2CB80911F02F80101
:104CB000E85AFF4F9081923009F4FDC008F0E2C03D
:104CC000913009F4ECC0D7018C9120911F0244E08F
:104CD00050E070E060E08350990B59C08F7E6ECF3A
:104CE000833009F1843009F079CFD801AE59BF4F34
:104CF0008C91882311F1986007C0D801AE59BF4F3D
:104D00008C91882321F091609093220267CF9E7F3F
:104D1000FBCFD801AE59BF4F8C91882311F0926020
:104D2000F3CF9D7FF1CFD801AE59BF4F8C9188232F
:104D300011F09460E9CF9B7FE7CF977FE5CF029793
:104D400009F075CBF801EA5AFF4F809125020DE179
:104D500010E030E020E05BCF80E390E00E94AB0CFD
:104D600081FF65CB80912102F801E85AFF4F9081C5
:104D7000923041F178F49130C9F0D7018C912091B3
:104D8000210242E050E070E060E08150990B0E9407
:104D9000230D4DCB933001F1943079F7F801EE59A2
:104DA000FF4F9081992311F1886007C0F801EE59F7
:104DB000FF4F9081992321F0816080932102DDCF04
:104DC0008E7FFBCFF801EE59FF4F9081992311F0B0
:104DD0008260F3CF8D7FF1CFF801EE59FF4F9081C4
:104DE000992311F08460E9CF8B7FE7CF877FE5CFF0
:104DF00080E390E00E94AB0C82FF19CB80912002EF
:104E0000F801E85AFF4F9081923031F168F4913007
:104E1000B9F0F70180812091200243E050E070E07A
:104E200060E08250990BB3CF933001F1943089F751
:104E3000F801EE59FF4F9081992311F1886007C066
:104E4000F801EE59FF4F9081992321F08160809302
:104E50002002DFCF8E7FFBCFF801EE59FF4F90810C
:104E6000992311F08260F3CF8D7FF1CFF801EE59D5
:104E7000FF4F9081992311F08460E9CF8B7FE7CFBA
:104E8000877FE5CF933009F1943009F01CCFF8010A
:104E9000EE59FF4F9081992311F1886007C0F80106
:104EA000EE59FF4F9081992321F0816080931F027A
:104EB0000ACF8E7FFBCFF801EE59FF4F90819923E7
:104EC00011F08260F3CF8D7FF1CFF801EE59FF4FE3
:104ED0009081992311F08460E9CF8B7FE7CF877FA2
:104EE000E5CF8091C206811102C00E942F0A8091F5
:104EF0003A02882321F18FEC96E00E94AB058111E4
:104F0000A5CA8091BA069091BB06019789F41092C8
:104F1000BB061092BA068091C206811102C00E949F
:104F20002F0A8FEC96E00E94AB058823D1F38ECA3E
:104F300081E090E09093BB068093BA06ECCF85EDBC
:104F400096E00E94AB05811107C081E090E090934C
:104F5000BB068093BA067ACA1092BB061092BA06B4
:104F600075CA60E08FEC96E00E94B50260E085EDC6
:104F700096E00C94B502E199FECF9FBB8EBBE09A00
:104F800099278DB30895262FE199FECF9FBB8EBB45
:104F90002DBB0FB6F894E29AE19A0FBE01960895E0
:104FA00097FB072E16F4009407D077FD09D00E94D6
:104FB000ED2707FC05D03EF4909581959F4F08950D
:104FC000709561957F4F0895EE0FFF1F0024001C20
:104FD0000BBE0790F691E02D0994AA1BBB1B51E173
:104FE00007C0AA1FBB1FA617B70710F0A61BB70B59
:104FF000881F991F5A95A9F780959095BC01CD01FE
:1050000008950F931F93CF93DF93869F8001879F0F
:10501000100D969F100D1124C8010E941D28EC014F
:10502000009729F0A80170E060E00E944F29CE01AE
:10503000DF91CF911F910F9108950F931F93CF93FD
:10504000DF938230910510F482E090E0E0917807E0
:10505000F091790730E020E0B0E0A0E0309799F4DB
:105060002115310509F44AC0281B390B24303105BC
:10507000D8F58A819B816115710589F1FB019383C4
:105080008283FE0111C04081518102811381481742
:105090005907E0F04817590799F4109761F01296F4
:1050A0000C93129713961C933296CF01DF91CF91F8
:1050B0001F910F9108950093780710937907F4CF0B
:1050C0002115310551F04217530738F0A901DB01D2
:1050D0009A01BD01DF01F801C1CFEF01F9CF909333
:1050E000790780937807CDCFFE01E20FF31F8193FC
:1050F00091932250310939832883D7CF20917607A5
:1051000030917707232B41F4209112013091130144
:105110003093770720937607209110013091110189
:105120002115310541F42DB73EB74091140150913E
:105130001501241B350BE0917607F0917707E217F4
:10514000F307A0F42E1B3F0B2817390778F0AC01AA
:105150004E5F5F4F2417350748F04E0F5F1F509387
:10516000770740937607819391939FCFF0E0E0E03B
:105170009CCFCF93DF930097E9F0FC013297138225
:105180001282A0917807B0917907ED0130E020E01C
:105190001097A1F420813181820F931F209176070F
:1051A000309177072817390709F061C0F093770726
:1051B000E0937607DF91CF910895EA01CE17DF07DC
:1051C000E8F54A815B819E0141155105B1F7E9017E
:1051D000FB83EA8349915991C40FD51FEC17FD0752
:1051E00061F4808191810296840F951FE901998372
:1051F0008883828193819B838A83F0E0E0E012962A
:105200008D919C9113970097B9F52D913C91119731
:10521000CD010296820F931F209176073091770778
:105220002817390739F6309751F5109279071092FF
:105230007807B0937707A0937607BCCFD383C28358
:1052400040815181840F951FC817D90761F44E5FC3
:105250005F4F88819981480F591F518340838A810C
:105260009B81938382832115310509F0B0CFF093A0
:105270007907E09378079ECFFD01DC01C0CF138250
:105280001282D7CFFB01DC0104C08D9101908019FF
:1052900021F441505040C8F7881B990B0895DC0158
:1052A00001C06D9341505040E0F7089511E0CDE604
:1052B000D1E004C0FE010E94E4272196CE36D1073A
:0652C000C9F7F894FFCFCE
:1052C6007A0200000000000000000000000000005C
:1052D60000007A0780001D00021D002271076C077E
:1052E600670762075D07580753074E0749074407D4
:1052F6003F073A07350730072B07260721071C0704
:10530600170712070D0708070307FE06F906F40636
:10531600EF06EA06E506E006DB0600000000B80632
:0C5326008306E70659067C0669065A0655
:00000001FF
