:100000000C945D010C94C1120C9496120C946B121A
:100010000C9440120C9415120C94EA110C94BF111C
:100020000C9494110C9487010C9487010C94870113
:100030000C9410140C9487010C9487010C94870184
:100040000C944A110C9487010C9414110C94EA102E
:100050000C9487010C9487010C9487010C94870100
:100060000C9487010C9487010C9487010C948701F0
:100070000C9487010C9487010C9487010C948701E0
:100080000C9487010C94EC120C9487012803000057
:10009000000000060D0000000000000101C080000B
:1000A000000000000000000000060000000000004A
:1000B0000000000000000000000000000000000040
:1000C000000000000000FF3F0000000000000000F2
:1000D0000000000000000000000000000000000020
:1000E0000000000000000000000000000000000010
:1000F000000000000000000000000000010080007F
:1001000002008000030080000400800005008000E1
:1001100006008000070080000800800009008000C1
:100120000A0080000B0080000C0080000D008000A1
:100130000E0080000F008000100080001100800081
:100140001200800013008000140080001500800061
:10015000160080001700800018008000000080005A
:10016000000080000000800000008000000080008F
:100170001980FF001981FF00FF000000FF00000050
:10018000FF000000FF000000FF000000FF00000073
:10019000FF000000FF00000000003A0037003400BC
:1001A000310022006100640000003B00380035008F
:1001B0003200230062006500000039003600330081
:1001C0003000210020006300050505050505050533
:1001D00002020202020202020707040404040404E9
:1001E00004040707030303030303030307010101D7
:1001F00001010101010606060606060606010204C3
:1002000008102040800102040810204080081001DE
:10021000020408102040800102010204081020405E
:10022000800480402010080402010102040810200C
:1002300040800000000A0B0C0000000000000104D8
:1002400005060000000000000000000000000000A3
:10025000000000000000000000000000000000009E
:10026000000000000000007000740078007C008036
:1002700000840088008C009000940098009C00A0EE
:1002800000A400A800AC00B000B400B800BC00C0DE
:1002900000C400C800CC00D000D400D800DC00E0CE
:1002A00000E400E800EC00F000F400F800FC0000BE
:1002B00001040108010C0100671511241FBECFEFD6
:1002C000D0E1DEBFCDBF11E0A0E0B1E0EEE0FBE4A5
:1002D00000E00BBF02C007900D92AE37B107D9F70F
:1002E00027E0AEE7B1E001C01D92A43FB207E1F7FD
:1002F00011E0CDE5D1E004C02197FE010E94132456
:10030000CC35D107C9F70E9443180C9485250C946D
:1003100000009C016115710529F06130710571F0D3
:1003200080E00895809145078217130681F090912F
:10033000480781E09217130699F7089581E04091EC
:100340004607509147074217530751F7F6CF81E010
:10035000F4CFE82FF0E0E858FD4F60830895209136
:100360004E0730914F072115310549F090E0880F75
:10037000991F820F931FFC0180819181089590E065
:1003800080E0089520915407213099F49C0124586D
:10039000334028323105C8F0813823E09207A9F0B4
:1003A0009C012C5F334081E02530310578F080E0FE
:1003B0000895223021F49C012C5A3340EACF233097
:1003C00059F79C01245D3340E4CF81E008950895FE
:1003D000883008F5E82FF0E0EE0FFF1FE050FF4FE8
:1003E000718360838150873068F4E82FF0E0E55036
:1003F000FE4F0C9413240C021902270235023C0212
:100400004702530280916A008C7F482B40936A0018
:1004100089B7816089BF089580916A00837F440F06
:10042000551F440F551F482B40936A0089B78260BF
:10043000F1CF80916A008F7C74E0440F551F7A954C
:10044000E1F7482B40936A0089B78460E3CF80913D
:100450006A008F7366E0440F551F6A95E1F7482BD9
:1004600040936A0089B78860D5CF8AB78C7F482BC4
:100470004ABF89B78061CECF8AB7837F440F551FAB
:10048000440F551F482B4ABF89B78062C3CF8AB734
:100490008F7C24E0440F551F2A95E1F7482B4ABF73
:1004A00089B78064B7CF8AB78F7396E0440F551F22
:1004B0009A95E1F7482B4ABF89B78068ABCFFC011A
:1004C000538D448D252F30E0842F90E0821B930BB9
:1004D000541710F0CF96089501970895FC01918D5F
:1004E000828D981761F0A28DAE0FBF2FB11D5D9662
:1004F0008C91928D9F5F9F73928F90E008958FEF04
:100500009FEF0895FC01918D828D981731F0828DB7
:10051000E80FF11D858D90E008958FEF9FEF08950E
:10052000FC01918D228D892F90E0805C9F4F821B72
:1005300091098F7399270895FC01A48DA80FB92FF5
:10054000B11DA35ABF4F2C91848D90E001968F73FB
:100550009927848FA689B7892C93A089B1898C911A
:1005600080648C93938D848D981306C00288F389E0
:10057000E02D80818F7D80830895EF92FF920F930D
:100580001F93CF93DF93EC0181E0888F9B8D8C8D3F
:10059000981316C0E889F989808185FF11C0EE891A
:1005A000FF896083E889F98980818064808381E0A4
:1005B00090E0DF91CF911F910F91FF90EF90089500
:1005C000F62E0B8D10E00F5F1F4F0F731127E02EDB
:1005D0008C8D8E110CC00FB607FCFACFE889F98913
:1005E000808185FFF5CFCE010E949C02F1CFEB8D7B
:1005F000EC0FFD2FF11DE35AFF4FF0820B8FEA89BC
:10060000FB8980818062D2CFCF93DF93EC01888D0C
:100610008823B9F0AA89BB89E889F9898C9185FD7D
:1006200003C0808186FD0DC00FB607FCF7CF8C910B
:1006300085FFF2CF808185FFEDCFCE010E949C0225
:10064000E9CFDF91CF91089588E992E00E9490026E
:1006500021E0892B09F420E0822F089580E090E0CA
:10066000892B29F00E94240381110E94000080E060
:1006700090E0892B49F080E090E0892B29F00E94DE
:10068000000081110C9400000895E0911902F0918E
:100690001A02309729F01092230210922202099434
:1006A0000895CF93DF93AC01E0911702F091180207
:1006B0003097F1F090912502809124029817C0F0B4
:1006C00090E0292F30E02617370754F4D901A957B5
:1006D000BE4F240F351FE90128812C939F5FF1CF76
:1006E0001092250260932402CB01DF91CF910994EF
:1006F000DF91CF910895AF92BF92CF92DF92EF92A8
:10070000FF920F931F93CF93DF936C017B018B01BB
:10071000040F151FEB015E01AE18BF08C017D1070B
:1007200059F06991D601ED91FC910190F081E02D95
:10073000C6010995892B79F7C501DF91CF911F91EA
:100740000F91FF90EF90DF90CF90BF90AF90089502
:1007500081508C3088F5E82FF0E0EF54FC4F0C947A
:100760001324D903D903DC03BD03C103C403C703A6
:10077000DC03DC03CB03D103D5038FB58F778FBDAB
:1007800008958FB58F7DFBCF8FB5877FF8CF85B567
:100790008F7D85BD089580918B008F7780938B002E
:1007A000089580918B008F7DF9CF80918B00877F9A
:1007B000F5CF83B78F7D83BF0895CF93DF93282F25
:1007C00030E0F901EE5CFD4F8491F901E350FE4FFA
:1007D000D491F901E853FE4FC491CC23A1F08111CB
:1007E0000E94A803EC2FF0E0EE0FFF1FE854FE4F2D
:1007F000A591B491EC91ED2381E090E009F480E0C3
:10080000DF91CF91089580E090E0FACF1F93CF93CE
:10081000DF93282F30E0F901EE5CFD4F8491F90160
:10082000E350FE4FD491F901E853FE4FC491CC231D
:10083000A9F0162F81110E94A803EC2FF0E0EE0F13
:10084000FF1FE855FE4FA591B4918FB7F894EC9136
:10085000111108C0D095DE23DC938FBFDF91CF91BB
:100860001F910895DE2BF8CFCF93DF9390E0FC012A
:10087000E350FE4F249188539E4FFC0184918823BE
:10088000D1F090E0880F991FFC01E856FE4FA5912A
:10089000B491FC01E855FE4FC591D49161110EC091
:1008A0009FB7F8948C91E22FE0958E238C9328814A
:1008B000E223E8839FBFDF91CF9108958FB7F8942B
:1008C000EC91E22BEC938FBFF6CF3FB7F894809179
:1008D000130290911402A0911502B091160222B752
:1008E00006B600FE05C02F3F19F00196A11DB11DEF
:1008F0003FBFBA2FA92F982F8827BC01CD01620FC7
:10090000711D811D911D42E0660F771F881F991F81
:100910004A95D1F708950E94650420918101309194
:100920008201FB01E21BF30B20915F023091600218
:10093000E217F30708F438C1209161023091620296
:10094000709382016093810140916302509164022F
:100950004130510599F148F04230510509F4B9C0D0
:100960004330510509F4EFC00895E217F30708F08A
:10097000D4C0809166028F5F809366028B3008F44A
:1009800013C181E090E0909364028093630241E0A0
:1009900050E06BE874E0809159020E94E8011092E7
:1009A000800182E590E0909362028093610283E28D
:1009B00090E09093600280935F02089540918001DF
:1009C0004130A9F038F0433009F449C0443009F40B
:1009D0007CC00895E217F30730F491E09093800112
:1009E000E0937F01089584E0809380010895E217E9
:1009F000F30798F510928001909166029F5F9093A3
:100A000066028E2FEE0F990B20917F01821B9109B8
:100A100027FD939597FF03C091958195910949977B
:100A20000CF4C2C0109264021092630282E990E05A
:100A3000909362028093610282E590E0909360025D
:100A400080935F02109266024091470250E06BE88B
:100A500074E0809159020C94E80183E0C5CFE2175D
:100A6000F30700F380914702833061F582E08093C1
:100A7000470282E090E0909364028093630282E9EF
:100A800090E0909362028093610282E590E09093FF
:100A9000600280935F021092680210926A021092C4
:100AA0006B0210926C0210926D0210926E02109204
:100AB0006F02809166028093690210926602109222
:100AC0006702C2CF40934702D4CFE217F30788F6FC
:100AD000A9CF509166025F5F509366024091670212
:100AE000440FE217F307E0F040936702583009F033
:100AF0005BC0E0916802E630A9F4109264021092A3
:100B0000630282E990E0909362028093610282E541
:100B100090E09093600280935F02109266020895C5
:100B20004160E2CF83E090E090936402809363029F
:100B300081E08E0F80936802F0E0ED59FD4F8091C7
:100B4000670287830895E217F307F8F410926402AE
:100B5000109263021092660282E990E09093620222
:100B60008093610282E590E09093600280935F023F
:100B700088E0E8E6F2E0A0E7B2E001900D928A9505
:100B8000E1F781E0809365020895809168028630E4
:100B900009F4B3CF82E090E0909364028093630203
:100BA000109266021092670208958F929F92AF9200
:100BB000BF92CF92DF92EF92FF924B015C010E94B5
:100BC00065046B017C010E9465046C197D098E0926
:100BD0009F09683E734081059105A8F321E0821AC0
:100BE0009108A108B10888EEC80E83E0D81EE11C68
:100BF000F11C81149104A104B10429F7FF90EF9036
:100C0000DF90CF90BF90AF909F908F900895CF933B
:100C1000C091420361E08C2F0E94340460E08C2F6D
:100C20000E94060461E070E080E090E00E94D5053B
:100C300061E08C2F0E94060460E08C2FCF910C9411
:100C4000340461E088E00E94060464E070E080E023
:100C500090E00E94D50560E088E00C9406040C94B6
:100C600021062FB7F89460910F02709110028091C5
:100C70001102909112022FBF089585ED80937400A8
:100C80008091740084FDFCCF109221020895209180
:100C9000C701260F3327331F21323105ECF4209191
:100CA0002102FC0190E080E0243069F082E00895A8
:100CB000A091C7012191AC0149555E4FA40FB52FFA
:100CC000B11D2C930196861798F38091C701680F88
:100CD0006093C70180E0089581E008950895E09150
:100CE000250280912402E81730F4F0E0E957FE4F26
:100CF000808190E008958FEF9FEF089590912502F5
:100D0000809124022FEF3FEF981748F4E92FF0E08D
:100D1000E957FE4F208130E09F5F90932502C90183
:100D200008958091240290912502891B990B0895C2
:100D3000CF93DF93CB01EA01642F0E944706CE01D7
:100D4000DF91CF91089544E050E063E871E085E3DE
:100D500093E00C949806CF93DF931F92CDB7DEB744
:100D6000698361E0CE0101960E94470681E090E030
:100D70000F90DF91CF91089590E080E008950F9358
:100D80001F93CF93DF93FC018281813089F040F083
:100D9000823009F47AC0DF91CF911F910F910895AD
:100DA00061E08081DF91CF911F910F910C94060437
:100DB0000181C02FD0E0108161E0812F0E943404B6
:100DC000209719F460E0812FEDCFCF3FD10511F4CA
:100DD00061E0F9CFE12FF0E0EE5CFD4FE491E150EE
:100DE000EC3008F04DC0F0E0E850F94F0C941324BB
:100DF00004070407400709070F0715071D074007E9
:100E0000400722072C07360783B7806283BF01BFE4
:100E1000C2CF8FB580688FBDDBBDCABDBCCF8FB5DB
:100E200080628FBDD9BDC8BDB6CF8FB588608FBD7C
:100E3000D0937900C0937800AECF85B5806285BD30
:100E400003BDA9CF80918B00806880938B00D093E5
:100E50008700C09386009FCF80918B008062809333
:100E60008B00D0938500C093840095CF80918B0038
:100E7000886080938B00D0938300C09382008BCFD7
:100E8000C038D1050CF0A4CF9DCF8181E381F0E083
:100E9000E858FD4F80837FCF0F931F93CF93DF934D
:100EA000D62F8C01C0E0CD1741F0F80181919191CE
:100EB0008F010E94BF06CF5FF6CFDF91CF911F91C8
:100EC0000F9108950F931F93CF93DF93162F082F41
:100ED000EC0185E393E00E947E0689938C2F801BB2
:100EE0008117B8F3812FDF91CF911F910F91089552
:100EF000809142030E94DD03E0915003F0E0EF5B3C
:100F0000FC4F328520914F0341E050E060E070E0FB
:100F1000022E04C0440F551F661F771F0A94D2F794
:100F2000892B81F0432B42872F5F20934F030E9430
:100F3000650460934703709348038093490390933B
:100F40004A03089540954323EECFCF92DF92EF926C
:100F5000FF9280915103811172C00E943106C090AE
:100F60004303D0904403E0904503F09046036C198E
:100F70007D098E099F096A30710581059105A0F0F0
:100F800010924F03109250030E9431066093430366
:100F9000709344038093450390934603FF90EF9032
:100FA000DF90CF900C9478070E946504C0904703AF
:100FB000D0904803E0904903F0904A036C197D09F2
:100FC0008E099F096B30710581059105C0F10E9462
:100FD00065046C197D098E099F09643F7140810584
:100FE000910568F50E94780780914F03883039F5A4
:100FF0000E9431066093430370934403809345033A
:101000009093460310924F0380915003811104C0C6
:1010100081E08093500313C08130B1F480914B0381
:101020008E3611F08E3511F482E0F3CF982F977F32
:101030009737D1F38B37C1F381E080935103FF9051
:10104000EF90DF90CF9008958230B1F780914B03FD
:101050008E3611F08E3581F783E0DBCF80937E01F1
:101060008BEE97E00C94BF06CF93C82F80914A0275
:101070008C1731F081E0C11101C080E00E942E0880
:10108000C0934A0260E070E0CB01C1110E943106BA
:1010900060934B0270934C0280934D0290934E02EA
:1010A00080914A028C1739F081E0C11101C080E0C3
:1010B000CF910C942E08CF91089580E090E0892B79
:1010C00029F080915E0283FD0C94000008951F9327
:1010D000CF93DF930FB6F894A89581B5886181BD51
:1010E00011BC0FBECCE1D1E01FEF89919991FC01B9
:1010F00011830E94BF06F1E0CA35DF07B1F7DF9127
:10110000CF911F910895E82FF0E0E858FD4F6083DC
:1011100008958F929F92AF92BF92CF92DF92EF92FB
:10112000FF920F931F93CF930E946504AB01BC0104
:101130008091540390915503A0915603B0915703A9
:101140008A019B01081B190B2A0B3B0B80915C0346
:10115000882309F47FC080915E0390915D03E92F9D
:10116000EE0FFF0BA82F082E000CBB0BC3E68C0262
:10117000E00DF11D1124EE5AFC4F178B068B053F35
:1011800011402105310508F054C09F5F90935D0325
:1011900090915D039332C9F593E69A9F90019B9FCE
:1011A000300D11242E5A3C4FF901E45AFF4FC090E4
:1011B0005803D0905903E0905A03F0905B034A0122
:1011C0005B018C189D08AE08BF0875016401C082E0
:1011D000D182E282F38229593F4FE1E0F0E0D90168
:1011E000ED93FC938F5F8A3094F580935E03E091DA
:1011F0005E03B3E6EB02F0011124E754FC4F1182C9
:10120000108210925C0310925D034093540350933C
:1012100055036093560370935703CF911F910F911D
:10122000FF90EF90DF90CF90BF90AF909F908F9006
:10123000089510925D0391E090935C0340935803EE
:101240005093590360935A0370935B03A1CF10929C
:101250005E03CDCF053F114021053105B0F281E09D
:1012600080935C03409358035093590360935A034F
:1012700070935B03CACFFF920F931F93CF93DF93BB
:10128000F62E8C01C0E0CF15F9F0D801ED91FD915B
:101290008D018281813051F020F0823079F0CF5F72
:1012A000F2CF60E080810E940604F9CFD08161E036
:1012B0008D2F0E94340460E08D2FF5CFE381F0E0A4
:1012C000E858FD4F1082EBCFDF91CF911F910F9126
:1012D000FF900895CF93DF93EC018C819D8100975F
:1012E00019F06B810E943B098F819885009729F046
:1012F0006E81DF91CF910C943B09DF91CF910895DE
:101300000F931F93CF938C01C42F0E9489018823D0
:10131000E1F180914807482F50E0C03128F588233B
:1013200019F12C2F30E080915207909153070C2E29
:1013300002C0969587950A94E2F780FF15C00417BE
:10134000150719F580914E0790914F070097E9F026
:10135000220F331F820F931FFC0180819181CF9157
:101360001F910F910C946A090417150771F0809171
:101370004E0790914F07009741F04C2F50E0440FDB
:10138000551F480F591FFA01E8CFCF911F910F91B8
:1013900008951F93CF93DF93EC018A81882359F03E
:1013A000162F8981861721F0CE010E946A091983C0
:1013B0008981882331F08C819D81009761F06B8158
:1013C00005C08F819885009731F06E81DF91CF91B4
:1013D0001F910C944C07DF91CF911F9108950F93AB
:1013E0001F93CF938C01C42F0E948901882309F495
:1013F00040C080914807482F50E0C03138F588231D
:1014000029F12C2F30E080915207909153070C2E38
:1014100002C0969587950A94E2F780FF17C00417DB
:10142000150739F580914E0790914F07009709F104
:10143000220F331F820F931F60914B07FC018081A5
:101440009181CF911F910F910C94C9090417150731
:1014500081F080914E0790914F07009751F04C2FEB
:1014600050E0440F551F480F591F60914A07FA0179
:10147000E6CFCF911F910F9108950E943408E8E4C0
:10148000F2E081E087831086E1E5F2E088E0DF01A9
:101490001D928A95E9F70895CF92DF92EF92FF921D
:1014A0000F931F93CF93DF93EC017B014423F9F05B
:1014B000CC80DD802396C114D104E9F462E070E0B1
:1014C00081E090E00E9430248C01009731F0FC0113
:1014D000F182E08288818F5F8883C801DF91CF919C
:1014E0001F910F91FF90EF90DF90CF900895CF80E4
:1014F000D8842696E0CF88818F5F8883C82FD0E07C
:1015000062E070E0CE010E9430248C0120E0BE0138
:1015100061507109822F90E08617970774F4880F45
:10152000991FF601E80FF91F40815181800F911F2B
:10153000FC01518340832F5FEDCFC150D048CC0FC9
:10154000DD1FC00FD11FF982E882C6010E94E82486
:10155000C4CF0C94EA23DF92EF92FF920F931F9374
:10156000CF93DF938C017B01D42EE9010E94890186
:101570008111D0924C078DE190E00E94A90AD82EEB
:10158000B701C8010E9489018823C1F080914807F2
:1015900080171106D9F480914B078C171D0671F046
:1015A00080914907882329F081E0CD2B29F080E044
:1015B00003C081E0CD2BD9F380934B07DF91CF910E
:1015C0001F910F91FF90EF90DF90089580914A074F
:1015D0008C171D0699F381E0D0FE04C0CD2B21F0BD
:1015E00080E002C0CD2BE1F380934A07E7CF1F9341
:1015F000CF93DF93EC0180917E01882359F08FE037
:1016000090E00E94A90A182F80E190E00E94A90AA8
:10161000181306C0CE01DF91CF911F910C94A90A37
:101620000E946708FFCF0C94F70ACF93DF932091B5
:101630005B0230915C022F3F320721F0C901DF913C
:10164000CF91089580915E0287FF2BC086FF0FC067
:1016500089E090E00E94130BC82F81E090E00E9487
:10166000130B9C2F90935C0280935B0215C089E062
:1016700090E00E94130BC82F81E090E00E94130BB2
:1016800090E4C99F90011124207C31708F73282B26
:1016900030935C0220935B0280915B0290915C022C
:1016A000CECF85FF0CC081E190E00E94130BC82FC4
:1016B00082E190E00E94130BC05CDD0BD2CF81E091
:1016C00090E00E94130B90E0CDCFFF920F931F93F9
:1016D000CF93DF93EC018B01F22E4330510509F4D7
:1016E0007EC068F441305105E9F04230510509F4FB
:1016F00058C0DF91CF911F910F91FF900895453011
:10170000510509F4D4C008F488C04630510589F762
:1017100040E024FF2CC0DF91CF911F910F91FF90EB
:101720000C94EF0980913F0281112BC040E0B80179
:10173000CE01F4FE23C00E94EF0941E0B801CE01C2
:10174000F0FE26C00E94EF0942E0B801CE01F1FE92
:1017500022C00E94EF0943E0B801CE01F2FE1EC094
:101760000E94EF0944E0B801CE01F3FCD4CFDF9131
:10177000CF911F910F91FF900C9480090E948009D6
:10178000DCCF8DE190E00E94130B81FDCFCFD5CF50
:101790000E948009D9CF0E948009DDCF0E94800974
:1017A000E1CF45E020FF12C00E94EF0946E0B801FA
:1017B000CE01F1FE0EC00E94EF0947E0B801CE0154
:1017C000F2FE0AC00E94EF0948E0CDCF0E948009D6
:1017D000EDCF0E948009F1CF0E948009F5CF49E04A
:1017E00020FF12C00E94EF094AE0B801CE01F1FECD
:1017F0000EC00E94EF094BE0B801CE01F2FE0AC014
:101800000E94EF094CE0AFCF0E948009EDCF0E940B
:101810008009F1CF0E948009F5CF4DE020FF32C052
:101820000E94EF094EE0B801CE01F1FE2EC00E94E9
:10183000EF094FE0B801CE01F2FE2AC00E94EF0985
:1018400040E1B801CE01F3FE26C00E94EF0941E15C
:10185000B801CE01F4FE22C00E94EF0942E1B801B6
:10186000CE01F5FE1EC00E94EF0943E1B801CE0192
:10187000F6FE1AC00E94EF0944E1B801CE01F7FE5E
:1018800076CF49CF0E948009CDCF0E948009D1CF69
:101890000E948009D5CF0E948009D9CF0E9480097B
:1018A000DDCF0E948009E1CF0E948009E5CF45E1AC
:1018B00020FF2EC00E94EF0946E1B801CE01F1FEE3
:1018C0002AC00E94EF0947E1B801CE01F2FE26C00E
:1018D0000E94EF0948E1B801CE01F3FE22C00E9448
:1018E000EF0949E1B801CE01F4FE1EC00E94EF09E4
:1018F0004AE1B801CE01F5FE1AC00E94EF094BE1A2
:10190000B801CE01F6FE16C00E94EF094CE1B5CF3A
:101910000E948009D1CF0E948009D5CF0E94800902
:10192000D9CF0E948009DDCF0E948009E1CF0E94BB
:101930008009E5CF0E948009E9CFCF93C82F81E0CD
:1019400090E00E94A90A2C2F42E050E070E060E095
:1019500090E00E94650B81E090E00E94A90A2C2F84
:1019600030E094E0359527959A95E1F743E050E013
:1019700070E060E090E0CF910C94650BCF938230E3
:10198000910511F1C62F8330910520F4019779F06C
:10199000CF91089583309105D9F00497C9F781E07C
:1019A00090E00E94A90A2C2F45E050E007C081E09A
:1019B00090E00E94A90A2C2F41E050E070E060E026
:1019C00090E0CF910C94650B862FCF910C949D0CD9
:1019D00081E090E00E94A90A2C2F44E050E0EECF75
:1019E0000F931F93CF93C82F81E090E00E94A90A24
:1019F0000FE710E021E030E04C2F70E060E090E075
:101A00000E94AB0ACF911F910F9108950F931F93DE
:101A1000CF936130710529F4CF911F910F910C94F0
:101A2000F00CC82F81E090E00E94A90A0FE710E0B7
:101A300030E020E04C2F70E060E090E00E94AB0AC4
:101A4000CF911F910F910895CF93C82F8FE290E00F
:101A50000E94A90A811109C085E190E0CC2311F010
:101A600086E190E0CF910C94A90A80E0CF9108958F
:101A7000CF93C82F8FE290E00E94A90A811106C07F
:101A80008C2F90E0CA96CF910C94A90A80E0CF9158
:101A90000895CF93863823E0920719F130F4813806
:101AA0009340D1F08FEFCF910895873823E09207CC
:101AB000D9F088389340B1F786E893E00E94A90AEC
:101AC000C82F87E893E00E94A90A90E02FEFC29FF9
:101AD000800D911D112402C081E893E0CF910C94F8
:101AE000A90A86E893E0FACF87E893E0F7CF1F933F
:101AF000CF93DF930FB6F894A89581B5886181BD27
:101B000011BC0FBED0E0C0E0FE01E457FF4F1491BE
:101B1000CE010E94EA23181721F0612FCE010E9406
:101B2000F2232196CC3081E0D80771F781E893E069
:101B30000E94EA23813029F061E081E893E00E946D
:101B4000F2230E94670888E19BE00FB6F894A895FD
:101B500081BD0FBE91BDDF91CF911F9108951F935D
:101B6000CF93DF93EC01162F089779F4662319F1D0
:101B70000E94770D80E090E0892BB9F0612FCE01B3
:101B8000DF91CF911F910C94000080E090E0892BB1
:101B9000A9F781E0C11590E1D90708F080E01111A3
:101BA00005C0DF91CF911F91089581E0279722977B
:101BB000C0F780E0F6CF80E090E0892BF9F681E075
:101BC000F0CF1F93CF93DF93EC01162F0E94EA23EF
:101BD000181721F0612FCE010E94F223CE01DF9170
:101BE000CF911F910C94A90ACF93DF93863823E0FD
:101BF000920739F138F481389340E9F08FEFDF91A3
:101C0000CF910895873823E09207F1F08838934008
:101C1000A9F7C62F86E893E00E94A90AD82F87E883
:101C200093E00E94A90A90E06C2F2FEFD29F800DC5
:101C3000911D112402C081E893E0DF91CF910C94B3
:101C4000E10D86E893E0F9CF87E893E0F6CF0F93B4
:101C50001F93CF93DF9320917E01222329F08F30B1
:101C6000910541F48FE090E0DF91CF911F910F91AA
:101C70000C94E10D162FEC018FE090E00E94A90A70
:101C8000082F80E190E00E94A90A08130DC0C73018
:101C9000D10531F0C830D10521F4183031F0FFCF33
:101CA000FFCF612FCE01E0CFFFCF0E94770D88E0FC
:101CB000DF91CF911F910F9108950F931F93CF93B1
:101CC000DF93CDB7DEB729970FB6F894DEBF0FBE0E
:101CD000CDBF181619069CF585E393E00E947E0699
:101CE000992782309105D9F08330910599F10197B8
:101CF00059F464E083E891E00E94620780918601D4
:101D00008823B9F18130F1F190912402809125026C
:101D10009817A9F085E393E00E947E06F5CF69E06D
:101D2000CE0101960E946207088519852E813F81A8
:101D30006B817C814D8189819A810E94AB0A2996B1
:101D40000FB6F894DEBF0FBECDBFDF91CF911F91CC
:101D50000F91089567E0CE0101960E9462074D81C0
:101D60005E816B817C812F8189819A810E94650BC4
:101D7000E6CF80918401909185010E94F70A8093BB
:101D80008301C2CF6091830180918401909185018C
:101D90000E94270EF4CF8331910588F4813191059B
:101DA00030F48130910519F08930910531F42FEF2D
:101DB0003FEF30935C0220935B020C94270E8D3131
:101DC0009105D9F7677F60935E02209148022F73D7
:101DD000362F307C232B20934802E9CF1F93CF93DB
:101DE000DF93182FE3E6F2E085E1DF011D928A958B
:101DF000E9F782E990E0909362028093610282E5C4
:101E000090E09093600280935F02C8E4D2E0688320
:101E100019828FEF9FEF9C8B8B8B1D8A83E08093C1
:101E2000470243E050E06BE874E089890E94E801D2
:101E30008DE190E00E94130B682F6F738DE190E0AD
:101E40000E94CB0E8E8B612F87E090E00E94CB0E1C
:101E50006DE088E090E00E94CB0E80E0DF91CF91B2
:101E60001F910C943D0A8091450290914602813069
:101E7000910581F118F00297E1F1089580E390E077
:101E80000E94F70A80FF1DC089B78F7789BF87EE50
:101E900091E090930F0180930E0189E898E0909370
:101EA0000F0180930E018AB78F7380648ABF89B750
:101EB000806889BF81E090E090934602809345025C
:101EC00008958DE190E00E94F70A82FF22C082E02F
:101ED00090E0F2CF89B78F7789BF87EE91E090933A
:101EE0000F0180930E018DE190E00E94F70A82FDC0
:101EF000EECF87E08093590280935A0260E00E94FF
:101F0000340461E08AE00E94EE0E109246021092C4
:101F100045020895BF92CF92DF92EF92FF920F9306
:101F20001F93CF93DF938B01B42E690182FF23C0EF
:101F300083FF17C061E0C8010E94AF0D8823D9F16B
:101F40006B2DC8010E94CB0E8B1135C0F601DF91BD
:101F5000CF911F910F91FF90EF90DF90CF90BF90A6
:101F6000099460E0C8010E94AF0D882321F1C801E7
:101F70000E94130BE9CF842F8770C1E0D0E07E016F
:101F800001C0EE0C8A95EAF7D42FD870CB010E94DD
:101F9000130BC82FB4FE1CC061E0C8010E94AF0D36
:101FA000882349F0DD2389F0CE296C2FC8010E94D7
:101FB000CB0E8C1759F2DF91CF911F910F91FF90AB
:101FC000EF90DF90CF90BF900895E094CE21EDCFB9
:101FD00060E0C8010E94AF0D882369F3CE21DD23A4
:101FE00019F0C111B3CFE7CFCC2309F4AFCFE3CFC2
:101FF000CF92DF92EF92FF920F931F93CF93DF93D5
:102000007C016B01C42F122FD42FD07E8091480207
:1020100087FF2CC0D03EC1F5809149028823A1F1F1
:1020200090E00E94130BD82F8091490290E0019616
:102030000E94130B982F8D2FE816F90629F56C2FA7
:1020400070E0762F662766277370612B6F5F7F4F76
:102050002DE538E0402F8C2FDF91CF911F910F910C
:10206000FF90EF90DF90CF900C948A0F80FD32C0EC
:10207000D03609F464C088F4D03209F447C0D034B3
:1020800009F45DC0DD2379F1DF91CF911F910F91AC
:10209000FF90EF90DF90CF900895D03A09F483C07D
:1020A00090F42C2F2F7141E050E0D03869F7B60141
:1020B000C701DF91CF911F910F91FF90EF90DF90BB
:1020C000CF900C94650BD03C09F476C0D03E09F457
:1020D000B6CFDACF0E94150B8E159F0549F2E11499
:1020E000F10431F2D1CF8C2F8E7071F680E090E048
:1020F000892B51F28C2F8170DF91CF911F910F911D
:10210000FF90EF90DF90CF900C940000CF71CF3113
:1021100009F0BACF412F4F7771F0413071F0111FA4
:102120001127111F212F30E00FE710E0B601C70182
:102130000E94AB0AA9CF41E0F2CF40E0F0CF2C2FB4
:1021400030E08C2F8F71813029F030F0803121F018
:102150008131F9F440E001C041E025FB222720F95C
:102160000DE110E030E0B601C7010E94AB0A80E04B
:1021700090E0892B09F488CF4C2FB601C701DF917D
:10218000CF911F910F91FF90EF90DF90CF900C9423
:102190000000C901880F991F8E71C4FB442740F9C4
:1021A000482B4250DACF2C2F2F7043E050E0C4FF71
:1021B0007ECF42E050E07BCFCF71CE3139F0CF31CE
:1021C00009F062CF212F45E050E071CF212F44E08C
:1021D00050E06DCF1F920F920FB60F9211240BB6E5
:1021E0000F922F933F934F935F936F937F938F93B0
:1021F0009F93AF93BF93EF93FF9388E992E00E9480
:102200009C02FF91EF91BF91AF919F918F917F9130
:102210006F915F914F913F912F910F900BBE0F9057
:102220000FBE0F901F9018951F920F920FB60F922E
:1022300011240BB60F922F938F939F93EF93FF93DD
:10224000E091A802F091A9028081E091AE02F091A4
:10225000AF0282FD1DC090818091B1028F5F8F73AC
:102260002091B202821741F0E091B102F0E0E8560D
:10227000FD4F958F8093B102FF91EF919F918F91C8
:102280002F910F900BBE0F900FBE0F901F901895BF
:102290008081F2CF1F920F920FB60F9211242F93CD
:1022A0003F938F939F93AF93BF9380910F02909131
:1022B0001002A0911102B091120230910E0223E09F
:1022C000230F2D3768F126E8230F0296A11DB11DBB
:1022D00020930E0280930F0290931002A09311029C
:1022E000B09312028091130290911402A0911502F2
:1022F000B09116020196A11DB11D80931302909317
:102300001402A0931502B0931602BF91AF919F9152
:102310008F913F912F910F900FBE0F901F901895A6
:102320000196A11DB11DD4CF1F920F920FB60F922F
:1023300011240BB60F922F933F934F935F936F939C
:102340007F938F939F93AF93BF93EF93FF93E0910E
:102350000E01F0910F010995FF91EF91BF91AF919F
:102360009F918F917F916F915F914F913F912F91AD
:102370000F900BBE0F900FBE0F901F9018951F92DD
:102380000F920FB60F9211240BB60F922F933F931B
:102390004F935F936F937F938F939F93AF93BF936D
:1023A000EF93FF93E0910C01F0910D010995FF91DE
:1023B000EF91BF91AF919F918F917F916F915F91BD
:1023C0004F913F912F910F900BBE0F900FBE0F902A
:1023D0001F9018951F920F920FB60F9211240BB6F3
:1023E0000F922F933F934F935F936F937F938F93AE
:1023F0009F93AF93BF93EF93FF93E0910A01F09106
:102400000B010995FF91EF91BF91AF919F918F9132
:102410007F916F915F914F913F912F910F900BBEE4
:102420000F900FBE0F901F9018951F920F920FB62E
:102430000F9211240BB60F922F933F934F935F93FC
:102440006F937F938F939F93AF93BF93EF93FF937C
:10245000E0910801F09109010995FF91EF91BF9179
:10246000AF919F918F917F916F915F914F913F912C
:102470002F910F900BBE0F900FBE0F901F901895CD
:102480001F920F920FB60F9211240BB60F922F933B
:102490003F934F935F936F937F938F939F93AF93EC
:1024A000BF93EF93FF93E0910601F0910701099527
:1024B000FF91EF91BF91AF919F918F917F916F911C
:1024C0005F914F913F912F910F900BBE0F900FBED8
:1024D0000F901F9018951F920F920FB60F92112414
:1024E0000BB60F922F933F934F935F936F937F930E
:1024F0008F939F93AF93BF93EF93FF93E09104016A
:10250000F09105010995FF91EF91BF91AF919F91D6
:102510008F917F916F915F914F913F912F910F908C
:102520000BBE0F900FBE0F901F9018951F920F9229
:102530000FB60F9211240BB60F922F933F934F9328
:102540005F936F937F938F939F93AF93BF93EF931B
:10255000FF93E0910201F09103010995FF91EF9142
:10256000BF91AF919F918F917F916F915F914F91AB
:102570003F912F910F900BBE0F900FBE0F901F90A9
:1025800018951F920F920FB60F9211240BB60F924F
:102590002F933F934F935F936F937F938F939F936B
:1025A000AF93BF93EF93FF93E0910001F09101018E
:1025B0000995FF91EF91BF91AF919F918F917F917D
:1025C0006F915F914F913F912F910F900BBE0F90A4
:1025D0000FBE0F901F9018951F920F920FB60F927B
:1025E00011240BB60F922F933F934F935F936F93EA
:1025F0007F938F939F93AF93BF93EF93FF938091BC
:102600007100887F803609F44DC008F040C08832E0
:1026100009F4A9C028F5803109F49DC0C8F48823C5
:1026200009F4FBC0883009F496C0FF91EF91BF9187
:10263000AF919F918F917F916F915F914F913F915A
:102640002F910F900BBE0F900FBE0F901F901895FB
:10265000883109F488C0803241F78093EA0114C0C0
:10266000803409F49DC040F48033B9F38833E9F62F
:102670008093EA0185ECB0C0803509F485C08835C7
:1026800009F496C0883489F60E943D06CECF883979
:1026900009F48CC038F5883729F050F4883611F0E9
:1026A000803719F683E0809321021092E90157C028
:1026B000883809F47BC0803919F0803809F0B5CF2B
:1026C0008091E901803208F071C0E091E90181E078
:1026D0008E0F8093E90180917300F0E0E753FE4F85
:1026E00080833DC0803B39F0E0F4803A09F479C042
:1026F000883A09F09ACF84E0809321021092C801B1
:102700001092C701E0911D02F0911E02099580917F
:10271000C70181110FC081E08093C7011092A7010A
:1027200009C0803C09F4A6CF883C09F4A3CF883BBC
:1027300009F07BCFE091C80181E08E0F8093C80142
:10274000F0E0E955FE4F8081809373009091C801BD
:102750008091C70129C080910D028093730085ECA0
:102760008093740062CF90910C0280910B029817B5
:1027700058F5E0910C0281E08E0F80930C02F0E09E
:10278000E551FE4F8081E9CFE0910C0281E08E0F90
:1027900080930C0280917300F0E0E551FE4F80833E
:1027A00090910C0280910B029817C8F285E8D8CF5F
:1027B000E0910C0281E08E0F80930C0280917300F7
:1027C000F0E0E551FE4F80838091200281115CCFC3
:1027D00081E080931F0284EA8093740010922102AA
:1027E00024CF85EC80937400109221028091E9013E
:1027F000803230F4E091E901F0E0E753FE4F1082BF
:102800006091E90170E0E0911B02F0911C0289ECFB
:1028100091E009951092E90108CF1092EA0134CFB6
:102820001F920F920FB60F9211248F939F9378945B
:102830008091970290919602891708F0E9C0AF9AAB
:1028400090919502891708F0E5C0AD9A9091940295
:10285000891708F0E1C09091620094609093620043
:1028600090919302891708F0DBC09091620091600B
:102870009093620090919202891708F0D5C09091D0
:10288000620098609093620090919102891708F01D
:10289000CFC09091620090619093620090919002FD
:1028A000891708F0C9C0909162009260909362000D
:1028B00090918F02891708F0C3C01A9A90918E02E6
:1028C000891708F0BFC01B9A90918D02891708F0F4
:1028D000BBC01C9A90918C02891708F0B7C01D9A52
:1028E00090918B02891708F0B3C0909162009062BA
:1028F0009093620090918A02891708F0ADC0959A72
:1029000090918902891708F0A9C09091650098609C
:102910009093650090918802891708F0A3C0C79A28
:1029200090918702891708F09FC0C69A90918602FD
:10293000891708F09BC0C59A90918502891708F005
:1029400097C0C49A90918402891708F093C090911F
:10295000650094609093650090918302891708F058
:102960008DC0AB9A90918202891708F089C0DF9AD6
:1029700090918102891708F085C0DE9A90918002BB
:10298000891708F081C0DD9A90917F02891708F0BD
:102990007DC0DC9A90917E02891708F079C0DB9A9D
:1029A00090917D02891708F075C0AC9A90917C02D5
:1029B000891708F071C0909165009160909365004F
:1029C00090917B02891708F06BC09091650092602E
:1029D0009093650090917A02891708F065C0A89AD3
:1029E00090917902891708F061C0A99A90917802B4
:1029F000891708F05DC0AA9A809197028F5F809333
:102A000097029F918F910F900FBE0F901F90189576
:102A1000AF9816CFAD981ACF909162009B7F1ECFD2
:102A2000909162009E7F24CF90916200977F2ACF81
:102A3000909162009F7E30CF909162009D7F36CF53
:102A40001A983CCF1B9840CF1C9844CF1D9848CF74
:102A5000909162009F7D4CCF959852CF90916500E8
:102A6000977F56CFC7985CCFC69860CFC59864CF84
:102A7000C49868CF909165009B7F6CCFAB9872CF64
:102A8000DF9876CFDE987ACFDD987ECFDC9882CF44
:102A9000DB9886CFAC988ACF909165009E7F8ECFD1
:102AA000909165009D7F94CFA8989ACFA9989ECFCA
:102AB000AA98A2CFCF93DF93EC0161E088810E94B6
:102AC000340460E08881DF91CF910C9406046F920A
:102AD0007F928F929F92AF92BF92CF92DF92EF92AE
:102AE000FF920F931F93CF93DF9310929B0210924C
:102AF0009A0288EE93E0A0E0B0E080939C0290936D
:102B00009D02A0939E02B0939F022EE531E0309388
:102B100099022093980220E930E03093A502209397
:102B2000A40229E230E03093A7022093A6022BE210
:102B300030E03093A9022093A8022AE230E03093DB
:102B4000AB022093AA0225E930E03093AD02209336
:102B5000AC022CE230E03093AF022093AE02109230
:102B6000B1021092B2021092B3021092B40210920B
:102B70003803109237038093390390933A03A0935C
:102B80003B03B0933C0380E791E09093360380933E
:102B900035038EE1D82ED092EB07C2E0C093ED074B
:102BA0001092EE07DFEFD093EC071092EF078BEE59
:102BB00097E00E945A151DE11093E607C093E807BD
:102BC000FF24F394F092E907D093E7071092EA0705
:102BD00086EE97E00E945A159CE1C92EC092E1074B
:102BE000C093E307C093E407D093E2071092E50790
:102BF00081EE97E00E945A152BE1B22EB092DC07CD
:102C0000C093DE0733E0832E8092DF07D093DD0789
:102C10001092E0078CED97E00E945A154AE1A42E2D
:102C2000A092D707C093D90754E0752E7092DA07A7
:102C3000D093D8071092DB0787ED97E00E945A15D2
:102C400080E28093D207C093D40765E0662E60923D
:102C5000D507D093D3071092D60782ED97E00E9454
:102C60005A1589E28093CD07C093CF0776E0E72E0F
:102C7000E092D007D093CE071092D1078DEC97E069
:102C80000E945A1588E28093C807C093CA0787E05C
:102C90008093CB07D093C9071092CC0788EC97E0BC
:102CA0000E945A1587E28093C307C093C50788E046
:102CB0008093C607D093C4071092C70783EC97E0B0
:102CC0000E945A1586E28093BE07C093C00789E030
:102CD0008093C107D093BF071092C2078EEB97E095
:102CE0000E945A1585E28093B907C093BB070AE09A
:102CF0000093BC07D093BA071092BD0789EB97E009
:102D00000E945A158FE18093B407C093B6078BE0F9
:102D10008093B707D093B5071092B80784EB97E07C
:102D20000E945A1584E28093AF07C093B107ECE08C
:102D30009E2E9092B207D093B0071092B3078FEAFD
:102D400097E00E945A159092AA07C093AC07FDE045
:102D50009F2E9092AD07D093AB071092AE078AEAF0
:102D600097E00E945A159092A507C093A707AEE07E
:102D70009A2E9092A807D093A6071092A90785EAE9
:102D800097E00E945A159092A007C093A207BFE057
:102D90009B2E9092A307D093A1071092A40780EADC
:102DA00097E00E945A1590929B07C0939D0780E17F
:102DB000982E90929E07D0939C0710929F078BE9C4
:102DC00097E00E945A1590929607C093980781E168
:102DD00080939907D093970710929A0786E997E016
:102DE0000E945A1597E1992E90929107C0939307EC
:102DF00082E180939407D09392071092950781E91E
:102E000097E00E945A1582E380938C07C0938E0747
:102E100083E180938F07D0938D07109290078CE801
:102E200097E00E945A1560928707C093890784E152
:102E300080938A07D093880710928B0787E897E0E2
:102E40000E945A1570928207C093840785E180938F
:102E50008507D09383071092860782E897E00E9447
:102E60005A1580927D07C0937F0786E18093800783
:102E7000D0937E07109281078DE797E00E945A1544
:102E8000C0937807C0937A0790927B07D093790715
:102E900010927C0788E797E00E945A158EE2809393
:102EA0007307C093750788E180937607D093740702
:102EB0001092770783E797E00E945A1581E3809389
:102EC0006E07C093700789E180937107D0936F07F5
:102ED000109272078EE697E00E945A1580E3809365
:102EE0006907C0936B07A0926C07D0936A07109292
:102EF0006D0789E697E00E945A158DE2809364077A
:102F0000C0936607B0926707D09365071092680771
:102F100084E697E00E945A158FE280935F07C09382
:102F20006107C0926207D0936007109263078FE534
:102F300097E00E945A1581E280935A07C0935C077C
:102F400010935D07D0935B0710925E078AE597E0C8
:102F50000E945A1583E280935507C0935707D09279
:102F60005807D09356071092590785E597E00E94BD
:102F70005A15E09241030093420360E086E00E940C
:102F8000340460E08AE00E94340483E190E00E940F
:102F9000A90AC82F82E190E00E94A90AD82F81E1F6
:102FA00090E00E94A90A082F81E090E00E94A90AFF
:102FB000F0924A07F0924B0710924C07109251077B
:102FC0001092500780934507202F205C330BC901D6
:102FD0002D2F382FC9019093470780934607CF774D
:102FE000C09348071092490710934D0762E070E0C4
:102FF0008DE190E00E94302490934F0780934E071C
:103000000097B1F0EC0110E001E089E090E00E944F
:103010004C24FC01018312821382158214821682D1
:10302000108617821083899399931F5F1D3169F76A
:1030300010925403109255031092560310925703A6
:10304000109258031092590310925A0310925B0386
:1030500010925C0310925D0310925E0387E090E093
:103060009093530380935203DF91CF911F910F915F
:10307000FF90EF90DF90CF90BF90AF909F908F9098
:103080007F906F900895CF93DF93CDB7DEB76597AC
:103090000FB6F894DEBF0FBECDBF789483B78C64B3
:1030A00083BF87B7816087BF82E08EBD8EB58160A8
:1030B0008EBD8FB581608FBD85B5846085BD85B5BA
:1030C000806485BD80918A00836080938A008091AE
:1030D0008B00816080938B0087E886B91AB80FB6A1
:1030E000F894A89581B5886181BD11BC0FBE2FB73A
:1030F000F89490E080E0FC01E858FD4F10820196C2
:103100008F319105C1F7AF98AD98809162008B7FA8
:1031100080936200809162008E7F80936200809134
:103120006200877F80936200809162008F7E80932F
:103130006200809162008D7F809362001A981B98D4
:103140001C981D98809162008F7D809362009598F5
:1031500080916500877F80936500C798C698C59861
:10316000C498809165008B7F80936500AB98DF9851
:10317000DE98DD98DC98DB98AC98809165008E7FB6
:1031800080936500809165008D7F80936500A8988D
:10319000A998AA982FBF9FB7F894A79AA59A80914B
:1031A0006100846080936100809161008160809300
:1031B000610080916100886080936100809161006E
:1031C00080618093610080916100826080936100E2
:1031D000129A139A149A159A8091610080628093D2
:1031E00061008D9A80916400886080936400BF9A2A
:1031F000BE9ABD9ABC9A80916400846080936400FA
:10320000A39AD79AD69AD59AD49AD39AA49A809107
:103210006400816080936400809164008260809388
:103220006400A09AA19AA29A9FBF1FBC89E08EBD9C
:1032300081E194E09BBD8ABD87B7806187BF109212
:10324000970261E088E00E94340488E19BE00FB6B9
:10325000F894A89581BD0FBE91BDD12CC12CBB2483
:10326000B394F601E959FD4FE4910E2F10E0C80127
:103270000E94A90AF82EC80101960E94A90AE82E08
:10328000C80102960E94A90AA82EC80103960E94AE
:10329000A90A90914D07F91628F5F601E45EFE4F54
:1032A00000811181D8011196AC92119714968C93DC
:1032B0008F2DE11079C10E94AF014C0141E0B801AE
:1032C0000E944C0AF401958384838F2D0E94AF01E4
:1032D0007C0140E0B8010E944C0AD70118969C93EB
:1032E0008E931797F2E0CF0ED11C2EE3C216D104B5
:1032F00009F0B7CF61E070E084E090E00E943024F4
:103300009093510780935007892B91F010E000E0D3
:10331000E0905007F0905107E00EF11E802F0E94C0
:10332000380DD7018C930F5F1F4F0430110581F7C3
:1033300080E00E94240D082F10E081E00E94240DFF
:10334000282F30E0322F222722273E7F000F111F27
:10335000202B312B309353072093520780FF05C059
:1033600021603093530720935207A8958DE59EE086
:10337000909318028093170283EA96E090931A02C2
:1033800080931902109225021092240210922302B7
:10339000109222021092210211E01093200210924A
:1033A0001F0261E083E10E94060461E082E10E9465
:1033B0000604809171008E7F80937100809171006E
:1033C0008D7F8093710088E48093700085E4809302
:1033D000740085E493E090931E0280931D0281E5C2
:1033E00093E090931C0280931B0282E08093720012
:1033F0008CE08093700060E086E10E94340486E1F6
:103400000E94DD03892B11F4109344028091440241
:103410008111FBC081E090E00E94A90A21E030E028
:1034200030933502209334028093360281E190E09C
:103430000E94A90A21E130E030933802209337023C
:103440008093390282E190E00E94A90A22E130E0F3
:1034500030933B0220933A0280933C028DE190E04E
:103460000E94F70A81FDB7C08DE190E090933E0283
:1034700080933D0210923F0287E08093590280932F
:103480005A0260E00E94340461E087E00E94060472
:1034900060E086E00E94EE0E80914402882309F4E9
:1034A000E1C0412C512C32014394E0E08E2EE0E04B
:1034B0009E2EF0E0EF2EF0E0FF2EA0E0CA2EA0E05E
:1034C000DA2EB0E02B2EB0E03B2E80915103882302
:1034D00009F4ECC0E0914B03E152EF3508F0E0C095
:1034E000F0E0EB58F54E0C941324D01B501BDA1B64
:1034F000EC1B151CFE1B501B231C2E1C361C3E1CDB
:10350000471C4F1C571C5F1C671C711C501B501B19
:10351000501B501B501B501B501B501B501B501B53
:10352000501B501B501B501BAC1BB71BC01BC81B98
:10353000501B501B501B501B501B501B501B501B33
:10354000501B501B501B501B101C151C501B501B9C
:10355000501B501B501B501B501B501B501B501B13
:10356000501B501B791C501B451B4C1B581B5D1BD3
:10357000501B501B501B501B501B501B501B501BF3
:103580008A1C621B951B501B501B501B501B501B51
:10359000501B501B501B941C501B501B501BD41C09
:1035A000501B501B501B781D0E94AF01FC01B282C2
:1035B000F0E8EF1609F489CEB1E8EB1293CE8F2D27
:1035C0000E94AF017C0141E0B8010E944C0AF70162
:1035D0009583848387CE8DE190E00E94F70A85FD74
:1035E0000DC08091160190911701A0911801809350
:1035F0003D0290933E02A0933F023ECF809119017D
:1036000090911A01A0911B01F2CF10924F031092DA
:1036100050031092510310924703109248031092E6
:10362000490310924A0310924303109244031092EC
:10363000450310924603809141039CEF980F94300C
:1036400020F08251843008F08FEF42E050E065EACC
:1036500077E00E94E80181E893E00E94A90A809344
:1036600054071ACF62E0462E512C8091450290916A
:1036700046028130910509F41AC508F484C2029704
:1036800011F40C949823A895F0CF60914C0381E03D
:1036900090E00E94BE0C04C080914C030E949D0CDF
:1036A00010924F031092500310925103A8950DCF22
:1036B00060914C0383E090E0ECCF60914C0384E098
:1036C00090E0E7CF80914C03682F661F6627661F46
:1036D0008F7780934C032114310411F3811121C0A1
:1036E00081E080932F0261110EC080912F0287FD2F
:1036F000D7CF60E090E00E94000080912F028F5FA2
:1037000080932F02F2CF80912F0287FDC9CF61E015
:1037100090E00E94000080912F028F5F80932F0223
:10372000F2CF90E00E940000BBCF80914D038F3616
:1037300009F0B6CF2114310409F4B2CF20914C0323
:10374000622F661F6627661F80914E03B0E88B9F2D
:10375000C0011124822BE6CF60914C0381E090E000
:10376000C114D10409F49CCF0E94000099CFC11468
:10377000D10409F495CF60914C0382E090E0F4CF3E
:1037800060914C0383E090E0C114D10469F788CFC5
:1037900060914C0384E090E0C114D10429F780CFFC
:1037A000E0E0F0E0EF2B09F47BCF80914C030E9426
:1037B000000076CF20E030E0232B09F471CF809118
:1037C0004C0390E087FF05C0819590E0919581952D
:1037D00091090E94000064CF40E050E0452B09F4BD
:1037E0005FCF90914C0380E8890F61E070E097FD16
:1037F00002C070E060E00E94000052CF80E090E0E4
:10380000892B09F44DCF80914C0390E087FF05C0D0
:10381000819590E09195819591090E94000040CF9B
:10382000A0E0B0E0AB2BE9F63BCF90914C0380E8F1
:10383000890F97FF03C00E94F00C32CF70E060E068
:103840000E94060D2DCF60914C0381E090E0E114C1
:10385000F10409F425CF0E94000022CF60914C03AF
:1038600082E090E0E114F104B1F71ACF60914C03CB
:1038700083E090E0E114F10471F712CFE114F10458
:1038800009F40ECF60914C0384E090E0E4CF6091A6
:103890004C0385E090E0E114F104E9F601CF60917A
:1038A0004C0386E090E0E114F104A9F6F9CE6091B2
:1038B0004C0387E090E0E114F10469F6F1CE6091E9
:1038C0004C0388E090E0E114F10429F6E9CE609120
:1038D0004C0381E08114910409F4E2CE0E940000BF
:1038E000DFCE8114910409F4DBCE60914C0382E0B9
:1038F000F5CF80914D038F3509F0D2CEE0E0F0E0B6
:10390000EF2B09F4CDCE90914E0380914C030E9491
:103910000000C6CE20E030E0232B09F4C1CE809118
:103920004C030E940000BCCE00914C0310E00F5FDE
:103930001C4FC8010E94C201882309F4B1CE01388E
:1039400033E01307E1F0043843E01407E9F00538E9
:1039500053E0150781F00C3A83E01807A9F00D3AFF
:1039600093E0190741F0043DA3E01A0769F0053D13
:10397000B3E01B07A9F4FAE0F0932E0208C080918F
:10398000540780932E0203C0EDE0E0932E02909145
:103990004D0380912E02981383CE0E94070680CE9D
:1039A000C8010E94490DEDCF20914C032B8B022FB3
:1039B00010E00F5F1C4F10932D0200932C02C801E2
:1039C0000E94C201882309F46BCEA0904D038A2D7A
:1039D00090E09C01A4E035952795AA95E1F7422F48
:1039E00041704C8B40932B029C01B3E03595279599
:1039F000BA95E1F7522F51705D8B50932A029C01CA
:103A0000359527952170B22EBB0C95958795959588
:103A100087958170880F880F8B0D9A2D9170B82E25
:103A2000B90EB0922902043883E0180741F00C3A2D
:103A300093E0190721F0043DA3E01A07B1F4BDE0BB
:103A4000B09328024C89413031F18091280290E0F6
:103A500002C095958795BA94E2F7817099275D89A0
:103A60005817190609F01CCE98CF0538E3E01E0759
:103A700041F00D3AF3E01F0721F0053D23E0120766
:103A800021F43AE030932802DDCFC8010E94490DAD
:103A900080932802D7CFC80184589340029708F436
:103AA000FFCD8B898B5A823008F4FACD8B89835DE8
:103AB000823008F4F5CDD301C20104C0880F991FEC
:103AC000AA1FBB1FBA94D2F720912802A3FE0DC0F3
:103AD000822B8093280260912802C8010E94F40D75
:103AE000909128028913DCCD58CF80958223F1CFA5
:103AF00000914C0310E00F5F1C4F109327020093BE
:103B00002602C8010E94C201882309F4C9CD0538E4
:103B100083E0180709F4C4CD0D3A93E0190709F4BE
:103B2000BFCD053DA3E01A0709F4BACD0438B3E0D0
:103B30001B0741F00C3AE3E01E0721F0043DF3E0DF
:103B40001F0749F480914D03883029F40E94770DB6
:103B50000E94070609C060914D03C8010E94F40D40
:103B600090914D038917A1F380912602909127022D
:103B70008138934009F094CD81E893E00E94A90A2E
:103B8000809354078DCD80914A028823B1F00E9422
:103B9000310600914B0210914C0220914D02309160
:103BA0004E02601B710B820B930B65317105810511
:103BB000910518F080E00E943D0A809165028823FB
:103BC00009F45EC2F89488E0E0E7F2E0ADE3B7E024
:103BD00001900D928A95E1F71092650278943091E8
:103BE0007002E2E7F2E090E080E0391721F02191E5
:103BF00082279F5FFACF811143C280E090E0892B3A
:103C000021F08DE397E00E94000080913F07811131
:103C100021C09091400791111DC080E090E0892B58
:103C200019F080E00E94000080914A02882371F020
:103C300081E00E9434080E94650460934002709302
:103C40004102809342029093430218C481E00E9493
:103C50003D0AF1CF90914A02992309F486C080571A
:103C6000803108F07FC081E00E94340810913D0748
:103C70008091510218130AC0412F50E063E572E0B1
:103C80008FE397E00E947125892B61F0109250021A
:103C900088E0EDE3F7E0A1E5B2E001900D928A95AE
:103CA000E1F7C9CF809150028F5F809350021330AB
:103CB00009F040C090913F07892F8770F09040072E
:103CC000853029F4F0924F020E942106B4CF0DE115
:103CD00010E0843091F0282F30E08430F0F400912F
:103CE0004F020023D1F00150110B000F111F000FE4
:103CF000111F020F131F0F5F1F4F93FF10C061E0D2
:103D0000C8010E94AF0D882309F495CF6F2DC8011B
:103D10000E94CB0EF8128FCFD7CF8901ECCF60E095
:103D2000C8010E94AF0D882309F485CFC8010E9405
:103D3000130BF0CF143009F07ECF80913F07682F2E
:103D400070E0762F66276627737090914007692B85
:103D50006F5F7F4F2FE236E0409141078C700E94E9
:103D60008A0F69CF80E00E943D0AE0913F07EF3F54
:103D700061F48091400781115ECF80E090E0892B53
:103D800009F459CF0E94000056CFE7FD0DC0009105
:103D90004207209141074091400770E060E08E2F7C
:103DA00090E00E94F80F47CFE03C08F058C13091F6
:103DB000480237FF40CF20914007822F90E08C01CE
:103DC00000951095000F111F000F111F007C11703E
:103DD000EF730E2B95958795482F4370B42E8091E5
:103DE0003D07853041F52C782C3029F50E94150BC4
:103DF0008017910721F00F3F114009F01CCF8091EF
:103E0000400790E0982F88278827937000914107FA
:103E1000080F192F111D0F5F1F4FF090420761E02F
:103E2000C8010E94AF0D6F2D882309F404CFC8018B
:103E30000E94CB0E00CF680181E0C81AD108CC0CDB
:103E4000DD1CCC0CDD1CCB2876019FEFE91AF90AAA
:103E500080915D028823F9F036FF41C0C70160E020
:103E600071E00E94FF23682F81E090E00E94CB0E5A
:103E7000C701F7FE02C081509F4F692F89E090E093
:103E80000E94CB0E80E090E0892B19F0C7010E94C0
:103E9000000010925D028091480280FD39C080913F
:103EA0003D07843009F04FC0809140078978813008
:103EB00009F0C1CE6091410780E090E0892B19F0B4
:103EC000C7010E94000080E090E0892B09F4B3CE86
:103ED000409141076B2DC7010E940000ACCEB80194
:103EE0006F73772781E090E00E94CB0EB80136E037
:103EF000759567953A95E1F789E090E00E94CB0EC1
:103F000080E090E0892B29F2C8010E940000C1CF17
:103F100086FF0DC00E94150B8E159F0509F4BFCFBB
:103F2000ADEFEA16A7E0FA060CF0B9CF84CE0E94F6
:103F3000150B8017910709F4B2CF0F3FB1E01B07B3
:103F400009F4ADCF78CE833069F540914007E42F76
:103F5000E170CE2E43FBDD24D0F880E090E0892B89
:103F600031F047702D2DB801C7010E9400008091EB
:103F7000480286FF0BC080E090E0892B09F45BCEFD
:103F80004D2D6C2DC7010E94000055CE80E090E0C1
:103F9000892B09F450CE2D2D4C2D6B2DC8010E947C
:103FA000000049CE863009F046CE80914007982F18
:103FB0009978913021F08F78803809F03CCE80914B
:103FC000480286FF28C00E94150B8E159F05E9F454
:103FD0008091410790E0382F2227222733700091EB
:103FE0004207020F132F111D0F5F1F4FF090430761
:103FF000959587959595879583709927823091053A
:1040000099F0039709F40BCF16CEFDEFEF16F7E00A
:10401000FF06F4F610CE0E94150B80179107C1F22F
:104020000F3F1140A9F207CEF4FE05CE61E0C801B2
:104030000E94AF0D882309F4FECDC8010E94130B26
:104040009F2D977061E070E001C0660F9A95EAF7C6
:10405000F3FE02C0682BEBCE60956823E8CEE83E05
:1040600008F0E9CDE05CFF0B809140070091430729
:10407000209142074091410761E070E09E2F91CE70
:104080000E94650400914002109141022091420279
:1040900030914302601B710B820B930B613F79449B
:1040A0008240910508F4EAC10E94330FC4CD0EEAA4
:1040B00013E07AE0E72EF12CDD24D394E3E6CE2E54
:1040C000F3E0BF2EA2E0AA2EBBE13B2ED8011B9647
:1040D0008D919C91019709F03FC1F801E654F109D7
:1040E00080819181329660807180680E791EF8011E
:1040F000118A128A168212861586168617861782EC
:10410000108A138A1186158214829301359527959A
:104110004801FCE58F1A9108F40161E070E086899E
:104120009789A72FA69541E050E04C0F5D1F4A0FDD
:10413000511DDA0141E0281739070CF040E04C939B
:10414000713248F4408D518D840F951F8E5791091F
:10415000C19708F460E07E5F3496743201F7FE0187
:104160003196CE9C9001CF9C300D112440E357E056
:10417000421B530B90E080E0708171118FC0718100
:104180007111A6C0D401A80FB91F1D961C920196EB
:1041900032968930910581F7F80180819181A28161
:1041A000B38185519540A109B10983359B40A10593
:1041B000B10508F035C1662309F432C181E046E952
:1041C000641671040CF080E0D80151968C93F801CC
:1041D000EC54F109908131978081B9E08B9F802D5B
:1041E0001124939D800D112432979081890F31966F
:1041F0004081942F990F940F890FF8018683EB5417
:10420000F10946E9641671040CF4F5C081E090816F
:10421000913009F080E0D8011D968C938989880F30
:104220009F85890F880F9D85890F880F9B85890F32
:1042300091E009F090E0F801968791E0813009F073
:1042400090E0D8011F969C9381118150F8018783DB
:104250008289882309F456C08C85880F9E85890F32
:10426000880F9889890F880F9A89890FEEEFE80FD8
:10427000EE3008F047C0F0E0E05CFE4D0C941324F3
:10428000752175217D217D21E721E7218221822170
:10429000EC21EC21F021F021F521F5217130C1F460
:1042A0002180A1E02A1206C0DA01A80FB91F1D96CD
:1042B0002C926DCF21100CC0D401A80FB91F1D96F0
:1042C000AC92853008F463CFD80152967C935FCFCF
:1042D000853048F0DA01A80FB91F1D96BC92D801AD
:1042E0005296DC9254CF60E057CFD8011996AC9229
:1042F0001997817053968C9305C041E050E0F80106
:104300005583448389E090E0FAE0EF16F10411F060
:104310008E199F09D8011C965C924E921B97C89EDD
:10432000B001C99E700D1124FB01E754FC4F808140
:104330009181029789F4615A7C4F49E050E08DE306
:1043400097E0821B930B0E947125892B29F423E0AF
:1043500030E0F80134872387F1E0EF1AF1080D59B6
:104360001F4FE114F10409F0B1CEE9EBF3E090E066
:1043700080E0208131812330310509F059C023E6E6
:10438000289F8001299F100D1124F801E754FC4F4C
:1043900084E090E091838083015A1C4F0115110540
:1043A00009F04EC00E946504009140021091410244
:1043B0002091420230914302601B710B820B930BE0
:1043C000613F79448240910508F458C06DCED80110
:1043D0001996BC9219978DCFF8015582448292CFDD
:1043E000D8011996DC92199784CF44E0F8014187EF
:1043F0008170838B87CF8081811112C08F85880F58
:104400009D85890F880F9B85890FD8011A968C93FB
:1044100081E09989913009F080E0F801808B72CFBA
:10442000E5E0F0E0D8011C96FC93EE931B9794CF47
:104430000196ED59FF4F8A30910509F09ACFB2CF1E
:104440000E9465046093400270934102809342028F
:1044500090934302680125E5C20ED11CD601EC9170
:10446000E0903602F0E0F12CCF018E199F098130E7
:10447000910509F498C024F4892B39F1A89503C952
:104480008230910509F4DBC00397C1F780E390E027
:104490000E94F70A83FFF2CF80913002F801E85AB8
:1044A000FF4F9081923009F42DC108F012C1913074
:1044B00009F41CC1F60180812091300244E050E0F3
:1044C00070E060E08350990B89C080913302D8017D
:1044D000A45ABF4F9C91992359F180618093330274
:1044E00090913302D801A85ABF4F8C918230D1F1FC
:1044F00008F5813059F12091330241E050E070E03D
:1045000060E0CF010E94650BF801ED5AFF4F8081FA
:10451000918181309105E1F533960DE110E021E0C4
:1045200030E0408170E060E0C7010E94AB0AA6CF96
:104530008F7ED4CF833001F18430E9F6D801AE59B3
:10454000BF4F8C91882311F1986007C0D801AE59F4
:10455000BF4F8C91882321F0916090933302CBCF91
:104560009E7FFBCFD801AE59BF4F8C91882311F0AD
:104570009260F3CF9D7FF1CFD801AE59BF4F8C91A0
:10458000882311F09460E9CF9B7FE7CF977FE5CF39
:10459000029709F073CFF801EA5AFF4F0DE110E0DE
:1045A00030E020E0BECF80E390E00E94F70A81FF78
:1045B00065CF80913202F801E85AFF4F9081923026
:1045C00041F178F49130C9F0F601808120913202F6
:1045D00042E050E070E060E08150990B0E94650B72
:1045E0004DCF933001F1943079F7F801EE59FF4F38
:1045F0009081992311F1886007C0F801EE59FF4FAF
:104600009081992321F0816080933202DDCF8E7FEB
:10461000FBCFF801EE59FF4F9081992311F0826092
:10462000F3CF8D7FF1CFF801EE59FF4F90819923A1
:1046300011F08460E9CF8B7FE7CF877FE5CF80E300
:1046400090E00E94F70A82FF19CF80913102F801B1
:10465000E85AFF4F9081923031F168F49130B9F00F
:10466000D6018C912091310243E050E070E060E08F
:104670008250990BB3CF933001F1943089F7F80150
:10468000EE59FF4F9081992311F1886007C0F8011E
:10469000EE59FF4F9081992321F081608093310280
:1046A000DFCF8E7FFBCFF801EE59FF4F908199232A
:1046B00011F08260F3CF8D7FF1CFF801EE59FF4FFB
:1046C0009081992311F08460E9CF8B7FE7CF877FBA
:1046D000E5CF933009F1943009F0ECCEF801EE59B2
:1046E000FF4F9081992311F1886007C0F801EE59BE
:1046F000FF4F9081992321F0816080933002DACEC0
:104700008E7FFBCFF801EE59FF4F9081992311F076
:104710008260F3CF8D7FF1CFF801EE59FF4F90818A
:10472000992311F08460E9CF8B7FE7CF877FE5CFB6
:104730008091500790915107892BB1F110E0809141
:104740004D07181788F5812F86958695869590E0F8
:10475000E0915007F0915107E80FF91F608170E078
:10476000212F30E053E0880F991F5A95E1F7A901F6
:10477000481B590B02C0759567954A95E2F760FF93
:1047800011C080914E0790914F07009759F0220F6A
:10479000331F820F931F60914A07DC018D919C911A
:1047A0000E94C9091F5FCBCF0E946504009140029F
:1047B000109141022091420230914302601B710B23
:1047C000820B930B603F79448240910508F06CCCDA
:1047D000A895EACFE199FECF9FBB8EBBE09A9927BF
:1047E0008DB30895262FE199FECF9FBB8EBB2DBBC5
:1047F0000FB6F894E29AE19A0FBE0196089597FBDE
:10480000072E16F4009407D077FD09D00E941C24CF
:1048100007FC05D03EF4909581959F4F08957095C3
:1048200061957F4F0895EE0FFF1F0024001C0BBE03
:104830000790F691E02D0994AA1BBB1B51E107C01C
:10484000AA1FBB1FA617B70710F0A61BB70B881F20
:10485000991F5A95A9F780959095BC01CD010895AF
:104860000F931F93CF93DF93869F8001879F100D37
:10487000969F100D1124C8010E944C24EC01009752
:1048800029F0A80170E060E00E947E25CE01DF9152
:10489000CF911F910F9108950F931F93CF93DF93A3
:1048A0008230910510F482E090E0E091F207F091FF
:1048B000F30730E020E0B0E0A0E0309799F4211554
:1048C000310509F44AC0281B390B24303105D8F5CD
:1048D0008A819B816115710589F1FB019383828334
:1048E000FE0111C04081518102811381481759078F
:1048F000E0F04817590799F4109761F012960C935D
:10490000129713961C933296CF01DF91CF911F918E
:104910000F9108950093F2071093F307F4CF211538
:10492000310551F04217530738F0A901DB019A0114
:10493000BD01DF01F801C1CFEF01F9CF9093F3077B
:104940008093F207CDCFFE01E20FF31F8193919385
:104950002250310939832883D7CF2091F007309135
:10496000F107232B41F42091120130911301309370
:10497000F1072093F00720911001309111012115CA
:10498000310541F42DB73EB7409114015091150106
:10499000241B350BE091F007F091F107E217F307C4
:1049A000A0F42E1B3F0B2817390778F0AC014E5F9F
:1049B0005F4F2417350748F04E0F5F1F5093F107E4
:1049C0004093F007819391939FCFF0E0E0E09CCF7C
:1049D000CF93DF930097E9F0FC01329713821282A4
:1049E000A091F207B091F307ED0130E020E01097BD
:1049F000A1F420813181820F931F2091F007309123
:104A0000F1072817390709F061C0F093F107E09327
:104A1000F007DF91CF910895EA01CE17DF07E8F59F
:104A20004A815B819E0141155105B1F7E901FB8384
:104A3000EA8349915991C40FD51FEC17FD0761F422
:104A4000808191810296840F951FE9019983888363
:104A5000828193819B838A83F0E0E0E012968D91BE
:104A60009C9113970097B9F52D913C911197CD0129
:104A70000296820F931F2091F0073091F1072817BB
:104A8000390739F6309751F51092F3071092F20773
:104A9000B093F107A093F007BCCFD383C2834081CA
:104AA0005181840F951FC817D90761F44E5F5F4F7E
:104AB00088819981480F591F518340838A819B8146
:104AC000938382832115310509F0B0CFF093F3076A
:104AD000E093F2079ECFFD01DC01C0CF138212826A
:104AE000D7CFFB01DC0104C08D910190801921F426
:104AF00041505040C8F7881B990B0895DC0101C054
:0E4B00006D9341505040E0F70895F894FFCFB8
:104B0E00E7010000000000000000000000000000AF
:104B1E000000F40780001D00021D0022EB07E607CF
:104B2E00E107DC07D707D207CD07C807C307BE07C3
:104B3E00B907B407AF07AA07A507A0079B079607F3
:104B4E0091078C07870782077D07780773076E0723
:104B5E00690764075F075A07550700000000BD028A
:104B6E007B035F02040390026E02820200000000CB
:0E4B7E00AB069806BC066E0691067E066F0614
:00000001FF
